:020000040040BA
:1000000048364020D9484000D5484000D5484000F7
:10001000D5484000D5484000D548400000000000C9
:10002000000000000000000000000000D548400073
:10003000D548400000000000D5484000D5484000A9
:10004000D5484000D5484000D5484000D54840003C
:10005000D5484000D5484000D5484000D54840002C
:10006000D548400000000000C5434000D94340008F
:10007000ED434000D5484000D5484000D5484000F9
:100080000144400015444000D5484000D548400098
:10009000D5484000D5484000D5484000D5484000EC
:1000A000D5484000D5484000D5484000D5484000DC
:1000B000D5484000D5484000D5484000D5484000CC
:1000C000D5484000D5484000D5484000D5484000BC
:1000D00000000000D548400000000000D548400066
:1000E000D5484000D5484000D5484000D54840009C
:1000F000D5484000D5484000D5484000D54840008C
:10010000D5484000D5484000D5484000D54840007B
:10011000D548400000000000000000000000000082
:10012000D5484000D5484000D5484000D54840005B
:10013000D548400000000000D5484000D5484000A8
:1001400010B5054C237833B9044B13B10448AFF311
:1001500000800123237010BDE4084020000000004F
:10016000B0CC4000084B10B51BB108490848AFF3AC
:1001700000800848036803B910BD074B002BFBD073
:10018000BDE81040184700BF00000000E80840200C
:10019000B0CC4000B0CC40000000000010B5074BD0
:1001A000196891F82230003318BF01234A7C09688E
:1001B00003480078034CA04710BD00BF040940204D
:1001C00008094020810D400010B5002854D1334B60
:1001D0009A68334B03EB52135B02D96B02F01F0298
:1001E000012303FA02F20A420ED02C4B9B7B012B17
:1001F00005D12C4B1B7813B100222B4B1A60042223
:10020000264B9A73022010BD244B9B7B042B15D1E7
:100210000122224B9A73244B1B683BB9214B1A7065
:10022000214B224959601A60022010BD00221D4B4B
:100230001A701F481F4B9847022010BD012B0BD18D
:10024000184B1B78F3B1184B1B6813F4803F15D083
:100250000022154B1A6015E0032B11D00022164B1B
:100260001A700E4C154B1C60154B9847A07B02284A
:1002700014BF0020012010BD042010BD022010BDBD
:10028000032010BD054B02229A730E4A1A60012208
:100290005A74002283F82220E0E700BF0C004020BF
:1002A000070720000009402010E000E060343C0215
:1002B0006BAF0303010040200809402004094020DF
:1002C0009D014000801A060038B5049C520242EAA3
:1002D000C36343EA017141EAC0702178014341F2EE
:1002E0003430044B9847054610B1034B98472070B3
:1002F000284638BD4D0E4000710E400010B5084B29
:100300001B689989090441F60930064B9847044651
:1003100020B1034B18681230034B9847204610BD9C
:10032000040940204D0E4000790E400008B5034BF3
:100330001B7813B90020024B984708BD08094020DC
:10034000250E400008B51020054B98470422054BA8
:100350009A73FF22044B1A70044B984708BD00BFE4
:10036000D54540000C00402008094020450D4000C4
:100370002DE9F04194B0A84B9847012805D00446D8
:10038000A64B9847204600F014BC14AD082305F88E
:10039000453DA34B1B680126DE7300241C749C8121
:1003A000A04B9847009523460622214630469E4D95
:1003B000A84721464FF480409C4B9847002800F006
:1003C000AB834FF4D57145F20850984B98470028FD
:1003D00000F0AA83964B9847B0F1FF3F00F0A78347
:1003E000C0F30B00B0F5D57F40F09683B046A0E394
:1003F0008F4B984710F0E04F00F0A38341F289340F
:1004000044F20556894D8A4F00F4FC113046A84746
:10041000002800F08183B847002802DB013CF3D1BB
:100420007AE310F0006F04D07D4B1B680522DA736D
:100430008EE37B4B1B680422DA7361E1414641F293
:100440003710A847002800F09083314644F2295025
:10045000A847002800F08983B84700280ADA10F07E
:10046000804F00F08E836E4B1A68D37B43F00803F5
:10047000D37386E3013CE1D177E341F269046D4E29
:100480006A4D6B4F314644F20150A847002800F0F6
:100490004383B84700280CDA00F0C040B0F1804F29
:1004A00040F077835E4B1A68D37B43F00803D37325
:1004B0006FE3013CE6D12FE3594B1B6801229A817F
:1004C0004FF4803141F20310584B9847002800F058
:1004D0002383594B9847002800F01E83504B19681E
:1004E0008B7CC3F38303013B032B03D8DFE803F0CA
:1004F00005080B0E12230B740AE014230B7407E09B
:1005000022230B7404E030230B7401E040230B74AE
:100510004B7DC3F3C30003F00703484A52F823207E
:100520004FF47A7303FB02F3454A52F8202003FB91
:1005300002F30B60887E4B7E0A7E920242EA8303BE
:1005400043EAA013C3F30B0340F6FF7293420FD0AC
:10055000087FCA7E520042EAE012013302F007022D
:1005600002329340CA7D02F00F0293409B0A4B6017
:100570008989090443F207102C4B9847002800F0A2
:10058000CB82274B1B681B7C3F2B40F29D800021B8
:10059000009101234FF400722A482B4CA0470028F9
:1005A00000F0BA820024294D03A8A847002800F0D3
:1005B000B3820134A4B2322CF6D1039B03F00203C0
:1005C000DDB2174B1A68917E537E127E920242EA88
:1005D000830343EAA113C3F30B0340F6FF72934274
:1005E0000ED11A4E04A8B047002800F095820134BD
:1005F000A4B2352CF6D90A4B1A68049B5B085360E9
:10060000124E06E004A8B047002800F085820134AD
:10061000A4B27F2CF6D9C4E2C90140002D034000EA
:1006200004094020290E4000C90240004D0E400040
:10063000710E400000801F40FD0240008CB8400059
:10064000A8B8400008110800A90E4000710F400032
:10065000A44B1878A44B98470446042805D0A34916
:10066000A34B082808BF194600E0A24943F2061030
:10067000A14B9847002800F04F82A04B984710F0FC
:10068000800F40F049829E4B1B685C749D4B9847DD
:100690009D4B984705B3F8B19C4943F20610964B21
:1006A0009847002800F03882944B984710F0800F4C
:1006B00040F03282924B1B68012283F82220944A38
:1006C0001A60904B984707E08E4B984704E03946F4
:1006D0003046A84738B117E20A244FF4007741F2B8
:1006E0001016854DF3E7013C14F0FF04EFD113E23F
:1006F000002145F60230804B9847002800F00C821C
:10070000002145F203107C4B9847002800F004823A
:100710007B4C2568794B9847000CA8812368DB7BCC
:1007200013F0010F41D07B4B9847002800F0F48173
:1007300023685A7DC2F3C30002F00702764951F8DC
:1007400022104FF47A7202FB01F2744951F8201022
:1007500002FB01F21A609A7C92090CD0DA7E987E34
:10076000597E090441EA00210A43C2F3150201320D
:1007700052025A6019E0987E5A7E197E890241EA37
:10078000820242EAA012187FD97E490041EAE011B4
:10079000C2F30B02013201F0070102318A40D97D18
:1007A00001F00F018A40920A5A60554B1B689989E3
:1007B000090443F20710504B9847002800F0AC8121
:1007C0004F4B1B68DA7B12F0010F40D09989090466
:1007D00041F23710484B9847002800F09D810123D3
:1007E0000093082200214E484E4CA047002800F0FC
:1007F0009381012104A84C4B9847002800F08C817C
:100800004A4B9847002800F087819DF8103003F08C
:100810000F03012B08D013B1022B0AD013E0384B81
:100820001B6810221A7412E0354B1B681A221A74C6
:100830000DE09DF81230DB09314B1B6814BF3022EC
:1008400020221A7403E02E4B1B6810221A742C4BC2
:100850001B68DB7B13F0040F00F093800924002653
:10086000334DA4F1090303AA1344009333462246EF
:1008700031463046A84701340D2CF2D19DF80D20A9
:100880009DF80C3003EB02239DF80E8003EB084328
:100890009DF80F8003EB08684546254F0024264647
:1008A00004AB2344009333462A1931463046B847F7
:1008B0000134032CF4D19DF81030FF2B00F02C8173
:1008C000222B02D19DF81230A3B39DF81130002BDA
:1008D00000F0228102331D4408F580739D42DDD96A
:1008E0001AE100BF08094020710D40000000B70167
:1008F0000002B7010001B7014D0E4000710E40002B
:10090000040940209D0140007D0D40000001B90315
:1009100000751903FD0240008CB840004CB840003F
:1009200033110800A90E4000E50F40009910400067
:10093000C902400004AC05F1060800279E4E009451
:100940003B462A4639463846B047013501344545CD
:10095000F5D19DF81530322B28BF3223974A126803
:10096000C3F3C30003F00703954951F823104FF474
:100970007A7303FB01F3934951F8201003FB01F351
:100980001360914B1878914B9847032842D98B4BB1
:100990001B68DB7B13F0040F1FD004AB0093002314
:1009A000082219461846844CA047002800F0B4805D
:1009B0009DF91030002B10DA14AB022203F8402D01
:1009C00000930123072200211846A047002800F0C9
:1009D000A3807A4B1B6804225A74784B1B68DA7B1D
:1009E00012F0010F14D09989090441F23710784BA5
:1009F0009847002800F09080022141F20610744BC5
:100A00009847002800F088806C4B1B6804225A74B9
:100A1000704B9847704B9847002868D0674B1B680D
:100A2000DB7B13F0040F22D004AB009300231322CE
:100A300019461846604CA04700286DD09DF810302C
:100A400013F0010F13D014AB022203F8402D0093D2
:100A50000123132200211846A04700285CD0574BE1
:100A60001B68012283F822201A6852001A60534B37
:100A70001B68DA7B12F0010F37D01B7C102B34D9A6
:100A800040242246002104A8544B98470123009398
:100A9000224653495348544CA04700283CD00121DA
:100AA00004A8524B9847002836D0514B984700284D
:100AB00032D0504B984710F0800F2DD19DF8203048
:100AC00003F00F030F2B10D09DF82D309DF82C2034
:100AD00053EA022320D1484B9847384B1B68012228
:100AE00083F822201A6852001A603A4B9847334B19
:100AF0001B68DB7B13F0010F06D04FF4007141F24D
:100B00001010334B984738B12C4B1B6800229A7356
:100B10003A4B984701204CE0284B1B6803249C73F8
:100B2000364B9847204644E04FF0000801E04FF074
:100B30000008002144F20550254B984700287FF417
:100B400057AC1E4B1B68DB7B13F0010F3FF4D8AD95
:100B5000B8F1000F2A4E08BF4FF4FC1640F63504DA
:100B60004FF000081A4D234F68E4144B1B68022213
:100B7000DA7300214FF48040154B98470028CBD002
:100B80007BE40E4B1B68DB7B13F0010F7FF4B0ADF1
:100B9000B6E5002145F602300D4B98470028BBD042
:100BA0008AE4094B1878094B984703283FF650AD63
:100BB0006EE514B0BDE8F081C90240000409402090
:100BC0008CB840004CB8400008094020710D40002E
:100BD0004D0E40009D0140007D0D40005D514000E4
:100BE00001FFFF8006110800A90E4000E50F40003C
:100BF00099104000710E4000290E40002D03400066
:100C000000801F4008B5054B984728B9044B98470A
:100C1000044B1B68D87B08BD002008BDC9014000FB
:100C20002D0340000409402010B504460F4B98479F
:100C3000012816D018B102280ED0012010BD0C4B8F
:100C40001B5D83B920460B4B984700F0030000283A
:100C500014BF0020022010BD0022054B1A550220AF
:100C600010BD032010BD022010BD00BF7103400065
:100C70000C094020050C400070B44FF080435D68C3
:100C80009C68D868D9695A6D80261E605D609C603A
:100C9000D860D9615A6500221A6505221A6070BCB5
:100CA000704700BF08B501F03F03184311F4807F7F
:100CB0000CD011F4006F02D040F4845006E011F41F
:100CC000005F14BF40F4865040F4825011F4804F0E
:100CD00018BF40F400604FF080431A615861184615
:100CE00001F48052036C32B113F41F0F0AD0144B7D
:100CF0009847002008BD13F41B0F03D0104B9847F2
:100D0000002008BD13F0010FECD011F4005F0ED1EC
:100D1000012008BD0B6C013A03D1094B9847002014
:100D200008BD03F03003202BF4D1012008BD4FF0A3
:100D300080431B6C4FF0FF324FF08041F1E700BF62
:100D4000790C400010B51220084CA0473A20A0476B
:100D50004FF0804372229A60DA6111225A654FF493
:100D6000E0625A6005221A6010BD00BFD545400000
:100D700000280CBF04200020704700BF01207047EE
:100D800010B433B14FF08040436D43F4807343653A
:100D900005E04FF08040436D23F4807343651F4BA3
:100DA000B3EB410F2DD31E48B0FBF1F301FB130150
:100DB00009B9023B00E0013B4FF08041486820F058
:100DC000FF0048604868C3F347042043486013F0BD
:100DD000010F04D04B6843F480334B6005E04FF0C3
:100DE00080414B6823F480334B60042A04D0082AE6
:100DF0000CBFC022002200E080224FF08043DA6066
:100E000008E04FF08043596821F0FF0159605968AC
:100E10005960E4E75DF8044B704700BF7FD1F008EC
:100E200080D1F008704700BF4FF080435A6822F429
:100E300060525A6000221A614FF410625A611A46D9
:100E4000136C13F0010FFBD0704700BF10B54FF0CB
:100E500080435A6822F460525A6000241C659C61E9
:100E60000A4601462046014B984710BDA50C40009C
:100E70004FF08043186A704710B4031D14304FF0D0
:100E80008044226A110E03F8041C110C03F8031CA1
:100E9000110A03F8021C03F8012C04338342F0D139
:100EA0005DF8044B704700BF70B59DF810402CB141
:100EB0004FF480754FF08044256503E000254FF026
:100EC000804425654FF080456C6844F4C0546C60E4
:100ED00012F0030F04D06C6844F400546C6005E019
:100EE0004FF080456C6824F400546C6000F40044BA
:100EF000002C14BF4FF480344FF4A02410F4803F32
:100F000007D044F40014C2F308054FF08046B561E1
:100F100018E043EA02454FF08046B56110F4003F07
:100F200002D044F420140DE010F4802F02D044F4D9
:100F3000801407E010F4002F04D110F4801F18BFB4
:100F400044F400240026064D2E60064D2A80064AF1
:100F500013800A4601462046044B984770BD00BFE7
:100F6000140940200E09402010094020A50C400023
:100F700008B54FF08041164A0B6C134203D0154B55
:100F80009847002008BD13F0020FF5D04FF08043C2
:100F90001B6B0360104A1368043313600F4A1188F7
:100FA0000F4A128802FB01F293420ED34FF08041A8
:100FB000074A0B6C134203D0064B9847002008BD2C
:100FC00013F0006FF5D0012008BD012008BD00BF5F
:100FD000000060C0790C4000140940200E09402038
:100FE00010094020F0B589B004460D4620220021AA
:100FF0006846214B9847214801230362204B1B88F8
:1010000005FB03F51F4B0393AB0800931E4B0193A5
:1010100002946A4600211D4B98471D4BD3F88070FF
:10102000C7F34E3607F0070E0EF1040EC7F3C907DB
:10103000B7FA87F000F01F00BFF34F8F1C463B4606
:1010400006FA0EF103FA00F20A43C4F87422013BD7
:10105000B3F1FF3FF6D1013EB6F1FF3FEFD1BFF351
:101060004F8FBFF36F8F0120044BD861094B1A6873
:1010700015441D6009B0F0BD5D514000008007407F
:101080000E0940200130040000020040F910400029
:1010900000ED00E01409402070B5114B1A88114B87
:1010A0001B8803FB02F2104B1C684FF080400F4975
:1010B0000F4E036C0B4206D00E4B984701220C4B8F
:1010C0001A62002070BDA24203D9F56D15F0010F20
:1010D00004D113F0006FECD0012070BD012070BD71
:1010E0000E0940201009402014094020000060C073
:1010F00000800740790C400000EB8111CB6D5368F4
:101100000B6693684B66136823F07F430B67136984
:10111000C3F30B034B675369CB67936923F07F439A
:10112000C1F88030D36923F07F43C1F88430D3689D
:101130008B677047102808D1B1F1805F05D108B5E1
:10114000024B1B6803B1984708BD7047180940203F
:1011500040B170B50446044E044D3046A847013CEA
:10116000FBD170BD704700BF351603000100402061
:101170002DE9F041094F4FF40038C7F83480084D8D
:1011800008266E636420074CA047C7F830806420AF
:10119000A0472E636420A047BDE8F08100120E40F6
:1011A00000100E405111400010B50022144B1A607F
:1011B0000A20144CA0470B20A0470C20A047102069
:1011C000A0471120A047104B08221A61C3F8A020A5
:1011D0001A630E4A4FF400311161C2F8A010116376
:1011E00004221A61C3F8A0201A63094B1B6813F08C
:1011F000010F01D0064B1B68064B9847002010BD1D
:1012000018094020D545400000100E4000120E4045
:1012100010E000E07111400030B583B0144B18604D
:101220001020144B98474FF020517C20124B9847C8
:10123000124C01224FF080512046114B9847114B20
:10124000009351234FF08052102120460E4DA847A5
:101250004FF0805120460D4B98474FF480320C4B95
:101260001A600022102120460A4B984703B030BD77
:1012700018094020D5454000D541400000140E40DB
:10128000914040003511400059434000C5414000A5
:1012900000E100E02944400008B528B14FF080513A
:1012A0000448054B984708BD4FF080510148034B57
:1012B000984708BD00140E40C5414000C941400098
:1012C000F8B5394C4FF480112166C4F8901061656F
:1012D0006162C4F88010236F0B432367636F23F4AC
:1012E000801363674FF400122266C4F89020626591
:1012F0006262C4F88020236F13432367636F23F473
:10130000001363674FF480032366C4F8903063656D
:101310006362C4F88030206F18432067606F20F448
:10132000800060676160626063604FF000766660B5
:101330002660266126631D4D28461D4B98470223D3
:101340002B6080232B606B6843F001036B606B683C
:1013500043F010036B6001212846164B984700228A
:1013600001212846144B9847012211462846134B69
:101370009847002201212846114B984711491248ED
:10138000124B9847C2B201212846114B98470023BF
:101390001A46012128460F4FB84701232B602663C8
:1013A0000D4B98470020F8BD00140E40008000400F
:1013B0002946400055464000D9464000F9464000C5
:1013C0001947400000A3E111006CDC022D474000EA
:1013D0004547400071474000711140002DE9F04F32
:1013E00083B0032841D10E684D680C8900238DF825
:1013F0000430ADF8063036B1002D33D14FF001087E
:10140000994601AD04E04FF000084FF0010901AE2C
:101410004FF000721C4B5A63F4B11C4FDFF884B0DC
:10142000DFF884A000231A4631783846D8470DF1FA
:1014300005020DF106013846D047BDF806302B7085
:10144000013CA4B2B8F1000F00D10135B9F1000F91
:1014500000D10136002CE5D14FF000720A4B1A631F
:1014600000200EE06FF005000BE040F21F1208496B
:101470000848094CA0470948A0470948A0474FF031
:10148000FF3003B0BDE8F08F00140E400080004034
:10149000E8B84000F8B84000355140000CB94000B1
:1014A00054CA4000A14640006D46400002220E4B47
:1014B0001A6003F5592303F580634FF400125A6153
:1014C000C3F8A0204FF480125A61C3F8A0204FF453
:1014D00080025A61C3F8A0204FF000725A61C3F82D
:1014E000A0200020704700BF008000403AB10139C1
:1014F000821811F8013F00F8013B9042F9D1704782
:1015000022B1821800F8011B9042FBD1704700BF46
:10151000034602783AB10020013080B213F8012F5F
:10152000002AF9D170470020704700BF024A1378A3
:101530000133DBB21370704724094020704700BFAD
:1015400000B583B001200B4B984701A941F2700010
:10155000094B9847034640B9019941F002010191B6
:1015600041F27000054B98470346184603B05DF8FA
:1015700004FB00BF991240000928400015284000D4
:1015800008B5114B1B7813F0FF0F15D10F4B1B78CB
:10159000DBB2032B04D00D4B1B78DBB2042B0BD139
:1015A0000B4B9847034668B945F2786141F27400E5
:1015B000084B9847034628B9034A13780133DBB236
:1015C00013700023184608BD400940203009402010
:1015D000792340001528400000B583B01D4B1B78CF
:1015E00013F0FF0F04D01B4A1378013BDBB21370DA
:1015F000184B1B7813F0FF0F25D1174B1B78DBB26C
:10160000032B04D0144B1B78DBB2042B1DD1002319
:10161000019344F2213141F27400104B9847034684
:10162000A0B901A901200E4B9847034670B9019952
:1016300011F0020F0AD021F0020101910120074BA5
:101640009847034602E0002300E00023184603B059
:101650005DF804FB40094020300940201528400077
:10166000092840002DE9F04F87B080460F4692468A
:101670009946109CBDF84460BDF8485001F07F03C6
:101680008DF815308DF814000823ADF8163044B1EC
:10169000BDF8163016FA83F32B449BB2ADF8163022
:1016A00006E0BDF8163019FA83F39BB2ADF8163098
:1016B000574B98478346002840F0958000230393BA
:1016C000ADF806300293029B48EA03030293029BA3
:1016D00043EA07270297BDF81620029B43EA02431C
:1016E0000293029941F28C004A4B984783460028A6
:1016F00040F08A8000230293029B43F0020302938E
:10170000029941F27800434B9847834600287BD1E9
:1017100000230393ADF80630BDF806309BB2B3F555
:101720007A7F1ED241F278083B4F02A94046B84763
:10173000B8B9029B13F0020F07D103A93748364B03
:10174000984770B1002303930BE0BDF806300133D6
:101750009BB2ADF80630BDF806309BB2B3F57A7F88
:10176000E3D3039B002B4DD0039B0493BDF81630AD
:101770009BB2ADF816300498082205A9284B98476B
:101780008346002840D1049B08330493BAF1000F2C
:101790000AD004984A465146214B98478346002870
:1017A00032D1049B4B44049374B1049BC9EB0505EF
:1017B0001D440495049832462146194B98478346A8
:1017C00010BB049B1E440496039B9B000293029B48
:1017D00043F002030293029941F26C000D4B9847CB
:1017E000834688B90AE040F29F120E490E480F4C1A
:1017F000A0470F48A0470F48A04705E00E4B984769
:10180000834601E06FF0020B584607B0BDE8F08F49
:1018100081154000152840000928400000041500EB
:10182000812840007CBB4000F8B8400035514000A2
:1018300038B9400054CA4000D91540002DE9F043A2
:1018400087B0DFF8FC92A34FDFF8F882A24E7BE16D
:1018500099F80030013BDBB289F80030B847044604
:10186000002840F01A8103A941F270009B4B984771
:101870000446002840F00681039B13F0010F00F09E
:10188000F580974B9847039921F00101039141F2AC
:101890007000944B98470446002840F00E810022C7
:1018A000914B1A70039DC5F38B05002D00F0D1807C
:1018B00006A941F8042D41F28400884B984704465C
:1018C00068B14FF4E77241463046884DA8478848D2
:1018D000A8478848A8470120814B9847EBE004229D
:1018E00004A90598844B9847BDF812309BB2ADF817
:1018F0001230044668B14FF4EB72414630467B4DDE
:10190000A8477E48A8477B48A8470120744B9847C2
:10191000D1E0BDF812309BB29D421ED0BDF812300E
:101920009BB2EB1A042B18DD40F2DF124146304621
:101930006E4CA047BDF812209DF810309DF8111094
:10194000009192B229466E48A0476A48A0470120FC
:10195000634B98476FF00504ADE09DF81030DBB2A3
:10196000012B0DD1674B1B68002B60D09DF8110037
:10197000BDF812100839059A083289B2984756E026
:101980009DF81030DBB2022B0DD15F4B1B68002B92
:101990004DD09DF81100BDF812100839059A083293
:1019A00089B2984743E09DF81030DBB2042B0DD18B
:1019B000564B1B68002B3AD09DF81100BDF8121051
:1019C0000839059A083289B2984730E09DF81030FE
:1019D000DBB2062B0CD14E4B1B6843B39DF81100B4
:1019E000BDF812100839059A083289B298471EE0EE
:1019F0009DF81030DBB2072B0CD1464B1B68B3B1FE
:101A00009DF81100BDF812100839059A083289B204
:101A100098470CE040F2022241463046334CA04742
:101A20003D48A0473348A0476FF0050443E02E4BE4
:101A30001B7813F0FF0F3BD140F20922414630469C
:101A40002A4CA0473548A0472A48A047344B98471E
:101A50002EE040F2112241463046244CA047314846
:101A6000A0472448A0476FF0010426E04FF4067217
:101A7000414630461D4CA04703992B48A0471D48BE
:101A8000A04715E040F21E2241463046174DA847B8
:101A90002648A8471748A8470FE04FF40972414667
:101AA0003046124DA8472248A8471248A84704E0EC
:101AB000204B98470446002C46D040F243221E4952
:101AC00030460A4DA84721461C48A8470948A84760
:101AD000C4E600BF81154000F8B840000928400066
:101AE0009912400015284000380940203551400027
:101AF00058B9400054CA40002128400080B9400035
:101B000098B9400020094020340940203C09402079
:101B10001C0940202C094020D8B94000F0B94000F1
:101B20004115400014BA400028BA400044BA4000B1
:101B300068BA4000D915400088BB400088BA400010
:101B40002409402024B9400099F8003013F0FF0F19
:101B50007FF47EAE002007B0BDE8F0832DE9F043AE
:101B600083B01C46002A18BF002903D005460F4643
:101B70001646A0B934B10122314B1A70314B984747
:101B8000034658E040F269222F493048304CA047C4
:101B90003048A0473048A0476FF00B034BE0694640
:101BA00041F270002D4B98470346002843D1DDF8E1
:101BB000008001A941F28400284B98470346002881
:101BC00039D1C8F38B0846450ED940F27A221E4916
:101BD0001E481F4CA047424631462148A0471E4898
:101BE000A0476FF00B0326E0019B9D4204D305EB59
:101BF0000609434499450CD94FF420721249134801
:101C0000134CA0471748A0471348A0476FF00B0399
:101C100011E0324639462846134B9847034650B9DF
:101C2000019A42444A4500D02CB10122044B1A705B
:101C3000044B98470346184603B0BDE8F08300BF45
:101C400038094020411540002CB94000F8B8400048
:101C500035514000B8BA400054CA4000092840003D
:101C6000D8BA40001CBB40002128400038B5431EB4
:101C7000062B1DD8DFE803F00804100C1C14180014
:101C8000134B1960002038BD124B1960002038BD7D
:101C9000114B1960002038BD104B1960002038BD71
:101CA0000F4B1960002038BD0E4B1960002038BD65
:101CB000044640F2B9220C490C480D4DA847214674
:101CC0000C48A8470C48A8476FF00B0038BD00BF70
:101CD00034094020200940203C09402028094020A8
:101CE0001C0940202C0940206CBB4000F8B8400083
:101CF0003551400060BB400054CA400010B500247C
:101D0000094B1C60094B1C60094B1C70094B1C7073
:101D1000094B1C7009480A4B98470A4903200A4B93
:101D20009847204610BD00BF2009402034094020BC
:101D30004009402030094020240940202D15400052
:101D4000191240003D1540006D1C400030B59FB099
:101D500015462C2811D10023042203A92846904CB3
:101D6000A047002840F019818E4B1B68002B00F023
:101D7000148103A92C2098470FE104461B2811D198
:101D80000023082203A92846854CA047002840F0DC
:101D90000481844B1B68002B00F0FF8003A91B20EB
:101DA0009847FAE0062811D10123302203A92846DA
:101DB0007B4CA047002840F0F0807A4B1B68002B3A
:101DC00000F0EB8003A906209847E6E00E2800F01B
:101DD000E480322811D10023102203A92846704C38
:101DE000A047002840F0D9806E4B1B68002B00F004
:101DF000D48003A932209847CFE02F2816D164223F
:101E0000002103A8684B98470023642203A92846B1
:101E1000634CA047002840F0C080624B1B68002B39
:101E200000F0BB8003A92F209847B6E0342820D1CA
:101E30000023042203A92846594CA047002840F05B
:101E4000AC805A485A4CA04703990B0E0093C1F33B
:101E50000743C1F30722C9B25648A0475648A047D6
:101E6000504B1B68002B00F09880002134209847CD
:101E700093E0112816D10023504A1370042203A9BD
:101E80002846474CA047002840F087809DF80C204A
:101E90004B4B1A70434B1B68002B7ED003A91120BB
:101EA00098477AE013280FD100232C2203A9284653
:101EB0003B4CA047002870D13A4B1B68002B6CD0DC
:101EC00003A91320984768E004280FD100230422B7
:101ED0001CA92846324CA04700285ED1314B1B6814
:101EE000002B5AD01CA90420984756E065280FD132
:101EF000002304221CA92846294CA04700284CD1C5
:101F0000284B1B68002B48D01CA96520984744E04B
:101F100009280FD10123642203A92846204CA04799
:101F200000283AD11F4B1B68002B36D003A909208B
:101F3000984732E02A280DD10123042203A928461C
:101F4000174CA04748BB174B1B6833B303A92A2083
:101F5000984722E0202815D10023082203A928460B
:101F60000F4CA047C8B90123BDF81020039905F113
:101F70000800A04788B90B4B1B6873B103A9202048
:101F800098470AE04FF495720E490F48084DA8474C
:101F900021460E48A8470848A8471FB030BD00BFDB
:101FA0005D1B40004409402001154000B8BB4000C3
:101FB00035514000C4BB400054CA4000480940208D
:101FC00049094020ACBB4000F8B84000E4BB4000E9
:101FD000F0B58BB001238DF8073000284ED0026891
:101FE000294B1A600022294B1A700DF10700284B6B
:101FF00098470446002843D1264B984704460028BA
:1020000038D125490120254B984702A8244B9847F1
:102010000446244F3846244DA8479DF80E309DF8BD
:102020000D209DF80C102148A847214E3046A847A6
:102030003846A8479DF811309DF810209DF80F10E4
:102040001C48A8473046A8473846A8470023032223
:1020500013211948A8473046A84714F10D0F0FD196
:1020600040F2D51215491648A8471648A8473046E9
:10207000A84705E00020144B984701E06FF00B04DF
:1020800020460BB0F0BD00BF440940204809402065
:102090008D294000FD1C40004D1D40006D1C40007E
:1020A000E1284000B8BB4000355140009CBC4000D6
:1020B00054CA4000B8BC4000D4BC4000E0BE400060
:1020C000F8B84000F0BC4000552A400008B5014B6C
:1020D000984708BD3D1840002DE9F041A0B080466A
:1020E0000D4614461E46BDF89870012A45D063B9C6
:1020F00040F203227A497B487B4CA0477B48A047AB
:102100007B48A0476FF00B00E7E0022A35D1184664
:10211000784B9847402830D13378A3F13002D2B2BF
:10212000362A1BD8A3F13A02D2B2062A16D9473B67
:10213000DBB2192B12D9314606F13F0011F8013FED
:10214000A3F13A02D2B2062A08D9A3F13002D2B2E0
:10215000362A03D8473BDBB2192B0CD840F20F22AA
:102160005F496048604CA0476348A0476048A0476B
:102170006FF00B00B1E08842E0D16B1EDBB21F2B89
:102180000CD940F2192256495648574CA0475B4893
:10219000A0475748A0476FF00B009EE0FF2F0ED0DE
:1021A0000D2F0CD940F222224D494E484E4CA047EB
:1021B0005348A0474E48A0476FF00B008DE02A46D9
:1021C00041460DF15A004F4B984720AB1D44002368
:1021D00005F8263CADF858709DF89C30003318BFC8
:1021E00001238DF87B308DF85540032C38D133789E
:1021F000013BDBB28DF81430032B0ED940F23922AB
:1022000037493848384CA0479DF814103E48A0473D
:102210003748A0476FF00B005FE07278531E8DF8CF
:10222000153002F0EF030B2B0ED04FF410722C4937
:102230002C482D4CA0479DF815103448A0472C4839
:10224000A0476FF00B0048E0B11C0DF116002D4BBC
:102250009847737820AA1344002203F86A2C32E0CE
:10226000022C19D13046234B9847431E9BB23F2B7B
:102270000CD940F24F221A491A481B4CA047244857
:10228000A0471B48A0476FF00B0026E0421C3146D8
:1022900005A81C4B984716E0042C05D13E22314678
:1022A00005A8184B98470EE0012C0CD040F25F2295
:1022B0000B490C480C4CA0471648A0470C48A047B7
:1022C0006FF00B0009E000230293019300936C234D
:1022D00005AA28210120104CA04720B0BDE8F081BC
:1022E00098BB4000F8B84000355140000CBD40009C
:1022F00054CA40001115400020BD400030BD4000D0
:1023000044BD4000ED14400050BD40006CBD400095
:1023100088BD4000A4BD40006516400010B582B0E5
:1023200000240194BDF810400094024CA04702B074
:1023300010BD00BFD920400000207047F0B583B029
:1023400004464FF4A5550A4E0A4F21462846B04789
:1023500054B102A9002341F8043D2846B84700289B
:10236000F3D1019B9C42F0D1002003B0F0BD00BF2F
:1023700015284000092840002DE9F04F83B00120C6
:102380003D4B984701A901203C4B9847824648B1F4
:1023900072223B493B483C4CA0473C48A0473C4844
:1023A000A04764E000244FF00108DFF8F890324DB8
:1023B000384F019941F002014046C8474046A847BE
:1023C0006946354B18682D4B984718B9009B0BB1DF
:1023D000314E37E0304E0E2333604046A847694601
:1023E0003068264B984710B9009B002BF0D12A4E3D
:1023F000132333604046A847694630681F4B98470F
:1024000006460028E4D096221D491E481E4CA047CF
:102410002248A0471E48A047B24628E00220A8470D
:1024200069463068154B9847009B13F0040F09D19B
:10243000AA2213491348DFF850B0D8471848D847A4
:102440001348D847009B13F0040F10D10134A7FBA9
:1024500004235B0803EB43039C42DFD0019941F066
:1024600002014046C847009B13F0040FA1D050461C
:1024700003B0BDE8F08F00BF5111400009284000B3
:10248000FCBE4000F8B84000355140000CBF400091
:1024900054CA4000ABAAAAAA340040202CBF400076
:1024A0004CBF40001528400000B583B001A941F29F
:1024B0000840154B9847E0B9019941F480710191AA
:1024C00041F20840114B9847B0B901A94FF4D050E0
:1024D0000D4B984798B9019941F4803101914FF41F
:1024E000D0500A4B9847002814BF6FF00500002019
:1024F00007E06FF0050004E06FF0050001E06FF009
:10250000050003B05DF804FB0928400015284000D1
:1025100010B582B0244B1C68002C40D119464FF4F2
:102520008050224B984718B100221F4B1A6038E0A8
:1025300001A941F2F4301D4B984718B100221A4B03
:102540001A602EE0184B1B68194A934206D1019B72
:10255000012B1DD00132144B1A6019E0154A934229
:1025600009D1019B032B13D0042B0CBF0132124A5B
:102570000D4B1A600CE0114A934209D10A494FF4FD
:102580006C100A4B984718B10022074B1A6008E0FC
:10259000054A136823F4702343F4A0231360024B0D
:1025A0001C68204602B010BD4C094020092840009C
:1025B000A0021000B0021000B2021000F0001000E3
:1025C0002DE9F041074641F21405284C284E2846D3
:1025D000A047002802DB0120B047F8E72548234B3D
:1025E000984710F0010F10D1DFF884801F4E224D64
:1025F0000120C0474FF00C10B04704462A46014660
:102600001E481F4B9847AC42F2D1022F0AD11D49F8
:102610001D481E4CA0474FF4801141F28C00A0478A
:1026200000240FE0032F09D116491748174CA04783
:10263000002141F28C00A047002403E0042F14BFC6
:1026400000248024124B9847C0F30B00B0F5687F3C
:102650000CBF44F0020020460E4B98470E494FF045
:102660000C100A4B98470020BDE8F081FD27400080
:1026700051114000BC0702009ED0AD1098BF400031
:10268000355140007DD51C3CAC07020015284000A8
:10269000112540003D234000612F52EFF0B583B07B
:1026A00041F28C030193184B00930238C0B2012809
:1026B00010D8164B0193A3F12253A3F51113A3F2E3
:1026C000E953009306E03846B0470198A847013C1B
:1026D00006D113E04FF0FF34002002270C4E0D4DC1
:1026E000009B9842EFD1009A074B9A4209D10021F2
:1026F00041F28C00084B9847002003E06FF0040083
:1027000000E0002003B0F0BD36265302AC07020003
:1027100051114000FD27400015284000F0B583B05E
:1027200002A9002341F8043D4FF4A050244B9847E0
:1027300048B140F2312223492348244CA047244881
:10274000A0472448A047019921F4806101914FF4EA
:10275000A050214B9847054658B140F237221949FD
:1027600019481A4CA0471D48A0471A48A0472846B8
:1027700024E00A24124E184F01A94FF4A050B0478C
:10278000054658B140F23E220E490F480F4CA04773
:102790001348A0470F48A04728460FE0019911F4BD
:1027A000806F0AD021F4806101914FF4A050B847A6
:1027B000631E13F0FF04DFD100E0002003B0F0BD82
:1027C00009284000F0BE4000F8B8400035514000F4
:1027D000A8BF400054CA400015284000C4BF4000B4
:1027E000E0BF400008B5014B984708BDC11240004A
:1027F00008B5014B984708BDAD14400008B5014B22
:10280000984708BD4D30400008B5014B984708BDBA
:102810006530400008B5014B984708BD7D30400049
:102820002DE9F047074689461546134BB3F800805B
:10283000A8F108081FFA88F8424508D80026AAB26D
:1028400009EB060138460D4B9847034610E0444615
:102850000026DFF828A0424609EB06013846D0479B
:10286000034628B92D1B26442744A542F3D8E6E7A2
:102870001846BDE8F08700BF30004020A13140007D
:102880002DE9F047074689461546134BB3F80080FB
:10289000A8F108081FFA88F8424508D80026AAB20D
:1028A00009EB060138460D4B9847034610E04446B5
:1028B0000026DFF828A0424609EB06013846D0473B
:1028C000034628B92D1B26442744A542F3D8E6E742
:1028D0001846BDE8F08700BF300040206D32400050
:1028E00030B583B0044602A9002341F8043D2348D3
:1028F000234B98470546019A224B9A4205D101A9DC
:1029000041F248001E4B98470546019B1A0C1112D4
:10291000E171C2F30311217202F00F0262721A1206
:102920002271C3F30312627103F00F03A371164BFC
:10293000984720602279A37903F00F0343EA02222B
:1029400063791B01DBB21343E179627A02F00F0273
:1029500042EA0121227A1201D2B20A4341F2303115
:102960008A4288BF6FF00C0541F22F3293428CBF30
:1029700028466FF00C0003B030BD00BFAC0702006A
:1029800009284000C3C15DD71125400038B530B1DA
:102990000478631EDBB2042B28BF012400E001246D
:1029A00000201D4B9847054650B14FF492721B49C9
:1029B0001B481C4CA0471C48A0471C48A04729E0C6
:1029C0001B48184DA8471B4B984701461A48A84773
:1029D0001648A847194B98472046194B9847054673
:1029E000B0B92046174B9847054688B9023CE4B277
:1029F000012C0FD9144B9847054658B14FF4AE72CD
:102A000006490748074CA0471048A0470748A04779
:102A10000F4B9847284638BDE5274000E8C04000E6
:102A2000F8B84000355140003CC0400054CA400056
:102A3000B8BB40001125400058C040009530400010
:102A4000C12540009D264000A924400068C04000E8
:102A5000F127400038B5194B984758B104464FF458
:102A6000BA7217491748184DA8471848A847184878
:102A7000A84720E00020174B9847044650B140F289
:102A80007B120F490F48104DA8471348A84710481C
:102A9000A84710E0114B9847044650B140F281120C
:102AA00007490848084DA8470D48A8470848A847BF
:102AB00001E00C4B9847204638BD00BF1D27400061
:102AC000F4C04000F8B840003551400088C04000D4
:102AD00054CA4000FD3A4000A8C04000F127400021
:102AE000CCC040004130400000B585B000230193C8
:102AF0000290ADF80C1001A90320024B984705B0D5
:102B00005DF804FBDD134000F0B583B0054600F12D
:102B10003B03DBB2012B01D9CF2806D101210DF1F6
:102B20000700224B984700283AD10B2401271F4E5B
:102B300039460DF10700B04758B140F227121C4941
:102B40001C481D4CA0471D48A0471D48A047002019
:102B500029E09DF80730AB4205D0631E13F0FF0457
:102B6000E6D10B2400E00B240126104D31460DF177
:102B70000700A84758B140F235120D490D480E4CD8
:102B8000A0470E48A0470E48A04700200BE09DF844
:102B900007303BB1631E13F0FF04E7D1012002E0D0
:102BA000002000E0012003B0F0BD00BFE92A400092
:102BB00018C74000F8B84000355140003CC2400002
:102BC00054CA40002DE9F04F83B0824689469346AF
:102BD0004FF00008354DB9F5005F94BF0FFA89F743
:102BE0004FF400570A24012631460DF10300A8478F
:102BF00058B140F257122E492E482F4CA0472F486B
:102C0000A0472F48A04700204DE09DF803301B0946
:102C10000F2B05D0013C24B2B4F1FF3FE4D101E019
:102C2000002C0DDC40F2631221492248224CA047BF
:102C30009DF803102348A0472148A047002032E018
:102C4000BFB239460AEB0800A84758B14FF4B67234
:102C500017491848184CA0471B48A0471848A047D8
:102C6000002020E0BBF1000F12D1184B1B787BB97C
:102C7000022101A8A84758B140F277120C490D482B
:102C80000D4CA0471248A0470D48A04700200AE07D
:102C9000B8440FFA88F8C7EB09071FFA87F9B9F1AA
:102CA000000F98D1012003B0BDE8F08FE92A400061
:102CB00004C14000F8B840003551400070C24000E7
:102CC00054CA4000A4C24000D4C240005009402071
:102CD00008C3400000B585B0019000230293ADF811
:102CE0000C1001A90320024B984705B05DF804FBC6
:102CF000DD13400070B584B09DF820408DF80400CD
:102D0000C1380E2800F2AE80DFE800F03E3E5F12D0
:102D1000232C4D4D7808ACACACAC35000B0C8DF8C9
:102D200005300B0A8DF806308DF807100521A4E058
:102D3000C1F3072314B98DF8053003E063F07F0376
:102D40008DF805308DF8061000238DF80730052129
:102D500093E000238DF805308DF806308DF80730AC
:102D600005218AE000238DF805308DF806308DF8B6
:102D70000730052181E0FF238DF805308DF80630FE
:102D80008DF80730052178E00A0C8DF805200A0A35
:102D90008DF806208DF807101A0A8DF808208DF896
:102DA0000930072169E00A0C8DF805200A0A8DF820
:102DB00006208DF807101A0C8DF808201A0A8DF8D5
:102DC00009208DF80A30082157E0C1F3072314B910
:102DD0008DF8053003E063F07F038DF805308DF842
:102DE0000610130E8DF80730130C8DF80830130AF7
:102DF0008DF809308DF80A2008213EE00B0C8DF883
:102E000005300B0A8DF806308DF80710130E8DF87B
:102E10000830130C8DF80930130A8DF80A308DF83C
:102E20000B20092129E012F8013B83EA4003E05C12
:102E30009542F8D104AB1E44430006F80C3C01E077
:102E40000139C9B201A8104B984768B14FF4847298
:102E50000E490F480F4CA0470F48A0470F48A04706
:102E600000200FE000200DE001200BE04E1E01AB22
:102E70009D197F201A460A4CD5E70A4B1B78002B78
:102E8000DED1F3E704B070BDD52C400000C7400090
:102E9000F8B840003551400040C3400054CA4000DB
:102EA00014C140005009402070B582B0044631285A
:102EB00035BF01230023C325C925009304230A46F7
:102EC00001462846164EB04701280CD040F2EB12BE
:102ED00014491548154DA84721461548A8471548D7
:102EE000A84700201AE02846134B9847012814D021
:102EF00040F2F1120B490C480C4DA84721460F48EF
:102F0000A8470C48A847002400942346224621469F
:102F1000CF20034DA847204600E0012002B070BD3D
:102F2000F52C4000F0C64000F8B840003551400094
:102F30006CC3400054CA4000092B400098C34000B5
:102F40002DE9F04184B004468846B0F5807F35BF56
:102F500001260026C425CA25009604230022014626
:102F600028462D4FB84701280CD040F245222B4966
:102F70002B482C4DA84721462B48A8472B48A8474B
:102F8000002045E028462A4B9847012814D040F2FB
:102F90004B2222492248234DA84721462548A847CD
:102FA0002248A84700240094234622462146CF20E9
:102FB000194DA84720462BE03246042103A81E4B9A
:102FC0009847012813D040F2532214491448154C55
:102FD000A0471A48A0471548A0470024009423465C
:102FE00022462146CF200C4DA847204610E09DF8F0
:102FF0000D109DF80E20130443EA01229DF80C30B9
:1030000013439DF80F2043EA0263C8F80030012003
:1030100004B0BDE8F08100BFF52C400024C740009B
:10302000F8B8400035514000D0C3400054CA4000B9
:10303000092B4000FCC34000C52B400030C44000B9
:103040000020014B187070475009402000B583B034
:1030500001A9034B9847019803B05DF804FB00BF3A
:10306000412F400008B5044B984701280CBF0020B1
:103070006FF0050008BD00BF412F400008B5044BAC
:10308000984701280CBF00206FF0050008BD00BF65
:10309000A92E400030B583B0002302A941F8083DB5
:1030A000324A13704EF62400314B9847F0B9012292
:1030B0002E4B1A7040F2C5222E492F482F4CA047A4
:1030C0002F48A0472F48A04769464EF62400284BBA
:1030D0009847044650B94FF4327226492648274D86
:1030E000A8472948A8472748A8473CE01F4B1B781A
:1030F000CBB9009921F07C0141F0500100914EF6CE
:103100002400224B9847044650B940F2D222194974
:1031100019481A4DA8471E48A8471A48A84722E050
:103120000122124B1A7001A94FF48050104B98479E
:1031300060B94FF437720F490F48104CA04715483B
:10314000A0471048A0476FF005040CE04EF624009D
:10315000114B984720F0700141F050014EF62400C9
:103160000E4B98470024204603B030BD5009402044
:10317000412F400014C24000F8B8400035514000D3
:1031800050C4400054CA4000A0C44000A92E4000D2
:10319000D0C4400004C540004D3040007D304000A8
:1031A000F0B583B004460F461546002200922B4628
:1031B0000146C820234EB04701280BD04FF41D72A2
:1031C00021492248224DA84721462248A8472248A3
:1031D000A84732E0C820214B9847012812D040F27E
:1031E0007A22194919481A4DA84721461C48A84770
:1031F0001948A847002100910B460A46CF20114CE0
:10320000A0471AE0002229463846164B9847012865
:1032100011D04FF421720C490C480D4CA0471248B4
:10322000A0470D48A047002100910B460A46CF2039
:10323000044CA04701E0002001E06FF0050003B05E
:10324000F0BD00BFF52C400030C24000F8B840008F
:10325000355140002CC5400054CA4000092B4000A5
:103260005CC54000C52B400094C540002DE9F043EB
:1032700085B0044688461546002200922B4601463A
:10328000C7204C4EB04701280BD040F20F224A49CC
:103290004A484B4DA84721464A48A8474A48A847AC
:1032A00082E0C720494B9847012812D040F21522EE
:1032B00041494248424DA84721464548A84742480F
:1032C000A847002100910B460A46CF20394CA04761
:1032D0006AE00024ADF80C403E4FDFF810912E4616
:1032E000B5F5005F28BF4FF400562CB9B5F5005F67
:1032F00094BF0323012304E0B5F5005F94BF0323CB
:10330000022363F00F038DF80B3001210DF10B0048
:10331000B84750B14FF4D4722F492848284CA047E1
:103320002E48A0472848A04728E0314608EB040073
:10333000B84750B140F2B11227492048204CA0476D
:103340002748A0472048A04718E099F8003073B9F3
:10335000022103A8B84750B140F2BB121E491748DA
:10336000174CA0471F48A0471748A04706E0344421
:1033700024B2AD1BADB2002DB1D113E040F2262234
:103380000D490E480E4CA0471748A0470E48A047CD
:1033900000240094234622462146CF20054DA8470D
:1033A000204603E0002001E06FF0050005B0BDE815
:1033B000F08300BFF52C400008C74000F8B840007B
:1033C00035514000BCC5400054CA4000092B4000A4
:1033D000ECC54000D52C400020C2400024C640006F
:1033E0005CC6400090C64000C8C64000500940205E
:1033F0002DE9F84FBDF82840002C47D081460E46F5
:103400009246984603012249CB58002B3ED001EB4F
:1034100000139B889BB2002B38D001EB00139B7AE2
:10342000DBB2012B32D1F48001EB0017DFF878B06A
:10343000BB88E31A1BB2002B03DDBD88ADB20023AD
:1034400001E02546012339682A464046D847A8B9F5
:103450003B683360B580F3885B1BF3800D4B1B68C2
:103460002BB10C4B1B683246514648469847641BAB
:10347000A4B2A844002CDBD1BDE8F88F0648074D64
:10348000A84721460648A8470648A847BDE8F88F40
:103490007815402028164020B8BB40003551400028
:1034A00034C7400054CA40005D1B4000F0B599B0DD
:1034B0001446412819D10023042207A92046A44C10
:1034C000A047002840F041819DF81D308DF80C3058
:1034D000A04B1B68002B00F038819E4B1B6803AA91
:1034E00001219DF91C0098472FE10D46422819D172
:1034F0000023042207A92046954CA047002840F04D
:1035000024819DF81D308DF80C30924B1B68002BE8
:1035100000F01B818F4B1B6803AA02219DF91C0040
:10352000984712E143283FD100230C220DEB020102
:103530002046874CA047002840F007819DF91530B0
:10354000002B19DB844A02EB03120021D172012106
:10355000917282490A88013292B20A800A8892B234
:103560001AB90A88013292B20A807C4A118889B25B
:10357000794A02EB0312D1808DF81C300223ADF89A
:103580002030BDF80E30ADF82230049B0993714B0A
:103590001B68002B00F0D9806E4B1B6807AA042122
:1035A0009DF914009847D0E0442801D04B2824D13D
:1035B0000023042207A92046654CA047002840F0BC
:1035C000C4809DF91C008DF80C009DF91D308DF80C
:1035D0000D303BB9BDF81E30083B9BB25E4A02EB92
:1035E000001213815B4B1B68002B00F0AE80594B1F
:1035F0001B6803AA05219847A7E04A2813D1002396
:10360000442207A92046524CA047002840F09D8044
:10361000534B1B68002B00F09880514B1B68179987
:1036200007A8984791E0A0F14603DBB2072B4DD8DD
:10363000852222FA03F313F0010F47D0482814BF64
:10364000062709270023102203A92046404EB04731
:1036500000287AD19DF91800BDF81A103E4A02EBF5
:10366000001200231373BDF914E0BDF81630BDF845
:103670000E60ADF82660049E0A96D28892B29142FE
:103680001BD1BEF1000F0ADDAE4508DA1FFA8EF23B
:10369000009223443A4607A9324CA04755E0ADF8C2
:1036A00020E0002307932B4B1B68002B4DD0294BA8
:1036B0001B6807AA3946984747E0102D45D90123D2
:1036C000002211461046224CA0473EE000F0FD03C8
:1036D000452B01D04C2823D1472814BF07250825A6
:1036E0000023082207A92046194CA04700282CD106
:1036F0009DF91C00BDF82020BDF81E30ADF80C303F
:10370000154B03EB0013DB889BB29A421DD1114B82
:103710001B68D3B10F4B1B6803AA2946984714E0D6
:10372000522812D10123142207A92046084CA04791
:1037300058B90D4B089A1A601B6833B10A4B1B68C5
:103740009DF82C2009990798984719B0F0BD00BF43
:103750005D1B40002816402078154020520940206B
:1037600030164020F13340002C16402008B50A4B9B
:103770001B7813F0FF0F0ED1B02200210748084B31
:10378000984708490220084B98470122024B1A70BB
:103790000022064B1A8008BD5109402078154020B0
:1037A00001154000AD3440006D1C4000520940201E
:1037B000024B1860024B1960704700BF281640206A
:1037C0003016402070B586B002284BD101294CD06C
:1037D00002294DD04FF0FF3458E0254600EB04138A
:1037E0009B7A13F0FF0F36D12A4800EB04101646DF
:1037F00010220021284B9847264B03EB051301228A
:103800009A72264A138801339BB2138013889BB2A5
:103810001BB9138801339BB21380204B1A8892B2D4
:103820001C4B03EB0513DA8064B216F0010F2DD0A8
:1038300006AA02F8044D174B03EB05152123EB7282
:103840000023029301930093042350210220144D7E
:10385000A8471BE00F480134E4B28C42BDD34FF0BF
:10386000FF3413E04FF0FF3410E00721002401E0A3
:103870000B2107242546074B03EB04139B7A13F017
:10388000FF0FE7D1034800EB0410B0E7204606B075
:1038900070BD00BF7815402001154000520940203E
:1038A00065164000002838DB002936D01F4B03EB9B
:1038B00000139B7ADBB2002A32D0012B30D130B515
:1038C00089B01A4B03EB0013DB7A13F0010F07D01A
:1038D000164B03EB0013DB7A8DF81D304B2500E00F
:1038E000442504468DF81C00082205A8104B984773
:1038F0000E4800EB0410C388ADF81E30002302937D
:10390000019300930C2305AA29460220094CA047E5
:10391000002818BF6FF0080005E06FF00500704741
:103920006FF00500704709B030BD00BF781540202A
:10393000ED1440006516400030B589B00C460031EA
:1039400018BF0121B2F5AF6F88BF0021002936D022
:10395000002834DB1D4B03EB00139B7ADBB2012BF9
:1039600030D18DF81000ADF81220184B03EB001386
:10397000DB88ADF81C300728B4BF50254425134B15
:1039800003EB0013DB7A13F0010F06D00F4B03EBB0
:1039900000100589ADB24C2100E04521029501924D
:1039A000009410230DEB030241F080010220084C2B
:1039B000A04700280CBF00206FF00D0004E06FF05E
:1039C000050001E06FF0050009B030BD781540201A
:1039D00065164000002918BF002A45D070B586B092
:1039E0000E461546002836DB214A02EB0012927A79
:1039F000D2B2012A32D11E4C010162186650958064
:103A0000127B12F0FF0F2CD104EB00120121117375
:103A1000D27A0A40002A0CBF46214D211BB94FF033
:103A2000FF33049300E004938DF81400104B03EB74
:103A30000010C388ADF81630002302930193009361
:103A4000082304AA02200B4CA04700280CBF00202A
:103A50006FF00D0006E06FF0050003E06FF0050069
:103A600000E0002006B070BD6FF00500704700BF99
:103A7000781540206516400030B587B000282EDB51
:103A80001B4B03EB00139B7ADBB2012B2AD10446BC
:103A90008DF81400164B03EB0013DA88ADF81620EE
:103AA00000229A72DA80DB7A03F0010393420292D9
:103AB000019200924FF0040305AA0CBF49214E2148
:103AC00002200C4DA847051E18BF6FF008051022F4
:103AD0000021074800EB0410074B984704E06FF003
:103AE000050501E06FF00505284607B030BD00BFB1
:103AF00078154020651640000115400070B582B071
:103B000005462B4B9847C0F30B00B0F5687F4AD3AE
:103B100001A941F21040274B98470446002843D1A1
:103B2000254B019A134025491943019141F2104058
:103B3000234B9847B5B100212248214DA847AB211E
:103B40002148A84701212148A84700212048A8472B
:103B500081212048A847204E204D3046A847012803
:103B6000FBD115E000211748154DA847B92116488B
:103B7000A84701211548A84700211548A8478121D9
:103B80001448A847144E154D3046A8470128FBD1CC
:103B90000949019B194041F48031019141F21040E3
:103BA000074B984700E00024204602B070BD00BFDC
:103BB0001125400009284000FF8F88F800101101EE
:103BC00015284000080201000C0201001402010047
:103BD0001C0201000402010018020100FD27400040
:103BE00010B51048104B98473E2100200F4B9847C6
:103BF0000F4CA0470028FCD00E4B98470E4A0F4BA5
:103C00009A620F4CA0470028FCD002200D4B984729
:103C100000200D4B98470D4B98470248024B9847A0
:103C200010BD00BF00A3E111C54A4000514540004E
:103C3000A5454000B5454000013F182000060E4054
:103C4000C5454000AD444000E9444000B54940004E
:103C500090B92DE9F0410C469046002A0FDD8F18EF
:103C6000084E094D306821462B6898470134A74219
:103C7000F8D14046BDE8F0814FF0FF30704700209A
:103C8000BDE8F0813C16402034164020013802285F
:103C900015D82DE9F0410E4614469AB10D46DFF8CD
:103CA00038800C4FD8F8000015F8011B3B68984786
:103CB00000280ADBA81B013CF4D1BDE8F0814FF0DD
:103CC000FF3070470020BDE8F0814FF0FF30BDE8C5
:103CD000F08100BF381640203C164020F8B54FF464
:103CE0000042B64B5A60BFF35F8FB54F3846B54DB3
:103CF000A847B54E40EA06011120B44CA047B4488D
:103D0000A847B4490143B448A0473846A84740EA09
:103D10000601B248A047B248A84706F1087606F562
:103D2000403640EA0601AF48A047AF48A84740EAFE
:103D30000601AE48A0476FF06040A847AC4E40EA8D
:103D40000601AC48A0476FF07040A847AA4F40EA70
:103D50000701AA48A0476FF07040A847A84901434F
:103D6000A848A0476FF06040A84740EA0701A6486E
:103D7000A047A648A84740EA0601A548A047A54C89
:103D8000636A43F4E02363620520A34B9847BFF3C3
:103D90004F8FBFF36F8FBFF34F8FBFF36F8F002332
:103DA000C4F85032636943F400336361BFF34F8F4B
:103DB000BFF36F8FD4F88060C6F34E3506F0070767
:103DC0000437C6F3C906B6FA86F000F01F00BFF349
:103DD0004F8F334605FA07F103FA00F20A43C4F89D
:103DE0006022013BB3F1FF3FF6D1013DB5F1FF3F4A
:103DF000EFD1BFF34F8F874B5A6942F480325A613B
:103E0000BFF34F8FBFF36F8F844A85495160A1F58F
:103E100080715160BFF34F8FBFF36F8FD3F8902243
:103E200022F00102C3F89022D3F8942222F001027A
:103E3000C3F89422BFF34F8FBFF36F8F0A20794CE2
:103E4000A0470B20A0470C20A0471020A04711201E
:103E5000A047754A4FF480731361C2F8A030136312
:103E6000724B4FF400615961C3F8A0105966C3F852
:103E7000901059651962C3F88410186F20F400601F
:103E80001867586F20F400605867C3F8C010C3F873
:103E9000D410C3F8B0104FF400111966C3F8901095
:103EA00059655962C3F88010186F20F40010186724
:103EB000586F20F40010586759605D48D0F814110D
:103EC00041F01001C0F814115A4910200866C1F8D9
:103ED000900048654862C1F880000C6F04430C678D
:103EE0004C6F04434C6748604FF080511966C3F82B
:103EF000901059655962C3F88010186F20F08050F7
:103F00001867586F0843586759604FF00071196679
:103F1000C3F8901059655962C3F88010186F0843B0
:103F20001867586F0843586759604FF08041196609
:103F3000C3F8901059655962C3F88010186F20F0CB
:103F400080401867586F0843586759604FF0004128
:103F50001966C3F8901059655962C3F88010186F3C
:103F600020F000401867586F0843586759604FF0B9
:103F700080611966C3F8901059655962C3F88010C2
:103F8000186F20F080601867586F084358675960B1
:103F90004FF000611966C3F8901059655962C3F873
:103FA0008010186F20F000601867586F084358673A
:103FB00059604FF4803353613EE000BF50180E400B
:103FC000FFFF3F00754040000100000169404000D4
:103FD000FFFF1F0001002306120040001300002015
:103FE000FFFF030014004020FFFF010015004420E4
:103FF00001000113160000400100000317000060DB
:10400000010025031800007019000080FFFF0F0059
:104010001A0010A000ED00E05D404000000C0E40D2
:104020000C08005AD545400000120E40000E0E400C
:104030000080084000100E40C2F8A0305366C2F85D
:10404000903053655362C2F88030136F23F480338D
:104050001367536F23F480335367F8BD014B5860E7
:10406000704700BF90ED00E0014BD86019617047C8
:1040700090ED00E0202808D90423202201335200CB
:10408000904203D91E2BF9D900E004235800704751
:104090000AB1416670470166704700BF4264B1F1E2
:1040A000C05F2FD007D8B1F1006F14D0B1F1805F9D
:1040B0001ED039B97047B1F1205F37D004D8B1F1C3
:1040C000005F29D042607047B1F1405F2ED0B1F15E
:1040D000605F2BD0F6E710B4046F016FD34321402B
:1040E00019400167446F416F21400B4043671AE05C
:1040F000036F13430367416F436F0B4023EA0203CF
:104100004367DFE7016F036F0B4023EA0203036796
:10411000436F13434367D5E7036F13430367436F4D
:1041200013434367CEE742605DF8044B704700BF1E
:10413000416412F0010F01D0416600E0016612F007
:104140000A0F01D0016200E0416212F0020F02D0BA
:10415000C0F8801004E012F0080F01D0C0F88410FD
:1041600041610160704700BF10B44164019C0CB113
:10417000416600E001660BB1016500E041650AB1EE
:10418000016300E04163016101605DF8044B704729
:1041900012F0100F12D0C0F8B01012F0200F02D0A1
:1041A000C0F8D41001E0C0F8D01012F0400F02D0D7
:1041B000C0F8C0107047C0F8C4107047C0F8B41001
:1041C000704700BF0164704741647047C06C70471E
:1041D000806C704770B582B00D46474C04EB5014AC
:1041E000640201F0F043B3F1005F4DD009D8B3F1A0
:1041F000805F23D0B3F1C05F33D0B3F1006F77D1CC
:1042000009E0B3F1405F5DD0B3F1605F5AD0B3F124
:10421000205F4CD06CE000F01F0001268640324643
:104220004FF000612046354B984715F0010F02D042
:10423000666601205DE0266601205AE000F01F005E
:104240000126864032464FF0805120462B4B98473E
:1042500015F0010F02D0666601204AE026660120B3
:1042600047E000F01F000126864032464FF0C05163
:104270002046224B984715F0010F02D066660120B8
:1042800037E02666012034E000F01F00012686405A
:1042900032464FF000512046184B984715F0010F59
:1042A00002D06666012024E02666012021E000F0AD
:1042B0001F0101262A4606FA01F12046104B9847B5
:1042C000304616E005F0605200F01F01012605EAB5
:1042D00006030093C5F38003B2F1605F14BF0022B0
:1042E000012206FA01F12046064CA047304600E0C4
:1042F000002002B070BD00BF070720009D404000B5
:1043000031414000694140002DE9F04104468846B2
:104310000E4B9847054620460D4B9847054013D055
:104320000C4C04F160062368434508D161682942BA
:1043300005D0E36840469847636825EA0305B44220
:1043400002D01034002DEED1BDE8F081CD41400007
:10435000D141400058094020F8B5174C2668062E78
:1043600028D84FF0000C6446144FA64625017D590D
:104370008D4204D107EB04156D68954204D00134D9
:10438000E4B2A446A642F0D20C4D4FEA0E1E05EB55
:104390000E0445F80E106260A3600699E1600136D4
:1043A000664501D104490E6011461A46044B9847F0
:1043B0000020F8BD0120F8BD5409402058094020D4
:1043C0009141400008B50A210148024B984708BDB9
:1043D000000E0E400943400008B50B210148024B76
:1043E000984708BD00100E400943400008B50C2155
:1043F0000148024B984708BD00120E400943400097
:1044000008B510210148024B984708BD00140E4022
:104410000943400008B511210148024B984708BDE7
:1044200000160E4009434000F8B506460D461446F6
:10443000174B984707464FF0FF313046154B9847CA
:104440003046154B98475FFA85FE0EF01F03012298
:1044500002FA03F36809114901EB8002C2F88030C7
:10446000C2F88031002D07DA0EF00F0E6401E4B2BD
:104470000B4A02F80E4003E06401E4B2094A5455C5
:1044800041F8203039463046074B9847F8BD00BF09
:10449000D1414000C9414000CD41400000E100E071
:1044A00014ED00E000E400E0C5414000032807D01F
:1044B000042808D002280CBF4FF48072002204E0C8
:1044C0004FF4407201E04FF4007206490B6B23F485
:1044D000407313430B630A46936E13F0080FFBD02F
:1044E000704700BF00060E40184A136B23F070039C
:1044F00018431063936E13F0080F03D009E0013BDB
:1045000003D11EE04FF4805310498A6E12F0080F59
:10451000F5D00E4A136B23F0030343F00203136339
:10452000906E10F0080004D000207047013B03D1CA
:1045300009E04FF4805305498A6E12F0080FF5D058
:104540007047012070470120704700BF00060E40F1
:1045500038B10E490B6A0E4A1A400E4B13430B62D8
:1045600070470A48036A090289B20B4A1A400B4B8A
:104570001343194301620246936E13F0010FFBD0FF
:10458000024A116A064B0B431362704700060E4045
:10459000FCFFC8FE02003701FCFFC8FF0100370026
:1045A00000003701024B986E00F48030704700BF66
:1045B00000060E404FF00052014B9A62704700BF58
:1045C00000060E40024B986E00F00200704700BFDC
:1045D00000060E403F281ED81F280CD8114B9A69A0
:1045E00001238340934318D0012303FA00F00D4BBD
:1045F00018610020704720380A4BD3F808210123A6
:10460000834093430BD0012303FA00F0054BC3F81A
:1046100000010020704701207047002070470020F3
:10462000704700BF00060E4008B5074B984203D103
:104630001520064B984708BD054B984202D12A2009
:10464000024B984708BD00BF00800040D5454000A0
:1046500000800540436823F47023436043680904E5
:1046600001F470210B434360704700BF10B443F660
:10467000992301E0013B0ED0046914F0010FF9D039
:104680008368406810F0020F02D0C3F3034010703B
:104690000B80002000E001205DF8044B704700BF54
:1046A00030B443F6992401E0013C11D0056915F0BE
:1046B000020FF9D0446814F0020F06D0120402F47D
:1046C000702211430BB141F08071C160002000E005
:1046D000012030BC704700BF32B100EB8100036B9A
:1046E00043F001030363704700EB8100036B23F089
:1046F00001030363704700BF32B100EB8100036B1D
:1047000043F002030363704700EB8100036B23F067
:1047100002030363704700BF00EB81010B6B23F0C2
:10472000F0030B630B6B1A430A637047431E194473
:10473000B1FBF0F0431EFE2B94BF00B24FF0FF30F0
:10474000704700BF6AB110B4144600EB81010B6BD7
:1047500023F47F430B630A6B42EA04220A630020BE
:1047600002E04FF0FF3070475DF8044B704700BF28
:1047700010B400EB8101086B80B208630C6B44EA53
:10478000036343EA02420A635DF8044B704700BFCB
:10479000436913F0020F02D0C1610020704701206D
:1047A000704700BF436913F0010F03D083690B709A
:1047B000002070470120704710B40C0194420FD9BB
:1047C0001AE0416841F400214160120402F4E02241
:1047D0001A43026200201CE001201AE0012018E0C8
:1047E000630803EBC202B2FBF4F2D3085C1E4FF67F
:1047F000FE718C42E9D9EFE7C9004B0803EBC20216
:10480000B2FBF1F2D3085C1E4FF6FE718C42E5D884
:10481000D7E75DF8044B7047084BC0F8E43000233D
:1048200043604362836288230360242303604FF460
:10483000807303604FF400230360704700415355B9
:1048400070B505460C4616460F4B984700220F4B95
:104850001A609CB13246216828460D4B98470246A3
:1048600070B96168A368194323691943E3680B436E
:1048700006490B6069680B436B6002E0012200E0AF
:104880000122104670BD00BF19484000C8094020F1
:10489000B947400040230360704700BF1023036006
:1048A000704700BF436913F0020F04D0C1F3080141
:1048B000C161002070470120704700BF436913F0B9
:1048C000010F05D08369C3F308030B600020704714
:1048D00001207047FEE700BF00B583B0274B284A90
:1048E0009A4203D0274B254A9A4204D3264B274AA3
:1048F0009A420FD31AE02149254B5B1A23F0030398
:1049000004331F4A134452F8040B41F8040B9A4233
:10491000F9D1EBE71F4B204AD21A22F003021A44C6
:10492000043B002143F8041B9342FBD11B4A1C4B60
:1049300023F07F039360EFF31083B3FA83F35B09F3
:10494000019372B6BFF35F8F0022164B1A70019964
:10495000154A136843F470031360BFF34F8FBFF31E
:104960006F8F29B101220F4B1A70BFF35F8F62B6B0
:104970000E4B98470E4B9847FEE700BF00004020C3
:10498000B0CC4000E408402044164020E408402019
:10499000E3084020E80840204716402000ED00E0F2
:1049A000000040003800402088ED00E0E550400065
:1049B000D54E40003C4B1B6B03F00303012B0FD083
:1049C00013B1022B29D057E0384B5B6913F0800FED
:1049D00014BF4FF400424FF4FA42354B1A604BE0DB
:1049E000314B1B6A13F0807F03D0324A304B1A6080
:1049F00042E0314A2E4B1A602B4B1B6A03F07003C6
:104A0000102B02D0202B04D036E02C4A284B1A6001
:104A100032E0284A264B1A602EE0234B1B6A13F023
:104A2000807F03D0234A224B1A6012E0224A204B97
:104A30001A601D4B1B6A03F07003102B02D0202B51
:104A400004D006E01D4A1A4B1A6002E0194A184BBE
:104A50001A60154B1B6B03F00303022B0CD1124A97
:104A6000936A926A1248C3F30A41036801FB033355
:104A7000D2B2B3FBF2F303600B4B1B6B03F070037A
:104A8000702B07D10A4A13680D49A1FB03135B0879
:104A900013607047044B1B6B0549C3F302120B688C
:104AA000D3400B60704700BF00060E4010180E4048
:104AB0003C004020001BB70000093D0000127A00B6
:104AC000ABAAAAAA124B984204D84FF08062114BAD
:104AD0001A607047104B984203D8104A0D4B1A6069
:104AE00070470F4B984203D80E4A0A4B1A60704722
:104AF0000D4B984203D80D4A064B1A6070470C4B79
:104B0000984294BF4FF004220A4A024B1A60704741
:104B1000FF2C3101000C0E40FF596202000100041D
:104B2000FF86930300020004FFB3C40400030004E3
:104B3000FFE0F50500050004094B1B6813B9094A9D
:104B4000074B1A60064B1B681A180749914204DB91
:104B50001046034A1060184670474FF0FF30704708
:104B6000CC09402048384020FCFF45204FF0FF3062
:104B7000704700BF4FF400534B600020704700BFE8
:104B8000012070470020704770B51446062942D0B6
:104B900007293CD005295ED12F4D40F2B4520021A7
:104BA00028462E4B98472E4B2E4A2F4928462F4DEC
:104BB000A8470CB394F90130002B1DDB2C482D4B7A
:104BC0009847254C20462C4B98472C4D002382B209
:104BD000214695F900002A4EB04740F2B4563246BD
:104BE000002120461D4B984700233246254995F960
:104BF0000000254CA04770BD24481E4B98471F4C11
:104C000094F90000224B9847FF23237070BD214880
:104C1000184B984770BDA2B1B2F90430002B10DDDB
:104C20001D4B1968013119601C48124DA8472168B5
:104C30001B48A847B4F9042000212068074B984777
:104C400070BD18480B4B98470C4C94F90000104B62
:104C50009847FF23237070BDD00940205D5140006C
:104C600090C74000ACC74000C8C74000595340003F
:104C7000D0C7400035514000C153400040004020A3
:104C800039394000840F4020D5394000F0C740003A
:104C9000793A40000CC840003815402028C8400030
:104CA00050C8400058C8400010B582B02C2802D02F
:104CB000322819D024E00B78012B05D11148124B72
:104CC0009847124B98471BE0D3B911480E4B9847B1
:104CD0000022104B1A70FF2300930F4B0222072172
:104CE0000E480F4CA0470BE001220A4B1A708B783C
:104CF0004A780878C978009101460A48024CA047D2
:104D000002B010BD74C84000355140003923400046
:104D1000ACC840003C154020E8C84000F4C8400042
:104D20001D234000FCC84000F0B583B005460C468A
:104D300000230193294B984207D11F46284E214654
:104D40003846B0470028FAD115E0264B984207D1E3
:104D50001F46234E21463846B0470028FAD115E0B9
:104D6000214B984207D11F461D4E21463846B04779
:104D70000028FAD117E01D4B9D4207D11F46184E5F
:104D800021463846B0470028FAD119E0184B9D4219
:104D900009D11E46174D01A93046A8470028FAD16F
:104DA000019B237018E0144B9D4209D11E46114D02
:104DB00001A93046A8470028FAD1019B23700BE0D7
:104DC0000E4B9D4208D11E460A4D01A93046A84708
:104DD0000028FAD1019B237003B0F0BD00080E40FB
:104DE000A5474000000A0E40001A0E40001C0E406D
:104DF00000400240BD4840000080024000C0024028
:104E000070B50C462A4B984208D11E46294D2146C2
:104E10003046A8470028FAD1012070BD264B9842A1
:104E200008D11E46234D21463046A8470028FAD116
:104E3000012070BD214B984208D11E461D4D2146D0
:104E40003046A8470028FAD1012070BD1C4B98427B
:104E500008D11E46174D21463046A8470028FAD1F2
:104E6000012070BD174B984208D11E46164D2146B1
:104E70003046A8470028FAD1012070BD134B984254
:104E800008D11E46104D21463046A8470028FAD1C9
:104E9000012070BD0E4B984208D11E460A4D214696
:104EA0003046A8470028FAD1012070BD002070BD0F
:104EB00000080E4091474000000A0E40001A0E40C4
:104EC000001C0E4000400240A54840000080024007
:104ED00000C0024070B592B0544B9847544B98476D
:104EE0000E20544EB047544D544B1D60544A554B00
:104EF0001A60554A554B1A604FF4E1330293C023B0
:104F000003934FF4006304930024059406940E2049
:104F1000B0474F4A02A928464E4B984728464E4B69
:104F2000984728464D4B98474D4E33682146986820
:104F30004C4DA847336821465868A8474A484B4B10
:104F400098474B4B98470223ADF8203049F21F1386
:104F5000ADF82230474B09930D940E940F941094A2
:104F60001194454B0C930CA8444B984720B1014633
:104F700043483E4B9847FEE7424B98470021424842
:104F8000424B9847FF230093414B0222072141489F
:104F9000414CA0470122414B1A70BFF35F8F62B6AC
:104FA0003F4B98473F48314CA0473F48A0473F4EB2
:104FB0003F4D0020B04701280AD13E482B4CA04766
:104FC0003D48A04700242046A8470228FBD1F0E72F
:104FD0000028EED13948254B9847394D394C3A4E87
:104FE0000020A8472378012BFAD196F90030002B36
:104FF000F6DA002201210220344B98473070002855
:1050000003DA3348194B9847EAE7102208A9314BD5
:10501000984738B13048154B984796F900002F4B08
:105020009847DDE72E48114B9847D9E7E13B400010
:10503000DD3C4000D5454000008002403C16402049
:10504000014E400038164020294D400034164020C3
:1050500080D1F00841484000954840009D484000FC
:1050600070044020F951400034C9400035514000DF
:10507000A9114000AC140A07A94C4000D11F400000
:1050800094C940006D374000894B4000B137400063
:10509000E8C84000F4C840001D234000380040200C
:1050A00045034000BCC94000ECC94000290C400049
:1050B000710340001CCA400030CA400058CA40007A
:1050C000CD2040003C15402040004020C537400026
:1050D00074CA4000A5384000A8CA4000793A400090
:1050E000D0CA400070B50F4E0F4D761BB61018BFDA
:1050F000002405D0013455F8043B9847A642F9D165
:105100000A4E0B4D761B07F0BDFDB61018BF0024EC
:1051100006D0013455F8043B9847A642F9D170BD3A
:1051200070BD00BF90CC400090CC400098CC4000B7
:1051300090CC40000FB400B5074983B004AB0868B9
:1051400053F8042B8168019301F032FD03B05DF840
:1051500004EB04B0704700BF7004402070B48407B3
:1051600046D0541E002A41D0CDB2034602E0621E52
:10517000E4B3144603F8015B9A07F8D1032C2ED947
:10518000CDB245EA05250F2C45EA054519D903F1AD
:1051900010022646103E0F2E42F8105C42F80C5CBE
:1051A00042F8085C42F8045C02F11002F2D8A4F163
:1051B000100222F00F0204F00F041032032C1344EB
:1051C0000DD91E462246043A032A46F8045BFAD853
:1051D000221F22F003020432134404F003042CB112
:1051E000C9B21C4403F8011BA342FBD170BC704739
:1051F00014460346C2E700BF00290CBF022200226A
:105200004FF4806300F000B82DE9F043514C25685D
:1052100083B004460F4690461E4615B1AB6B002B7B
:1052200079D0B8F1020F04D0B8F1010F7FD8002E69
:105230007DDB2146284603F0C7FC216B41B104F118
:105240004003994202D0284603F01CFE002323634A
:10525000B4F90C300022A26162601A0654D423F41F
:105260004A6323F00303B8F1020FA38139D001ABE5
:105270006A462146284604F0A7F8A3891843A0816E
:1052800026B327B3AB6B002B4DD0009BB4F90C00B9
:1052900027609E421CBF40F40060A081B8F1010F5E
:1052A00008BF40F0010083B208BFA08103F00800EE
:1052B00080B22761666118B313F001002FD000207F
:1052C0007642A661A06003B0BDE8F083009E304640
:1052D00004F0EEF8074668B3A38943F08003A38186
:1052E000D0E7002004F1430243F00203002501212E
:1052F000A381A56022602261616103B0BDE8F083F3
:10530000A06003B0BDE8F0832169284603F0BAFD30
:10531000B4F90C30A3E7284603F0EAFC81E7A66065
:1053200003B0BDE8F083284603F0E2FCADE74FF0A0
:10533000FF30E2E7DDF80090B14506D0484604F0C2
:10534000B7F8074608B14E46C6E7B4F90C304FF03F
:10535000FF30C7E7700440200EB4F0B59CB021AB1D
:105360000F4953F8042B019305466FF00044086879
:1053700002954FF402774FF6FF7602A90695ADF835
:10538000147004940794ADF8166000F087F8029B3F
:1053900000221A701CB0BDE8F04003B0704700BF97
:1053A0007004402000000000000000000000000029
:1053B00000000000000000000000000000000000ED
:1053C00090F800F06DE9024520F007016FF0000C45
:1053D00010F0070491F820F040F049804FF00004ED
:1053E0006FF00700D1E9002391F840F000F10800C8
:1053F00082FA4CF2A4FA8CF283FA4CF3A2FA8CF300
:105400004BBBD1E9022382FA4CF200F10800A4FA66
:105410008CF283FA4CF3A2FA8CF3E3B9D1E90423BA
:1054200082FA4CF200F10800A4FA8CF283FA4CF3F1
:10543000A2FA8CF37BB9D1E9062301F1200182FAAB
:105440004CF200F10800A4FA8CF283FA4CF3A2FAB1
:105450008CF3002BC6D0002A04BF04301A4612BABF
:10546000B2FA82F2FDE8024500EBD2007047D1E9C2
:10547000002304F00305C4F100004FEAC50514F051
:10548000040F91F840F00CFA05F562EA05021CBF22
:1054900063EA050362464FF00004A9E72DE9F04FE7
:1054A000C1B00C46099115460E930A9003F088FF8F
:1054B000036817931846FFF783FFA38916901E060B
:1054C00003D52369002B01F0198100231A4612939A
:1054D0002593249319930B93DFF864A4149230ABB3
:1054E000239399461592A84698F800304446EBB1AC
:1054F000252B02D11AE0252B03D014F8013F002BF5
:10550000F9D1C8EB04058DB1249B259AC9F8008018
:1055100001332A44072BC9F804502592249300F341
:10552000A68009F108090B9B2B440B932378002BD1
:1055300000F0A68000231A468DF86F3019460C93B0
:1055400007934FF0FF3B637804F101085D4608F1D3
:105550000108A3F12000582800F22584DFE810F0AC
:105560008803230423049003230423042304230433
:10557000230423049703A50323045D00E20023040E
:10558000FE000501050105010501050105010501F3
:105590000501050123042304230423042304230415
:1055A000230423042304230415018102230481021C
:1055B0002304230423042304C60223042304CD026A
:1055C00023042304230423042304F70223042304D1
:1055D0002503230423042304230423042304230492
:1055E00023042304230466037903810281028102D8
:1055F0008103790323042304D1032304DB03A300E1
:105600006400EE032304F5032304AA032304230404
:10561000BC030C980E9340420C90079B43F004038C
:10562000079398F8003092E70E98AB460021046883
:105630008DF86F10071D0798302378228B458DF861
:1056400070304FF000058DF8712040F00203C0F279
:10565000C78320F0800343F00203079354EA050355
:105660000E9700F093830F461192B348CEE223AA1F
:1056700009990A9805F082F848B90DF1C00952E776
:10568000259B23B10A98099923AA05F077F8099B6D
:105690009B8913F0400F0B9B18BF4FF0FF33184648
:1056A00041B0BDE8F08F1193AB46002A41F0238250
:1056B000079A12F0200300F02E820E9F073727F082
:1056C0000703002703F10801BB450E91D3E900450C
:1056D0008DF86F70C0F2528722F08003079354EA6E
:1056E000050300F0758330AEE20842EA4572E9082E
:1056F00004F007030D461446303354EA050206F859
:10570000013DF1D1079AD10740F18480302B00F0A0
:1057100081803022731E06F8012C30AAD21A0D9215
:105720001E467AE098F800302A2B08F1010401F0B7
:10573000B181A3F13000092898BF002501F26481EE
:1057400014F8013B05EB850500EB4505A3F130009E
:105750000928F5D945EAE575A046FAE6079B43F026
:105760008003079398F80030F1E6A3F1300000239E
:105770001C4618F8013B04EB840400EB4404A3F13D
:1057800030000928F5D90C94E3E61193AB46002AC2
:1057900041F0C981079B43F010030793079B9806CC
:1057A00040F130850E9F073727F00707D7E9002320
:1057B00007F108010E9114461D46002A73F10003FB
:1057C000C0F25B85BBF1000F9DF86F70C0F23885A9
:1057D000079B23F08003079354EA050300F0DB8165
:1057E000002D08BF0A2CC0F0DB8130AE20462946D0
:1057F0000A22002305F09EFE303206F8012D2046D5
:10580000294600230A2205F095FE04460D4654EA77
:105810000503EBD130AB9B1B0D930D9B5B45B8BFD4
:105820005B4608930023139317B1089B0133089339
:10583000079B13F002030F9302D0089B02330893D7
:10584000079B13F08403109340F0D7820C9B089AB7
:105850009D1A002D40F3D182102D2599249A374F9F
:1058600027DD189648461024B946099E2F460A9D02
:1058700004E0103F102F00F1080016DD01322F4B1D
:1058800024921031072A259180E81800F1DD23AA1F
:105890003146284604F072FF00287FF4F8AE103F2E
:1058A000102F2599249A30A8E8DC189E3D464F46D3
:1058B000814601326C18072A25942492C9F8007099
:1058C000C9F8045000F328849DF86F7009F10809A5
:1058D00077B1249B013301340DF16F010122072BB5
:1058E0002594249389E8060000F3A08309F10809B0
:1058F0000F9B6BB1249B013302341CA90222072B9E
:105900002594249389E8060000F39C8309F1080993
:10591000109B802B00F0D5820D9BC3EB0B07002F53
:1059200039DD074A249B0F92102F28DD22464FF0C5
:10593000100B0A9D099C0AE01CCB40003CCB4000A8
:10594000E8CA4000103F102F09F1080916DD0133A5
:105950001032072B2592249389E8000CF2DD23AA4C
:105960002146284604F00AFF00287FF490AE103F3D
:10597000102F259A249B0DF1C009E8DC1446013351
:105980000F9A24933C44072B259489E8840000F364
:10599000418309F10809079BDA0500F13082249B55
:1059A0000D99C9F8006001330C44072B2594C9F800
:1059B0000410249300F3188309F10809079B590781
:1059C0003FD50C9B089A9D1A002D3ADD102D249B83
:1059D000BC4F23DD22461026DDF828B0099C04E0E8
:1059E000103D102D09F1080917DD0133B549249345
:1059F0001032072B259289E84200F1DD23AA2146C7
:105A0000584604F0BBFE00287FF441AE103D102D37
:105A1000259A249B0DF1C009E7DC144601332C4480
:105A2000072B25942493C9F80070C9F8045008DDA9
:105A300023AA09990A9804F0A1FE00287FF427AE52
:105A4000259C0B9B0C9A08998A42ACBF9B185B184B
:105A50000B93002C40F0D482002324930DF1C00955
:105A600042E51193AB46002A41F059800E9F07375B
:105A700027F0070303F108020E921A6814925B687C
:105A80001593159B149D23F00044284621464FF0A2
:105A9000FF328D4B05F010FD002840F0C1842846F0
:105AA00021464FF0FF32884B05F0E8FC002840F01B
:105AB000B784149815990022002305F0D5FC00281E
:105AC00040F04B879DF86F70804E814B079921F015
:105AD00080010791119903224FF0000B089247298A
