S0170000536D6172742D70656E2D64726976652E737265634F
S2144000006037402049494000474940004749400042
S214400010474940004749400047494000000000002B
S21440002000000000000000000000000047494000BB
S214400030474940000000000047494000474940000B
S214400040474940004749400047494000474940002B
S214400050474940004749400047494000474940001B
S214400060474940000000000061444000754440009D
S21440007089444000474940004749400047494000BE
S2144000809D444000B1444000474940004749400035
S21440009047494000474940004749400047494000DB
S2144000A047494000474940004749400047494000CB
S2144000B047494000474940004749400047494000BB
S2144000C047494000474940004749400047494000AB
S2144000D0000000004749400000000000474940003B
S2144000E0474940004749400047494000474940008B
S2144000F0474940004749400047494000474940007B
S214400100474940004749400047494000474940006A
S21440011047494000000000000000000000000000CA
S214400120474940004749400047494000474940004A
S214400130474940000000000047494000474940000A
S21440014010B5054C237833B9044B13B10448AFF3CC
S21440015000800123237010BDEC0940200000000001
S214400160ECC640000C4B43B10C480D4910B5AFF3FC
S21440017000800C48036823B910BD0A48036833B9A9
S2144001807047094B002BF7D0BDE810401847064B88
S214400190002BF5D0184700BF00000000ECC640001A
S2144001A0F0094020ECC640000000000010B5074BA8
S2144001B0196891F82230003318BF01234A7C096839
S2144001C003480078034CA04710BD00BF080A4020F3
S2144001D00D0A4020890D400008B104207047324B7C
S2144001E09A68324B03EB52135B02D96B02F01F0244
S2144001F0012303FA02F20A4210D02B4B9B7B012BC1
S21440020004D00422284B9A7302207047284B1B7850
S214400210002BF6D00022274B1A60F2E710B5224B8F
S2144002209B7B042B05D0012B19D0032B2CD103200C
S21440023010BD01221C4B9A731E4B1B683BB91C4BCE
S2144002401A701C4B1C4959601A60022010BD0022CF
S214400250174B1A7019481A4B9847022010BD144B7A
S2144002601B783BB1134B1B6813F4803F1AD0002217
S214400270104B1A600C4B02229A73124A1A600122E3
S2144002805A74002283F8222000220F4B1A70064C24
S2144002900E4B1C600E4B9847A07B022814BF0020D4
S2144002A0012010BD022010BD0C0040200707200092
S2144002B00C0A402010E000E060343C026BAF0303C1
S2144002C001004020801A06000D0A4020080A4020FF
S2144002D0AD01400038B5049C520242EAC36242EA8D
S2144002E0017242EAC0722178114341F23430054B24
S2144002F09847054608B9284638BD034B98472070AE
S214400300F9E700BF710E4000950E400010B5094B4E
S2144003101B689989090441F60930074B98470446FB
S21440032008B9204610BD034B18681230034B984757
S214400330F7E700BF080A4020710E40009D0E4000BF
S21440034008B5044B1B7803B108BD0020024B984704
S214400350FAE700BF0D0A40204D0E400008B51020B9
S214400360054B98470422054B9A73FF22044B1A709C
S214400370044B984708BD00BF694640000C0040202B
S2144003800D0A40204D0D40002DE9F04395B0A74B97
S21440039098470446012805D0A54B9847204615B0F7
S2144003A0BDE8F08314AE082306F8453DA14B1B6814
S2144003B00127DF7300251D749D819F4B984700964B
S2144003C02B460622294638469C4EB04729464FF4CF
S2144003D080409B4B984730B9964B1B6803249C73D0
S2144003E0934B9847DAE74FF4D57145F20850944B53
S2144003F09847002840F093804FF00009002144F2CF
S21440040005508F4B9847002840F09780894B1B68D3
S214400410DB7B13F0010F40F0B580002145F203105E
S214400420874B98470028D7D0824D2E68854B9847F3
S214400430000CB0812B68DB7B13F0010F34D0824B6D
S21440044098470028C8D02B685A7DC2F3C30002F0F4
S21440045007027E4951F822104FF47A7202FB01F2ED
S2144004607B4951F8201002FB01F21A609A7C9209EF
S21440047040F00C82997E587E1A7E920242EA8002B2
S21440048042EAA112187FD97E490041EAE011C2F340
S2144004900B02013201F0070102318A40D97D01F09A
S2144004A00F018A40920A5A60624B1B689989090478
S2144004B043F20710624B984700288DD05D4B1B686F
S2144004C0DA7B12F0010F40F0EE815A4B1B68DB7B63
S2144004D013F0040F00F09D8209250027574EA5F122
S2144004E0090303AA134400933B462A463946384636
S2144004F0B04701350D2DF2D19DF80D309DF80C908A
S21440050009EB03299DF80E3009EB03499DF80F309F
S21440051009EB03694E464FF00008484F3AE2494B14
S2144005209847B0F1FF3F00F04A83C0F30B00B0F5A8
S214400530D57F7FF451AFB94660E7424B984710F0FD
S214400540E04F3FF463AF41F2893544F205583C4EE4
S2144005503C4F00F4FC114046B04700283FF43CAF07
S214400560B847002802DB013DF3D135E710F0006FB5
S21440057004D1304B1B680422DA734EE72D4B1B68C0
S2144005800522DA73B9F1000F324F14BFB9464FF463
S214400590FC1940F635054FF00008294E294F4146D4
S2144005A041F23710B04748B1494644F22950B04767
S2144005B020B1B847002820DB013DF0D11D4B1B6819
S2144005C00222DA7300214FF480401D4B98470028E2
S2144005D03FF402AF41F26905DFF87880184E194FB4
S2144005E0414644F20150B04700283FF4F5AEB847C4
S2144005F0002831DB013DF3D1EEE610F0804F05D008
S2144006000C4B1A68D37B43F00803D373094B1B6823
S214400610DB7B13F0010F3FF400AF002145F60230BC
S214400620074B984700287FF4F8AED5E6D90140003E
S21440063041034000080A40204F0E4000D5024000CB
S214400640710E4000950E40000D03400034B440004B
S21440065050B4400000801F4000F0C040B0F1804FD2
S21440066027D0002145F60230A54B984700283FF496
S214400670B3AEA44B1B6801229A814FF4803141F2FD
S21440068003109F4B984700283FF4A6AE9E4B9847D2
S21440069000283FF4A1AE9B4B1A68937CC3F38303B8
S2144006A0013B032B0CD8DFE813F0CD00D000D3007D
S2144006B0D600944B1A68D37B43F00803D373D0E735
S2144006C012231374537DC3F3C30003F007038F490B
S2144006D051F823104FF47A7303FB01F38C4951F819
S2144006E0201003FB01F31360917E507E137E9B0225
S2144006F043EA800343EAA113C3F30B0340F6FF71BA
S2144007008B420FD0107FD17E490041EAE011013381
S21440071001F0070102318B40D17D01F00F018B4083
S2144007209B0A53609189090443F20710744B98471B
S21440073000283FF451AE734B1B681B7C3F2B40F2A6
S21440074097800021009101234FF400727148724D4A
S214400750A84700283FF440AE0025704E03A8B04797
S21440076000283FF439AE0135ADB2322DF6D1039EA6
S21440077006F00206634B1B689A7E597E1B7E9B02E0
S21440078043EA810343EAA213C3F30B0340F6FF7226
S21440079093420ED1614F04A8B84700283FF41CAEE0
S2144007A00135ADB2352DF6D9564B1A68049B5B0819
S2144007B053605A4F7F2D51D9594B1878594B98470B
S2144007C003281DD9564B1878564B9847054604289B
S2144007D04CD0554B5549082818BF194643F20610C9
S2144007E0474B984700283FF4F7AD514B984710F0D9
S2144007F0800F7FF4F1AD434B1B685D744D4B9847BB
S2144008004D4B9847BEB1B0B14C4943F206103C4BF5
S214400810984700283FF4E0AD454B984710F0800FCE
S2144008207FF4DAAD374B1B68012283F82220444A16
S2144008301A60404B98470A254FF4007841F210174B
S2144008402F4E1DE0142313743CE72223137439E71C
S2144008503023137436E74023137433E704A8B847AD
S21440086000283FF4B9AD0135ADB2A3E73549B5E749
S214400870304B9847DFE7013D15F0FF053FF4ACAD40
S21440088041463846B0470028F5D00EE1D97E987EDE
S2144008905A7E120442EA00220A43C2F3150201328B
S2144008A052025A6000E69989090441F23710144B07
S2144008B0984700283FF490AD01230093082200217A
S2144008C02148154DA84700283FF486AD012104A8CD
S2144008D01E4B984700283FF47FAD1D4B9847002895
S2144008E03FF47AAD9DF8103003F00F03012B36D05D
S2144008F083B3022B38D0034B1B6810221A74E4E5EE
S214400900710E4000080A40200D03400034B44000F9
S214400910F4B3400008110800CD0E4000950F40008B
S2144009200D0A4020790D40000000B7010002B701D3
S214400930950E4000AD014000830D40000001B90314
S214400940007519030001B701331108000910400073
S214400950D51040009B4B1B6810221A74B5E5994B86
S2144009601B681A221A74B0E59DF81230DB09954BC5
S2144009701B6814BF302220221A74A6E59DF8113059
S214400980002B3FF429AD02331E4409F580739E4286
S2144009903FF622AD002504AB2B4400934346721924
S2144009A041464046B8470135032DF4D19DF81030F6
S2144009B0FF2B3FF411AD222BE0D19DF81230002BD7
S2144009C0DCD104AD06F106094FF000087E4F0095D5
S2144009D04346324641464046B847013601354E45C5
S2144009E0F5D19DF81530322B28BF3223754A126850
S2144009F0C3F3C30003F00703744951F823104FF4C0
S214400A007A7303FB01F3724951F8201003FB01F39C
S214400A101360704B1878704B9847032822D9694B5F
S214400A201B68DB7B13F0040F46D1664B1B68DA7BF2
S214400A3012F0010F14D09989090441F23710674B20
S214400A40984700283FF4C8AC022141F20610634B99
S214400A50984700283FF4C0AC5A4B1B6804225A748F
S214400A605F4B98475F4B984780B1564B1B68DB7B84
S214400A7013F0040F41D1534B1B68DA7B12F0010F81
S214400A8002D01B7C102B5ED8554B98474D4B1B68AD
S214400A90DB7B13F0010F08D04FF4007141F21010C9
S214400AA04E4B984700283FF497AC464B1B680022B5
S214400AB09A734D4B984771E404AB00930023082289
S214400AC019461846404DA84700283FF485AC9DF986
S214400AD01030002BA9DA14AB022203F8402D009305
S214400AE00123072200211846A84700283FF474AC8B
S214400AF0344B1B6804225A7497E704AB00930023D8
S214400B00132219461846304DA84700283FF464ACD7
S214400B109DF8103013F0010FADD014AB022203F84D
S214400B20402D00930123132200211846A847002891
S214400B303FF452AC234B1B68012283F822201A68EC
S214400B4052001A6097E740252A46002104A8274B02
S214400B509847012300932A4625492648264DA8470C
S214400B6000283FF439AC012104A8244B98470028BC
S214400B703FF432AC224B984700283FF42DAC214B33
S214400B80984710F0800F7FF427AC9DF8203003F094
S214400B900F030F2B3FF478AF9DF82D309DF82C2097
S214400BA053EA02237FF418AC174B9847054B1B6853
S214400BB0012283F822201A6852001A6064E74FF038
S214400BC000091BE4080A4020D502400034B4400027
S214400BD050B440000D0A4020790D4000710E400090
S214400BE0AD014000830D400041034000F5514000F8
S214400BF001FFFF8006110800CD0E4000091040009E
S214400C00D5104000950E40004F0E400008B5054BED
S214400C10984708B1002008BD034B9847034B1B6814
S214400C20D87B08BDD901400041034000080A402057
S214400C3010B504460F4B9847012818D018B1022823
S214400C4010D0012010BD0C4B1B5D0BB1022010BD17
S214400C5020460A4B984700F00300002814BF0020A7
S214400C60022010BD0022044B1A55022010BD03205E
S214400C7010BD00BF89034000100A40200D0C400004
S214400C8070B44FF080435D689C68D868D9695A6DE7
S214400C9080261E605D609C60D860D9615A650022DF
S214400CA01A6505221A6070BC7047000008B501F04E
S214400CB03F03184311F4807F04D011F4006F0ED028
S214400CC040F4845011F4804F18BF40F400604FF059
S214400CD080431A615861184601F480520DE011F4C1
S214400CE0005F14BF40F4865040F48250EAE713F4A5
S214400CF01B0F0CD113F0010F0DD1036C002AF6D058
S214400D0013F41F0FF6D0104B9847002008BD0E4B2B
S214400D109847002008BD11F4005F03D1012008BDAC
S214400D20012008BD4FF080431B6C4FF0FF324FF060
S214400D30804103F03003202BF2D00B6C013AF8D1FF
S214400D40014B9847002008BD810C400010B512208A
S214400D50084CA0473A20A0474FF0804372229A6042
S214400D60DA6111225A654FF4E0625A6005221A6031
S214400D7010BD00BF6946400000280CBF042000207C
S214400D8070470120704700007BB34FF08040436DB2
S214400D9043F4807343652B4BB3EB410F37D310B40A
S214400DA02948B0FBF1F301FB130129BB023B4FF08E
S214400DB08041486820F0FF0048604C68C3F3470015
S214400DC02043486013F0010F18D04B6843F480333B
S214400DD04B60042A19D0082A0CBFC02200224FF0CC
S214400DE08043DA605DF8044B70474FF08040436DB7
S214400DF023F480734365CEE7013BD8E74FF080414C
S214400E004B6823F480334B60E3E78022E7E74FF0FC
S214400E108043596821F0FF015960596859604FF086
S214400E2080414B6823F480334B60042A07D0082A5D
S214400E300CBFC02200224FF08043DA607047802209
S214400E40F9E700BF7FD1F00880D1F00870474FF037
S214400E5080435A6822F460525A6000221A614FF466
S214400E6010625A611A46136C13F0010FFBD070479C
S214400E7010B54FF080435A6822F460525A600024FE
S214400E801C659C610A4601462046014B984710BDAA
S214400E90AD0C40004FF08043186A704710B4031DF5
S214400EA014304FF08044226A110E03F8041C110CD3
S214400EB003F8031C110A03F8021C03F8012C043340
S214400EC08342F0D15DF8044B7047000070B59DF842
S214400ED0104084B34FF480754FF0804425654FF042
S214400EE080456C6844F4C0546C6012F0030F27D001
S214400EF06C6844F400546C6000F40044002C14BF4A
S214400F004FF480344FF4A02410F4803F1FD143EABE
S214400F1002454FF08046B56110F4003F2BD110F4E7
S214400F20802F2BD110F4002F18D110F4801F18BF3B
S214400F3044F4002412E000254FF080442565CEE7B7
S214400F404FF080456C6824F400546C60D4E744F459
S214400F500014C2F308054FF08046B5610026094DDF
S214400F602E60094D2A80094A13800A4601462046CB
S214400F70074B984770BD44F42014EFE744F48014C0
S214400F80ECE700BF180A4020120A4020140A40200E
S214400F90AD0C400008B54FF08041164A0B6C13422A
S214400FA01DD113F0020FF9D04FF080431B6B036046
S214400FB0114A136804331360104A1188104A128885
S214400FC002FB01F2934212D34FF08041094A0B6C68
S214400FD0134208D113F0006FF9D0012008BD094B29
S214400FE09847002008BD074B9847002008BD0120C1
S214400FF008BD00BF000060C0180A4020120A40200A
S214401000140A4020810C40002DE9F04188B0044687
S2144010100D46202200216846264B98472648012345
S2144010200362264B1B8805FB03F5254B0393AB0851
S2144010300093244B019302946A460021224B984722
S214401040224BD3F88030C3F34E3703F0070004300A
S214401050C3F3C90EBEFA8EFC0CF01F0CBFF34F8FC5
S2144010604FF0FF3404FA00F807FA00F004FA0CF4E4
S2144010700EFA0CFC154E7246634643EA0001C6F86B
S2144010807412013A2344B2F1FF3FF6D1013F404487
S214401090B7F1FF3FEFD1BFF34F8FBFF36F8F012004
S2144010A0054BD8610A4A13682B44136008B0BDE864
S2144010B0F08100BFF551400000800740120A4020F2
S2144010C001300400000200403911400000ED00E00D
S2144010D0180A402070B5124B1B88124A128802FB31
S2144010E003F2114B1C684FF080401049104E09E047
S2144010F0104B984701220E4B1A62002070BD13F029
S214401100006F0AD1036C0B42F2D1A242F7D9F56DBB
S21440111015F0010FF3D0012070BD012070BD00BF57
S214401120120A4020140A4020180A4020000060C0DE
S21440113000800740810C400000EB8111CB6D536866
S2144011400B6693684B66136823F07F430B671369FF
S214401150C3F30B034B675369CB67936923F07F4315
S214401160C1F88030D36923F07F43C1F88430D36818
S2144011708B677047072801D90B207047064B53F8FA
S21440118020300BB100221A7009B100230B70024BBD
S21440119043F82010002070471C0A4020102808D131
S2144011A0B1F1805F05D108B5024B1B6803B1984783
S2144011B008BD70473C0A402050B170B5441E054EED
S2144011C0054D3046A847013CB4F1FF3FF9D170BD0C
S2144011D0704700BF35160300010040202DE9F0415E
S2144011E0094F4FF40038C7F83480084D08266E6320
S2144011F06420074CA047C7F830806420A0472E6381
S2144012006420A047BDE8F08100120E4000100E405A
S214401210B911400010B50022144B1A600A20144C35
S214401220A0470B20A0470C20A0471020A047112025
S214401230A047104B08221A61C3F8A0201A630E4A32
S2144012404FF400311161C2F8A010116304221A61F4
S214401250C3F8A0201A63094B1B6813F0010F01D096
S214401260064B1B68064B9847002010BD3C0A4020A2
S2144012706946400000100E4000120E4010E000E0AC
S214401280DD11400030B583B0144B18601020144B6D
S21440129098474FF020517C20124B9847124C012221
S2144012A04FF080512046114B9847114B00935123E5
S2144012B04FF08052102120460E4DA8474FF08051E7
S2144012C020460D4B98474FF480320C4B1A60002254
S2144012D0102120460A4B984703B030BD3C0A4020B8
S2144012E0694640007142400000140E4035414000BF
S2144012F09D114000F14340006142400000E100E0A3
S214401300C544400008B528B94FF080510448054B05
S214401310984708BD4FF080510148034B984708BD99
S21440132000140E406542400061424000F8B5394C1A
S2144013304FF480112166C4F8901061656162C4F86C
S2144013408010236F0B432367636F23F48013636718
S2144013504FF400122266C4F8902062656262C4F8B8
S2144013608020236F13432367636F23F40013636760
S2144013704FF480032366C4F8903063656362C4F814
S2144013808030206F18432067606F20F480006067CD
S2144013906160626063604FF000766660266026613A
S2144013A026631D4D28461D4B984702232B608023FD
S2144013B02B606B6843F001036B606B6843F010036F
S2144013C06B6001212846164B98470022012128468B
S2144013D0144B9847012211462846134B9847002243
S2144013E001212846114B984711491248124B9847FD
S2144013F0C2B201212846114B984700231A460121C4
S21440140028460F4FB84701232B6026630D4B98475D
S2144014100020F8BD00140E4000800040BD4640004D
S214401420E946400063474000814740009F474000F0
S21440143000A3E111006CDC02B3474000C9474000FE
S214401440F1474000DD1140002DE9F04F83B00328FE
S21440145044D10E684D680C8900238DF80430ADF8F1
S214401460063086B1002D36D14FF00108994601ADC1
S2144014704FF00072204B5A632CB3204FDFF894B0E5
S214401480DFF894A006E04FF000084FF0010901AEE7
S214401490EEE7C4B100231A4631783846D8470DF1F6
S2144014A005020DF106013846D047BDF806302B70D0
S2144014B0013CA4B2B8F1000F00D10135B9F1000FDC
S2144014C0E7D10136E5E74FF000720B4B1A63002078
S2144014D003B0BDE8F08F6FF00500F9E740F21F1249
S2144014E007490848084CA0470848A0470848A0476E
S2144014F04FF0FF30ECE700BF00140E400080004085
S21440150090B44000A0B44000CD514000B4B4400078
S214401510DCC140002F474000FF46400002220E4BF1
S2144015201A6003F5592303F580634FF400125A619D
S214401530C3F8A0204FF480125A61C3F8A0204FF49D
S21440154080025A61C3F8A0204FF000725A61C3F877
S214401550A0200020704700BF008000403AB101390B
S214401560821811F8013F00F8013B9042F9D17047CC
S21440157022B1821800F8011B9042FBD170470378D5
S21440158043B1002301339BB210F8012F002AF9D152
S214401590184670470023FBE7024A13780133DBB254
S2144015A013707047430A40207047000000B583B070
S2144015B001200B4B984701A941F27000094B984710
S2144015C0034618B1184603B05DF804FB019941F094
S2144015D00201019141F27000034B98470346F1E740
S2144015E00513400099284000A528400008B5124B36
S2144015F01B784BB9114B1B78DBB2032B0CD00F4B2F
S2144016001B78DBB2042B07D00B4A13780133DBB2CE
S21440161013700023184608BD094B98470346002818
S214401620F8D145F2786141F27400064B984703467C
S2144016300028E9D0EEE700BF410A4020400A40209B
S21440164009244000A52840001E4B1B7823B11D4AA4
S2144016501378013BDBB213701A4B1B78002B2ED14C
S214401660194B1B78DBB2032B06D0174B1B78DBB22B
S214401670042B01D0002323E000B583B00023019360
S21440168044F2213141F27400104B9847034618B19A
S214401690184603B05DF804FB01A901200C4B98479F
S2144016A003460028F4D1019911F0020FF0D021F042
S2144016B0020101910120054B98470346E8E70023C5
S2144016C018467047410A4020400A4020A52840005E
S2144016D0992840002DE9F04F87B007468846924645
S2144016E09946109CBDF84460BDF8485001F07F0311
S2144016F08DF815308DF814000823ADF81630002C00
S21440170000F09F80BDF8163016FA83F32B449BB248
S214401710ADF816305C4B98478346002840F0A280D0
S21440172000230393ADF806300293029B1F430297B3
S214401730029B43EA08230293BDF81620029B43EA25
S21440174002430293029941F28C00504B98478346DD
S214401750002840F0918000230293029B43F002034E
S2144017600293029941F27800484B984783460028F6
S21440177040F0828000230393ADF80630BDF8063073
S2144017809BB2B3F57A7F16D241F27808404F02A951
S2144017904046B84778B9029B13F0020F59D0BDF8BF
S2144017A0063001339BB2ADF80630BDF806309BB22A
S2144017B0B3F57A7FEBD3039B002B61D0039B049356
S2144017C0BDF816309BB2ADF816300498082205A92D
S2144017D0304B9847834600284ED1049B08330493E9
S2144017E0BAF1000F0AD004984A465146294B98470A
S2144017F08346002840D1049B4B4404937CB1049B11
S214401800A5EB09051D440495049832462146214B14
S2144018109847834600282FD1049B1E440496039B7A
S2144018209B000293029B43F002030293029941F20B
S2144018306C00164B98478346F0B9174B984783463B
S2144018401AE0BDF8163019FA83F39BB2ADF816309D
S21440185060E703A911480E4B98470028ABD00023F9
S2144018600393A8E740F29F120D490E480E4CA0473E
S2144018700E48A0470E48A047584607B0BDE8F08F30
S2144018806FF0020BF8E700BFED154000A5284000BA
S214401890992840000D2940004916400000041500D4
S2144018A0CCB44000A0B44000CD51400020B740002A
S2144018B0DCC140002DE9F04387B0DFF8F892A24F34
S2144018C0A24EDFF8F482D5E0042204A90598A04B86
S2144018D09847BDF812309BB2ADF812300446002847
S2144018E030D1BDF812309BB29D4205D0BDF81230C3
S2144018F09BB2EB1A042B33DC9DF81030DBB2012B85
S21440190047D09DF81030DBB2022B5FD09DF81030E8
S214401910DBB2042B68D09DF81030DBB2062B71D0BA
S2144019209DF81030DBB2072B7AD040F202224146B7
S2144019303046884CA0478848A0478848A0476FF064
S214401940050496E04FF4EB7241463046814DA84779
S2144019508348A8478148A8470120824B984788E09B
S21440196040F2DF12414630467A4CA047BDF812207E
S2144019709DF810309DF81110009192B229467A4891
S214401980A0477648A0470120764B98476FF005045D
S2144019906FE0764B1B6843B19DF81100BDF81210FE
S2144019A00839059A083289B29847714B1B78002B44
S2144019B05CD140F2092241463046664CA0476D480D
S2144019C0A0476648A0476C4B98474FE06B4B1B6858
S2144019D0002BEAD09DF81100BDF812100839059A80
S2144019E0083289B29847E0E7654B1B68002BDCD08D
S2144019F09DF81100BDF812100839059A083289B2D0
S214401A009847D2E75F4B1B68002BCED09DF811005D
S214401A10BDF812100839059A083289B29847C4E7CB
S214401A20594B1B68002BC0D09DF81100BDF8121012
S214401A300839059A083289B29847B6E740F211222B
S214401A4041463046434CA0475048A0474348A047ED
S214401A506FF001042FE04FF40672414630463D4C8D
S214401A60A04703994A48A0473C48A047494B984757
S214401A70044604BB99F80030002B00F09F8099F88C
S214401A800030013BDBB289F800301FE040F21E22F6
S214401A90414630462F4DA8473F48A8472F48A847BD
S214401AA009E04FF40972414630462A4DA8473B4864
S214401AB0A8472A48A84740F2432239493046254D90
S214401AC0A84721463748A8472448A847B847044669
S214401AD00028E6D103A941F27000334B98470446EC
S214401AE00028D3D1039B13F0010FB4D01D4B984769
S214401AF0039921F00101039141F270002B4B984766
S214401B0004460028D7D10022194B1A70039DC5F30E
S214401B108B05002D92D006A941F8042D41F2840091
S214401B20214B9847044600283FF4CEAE4FF4E77268
S214401B3041463046074DA8471D48A8470748A8478E
S214401B400120084B984794E7ED154000A0B44000AC
S214401B50B1284000CD5140008CB54000DCC140006B
S214401B6034B54000051340004CB54000580A4020AC
S214401B70420A4020A4B54000AD1540004C0A402023
S214401B80500A4020440A4020540A4020C8B540002D
S214401B90DCB5400049164000F8B540001CB6400091
S214401BA0E0B440003CB6400099284000A5284000DC
S214401BB00CB54000430A4020D8B44000002007B08F
S214401BC0BDE8F0832DE9F04383B01C46002A18BFD9
S214401BD0002903D005460F461646B8B94CB1012237
S214401BE0324B1A70324B98470346184603B0BDE84E
S214401BF0F08340F269222F492F48304CA0473048A6
S214401C00A0473048A0476FF00B03EEE7694641F225
S214401C1070002D4B984703460028E6D1DDF800803B
S214401C2001A941F28400284B984703460028DCD19E
S214401C30C8F38B0846451CD8019B9D4228D305EB2C
S214401C4006094344994523D83246394628461F4B11
S214401C50984703460028C8D1019A9044C84501D009
S214401C60002CC2D00122114B1A70114B98470346E4
S214401C70BBE740F27A220F490F48104CA047424635
S214401C8031461348A0470F48A0476FF00B03ACE718
S214401C904FF4207207490848084CA0470D48A04713
S214401CA00848A0476FF00B039FE700BF420A40205A
S214401CB0AD154000F0B44000A0B44000CD51400007
S214401CC06CB64000DCC1400099284000B128400076
S214401CD08CB64000D0B6400038B5431E062B1DD803
S214401CE0DFE803F00804100C1C141800134B1960AE
S214401CF0002038BD124B1960002038BD114B1960CA
S214401D00002038BD104B1960002038BD0F4B1960BD
S214401D10002038BD0E4B1960002038BD044640F206
S214401D20B9220C490C480D4DA84721460C48A847F7
S214401D300C48A8476FF00B0038BD00BF4C0A402047
S214401D40580A4020500A4020480A4020440A402072
S214401D50540A4020FCB44000A0B44000CD5140009E
S214401D6014B74000DCC1400010B50024094B1C608D
S214401D70094B1C60094B1C70094B1C70094B1C70AE
S214401D8009480A4B98470A4903200A4B9847204679
S214401D9010BD00BF580A40204C0A4020410A40204F
S214401DA0400A4020430A40209915400085124000D2
S214401DB0A9154000D91C400030B59FB015462C28C8
S214401DC02ED004461B283BD0062849D00E2825D0C6
S214401DD0322855D02F2863D0342876D0112800F0EA
S214401DE09380132800F0A880042800F0B780652868
S214401DF000F0C680092800F0D5802A2800F0E4804C
S214401E00202800F0F3804FF4957286498648874D27
S214401E10A84721468648A8478648A8471FB030BDF1
S214401E200023042203A92846834CA0470028F5D166
S214401E30824B1B68002BF1D003A92C209847EDE776
S214401E400023082203A928467B4CA0470028E5D15A
S214401E507A4B1B68002BE1D003A91B209847DDE78F
S214401E600123302203A92846734CA0470028D5D129
S214401E70724B1B68002BD1D003A906209847CDE7AC
S214401E800023102203A928466B4CA0470028C5D142
S214401E906A4B1B68002BC1D003A932209847BDE788
S214401EA06422002103A8664B98470023642203A9B6
S214401EB02846614CA0470028B0D1604B1B68002BD9
S214401EC0ACD003A92F209847A8E70023042203A9F3
S214401ED02846594CA0470028A0D15A48534CA04702
S214401EE00399CBB20093C1F30723C1F30742090E0F
S214401EF05548A0474F48A047504B1B68002B8DD0F5
S214401F0000213420984789E70023504A1370042262
S214401F1003A92846484CA04700287FF47FAF9DF889
S214401F200C204B4B1A70454B1B68002B3FF476AF8A
S214401F3003A91120984771E700232C2203A92846BD
S214401F403D4CA04700287FF469AF3C4B1B68002BF4
S214401F503FF464AF03A9132098475FE700230422A9
S214401F601CA92846344CA04700287FF457AF334B73
S214401F701B68002B3FF452AF1CA9042098474DE73E
S214401F80002304221CA928462B4CA04700287FF497
S214401F9045AF2A4B1B68002B3FF440AF1CA9652079
S214401FA098473BE70123642203A92846224CA047D2
S214401FB000287FF433AF214B1B68002B3FF42EAF35
S214401FC003A90920984729E70123042203A92846A4
S214401FD0194CA04700287FF421AF184B1B68002BF4
S214401FE03FF41CAF03A92A20984717E7002308228E
S214401FF003A92846104CA04700287FF40FAF0123C2
S214402000BDF81020039905F10800A04700287FF48A
S21440201005AF0A4B1B68002B3FF400AF03A92020F6
S2144020209847FBE640B74000A0B44000CD51400082
S2144020309CB74000DCC14000C51B40005C0A402005
S2144020407115400070B740007CB74000610A4020E0
S214402050600A4020F0B58BB001238DF80730002889
S21440206050D00268294B1A600022294B1A700DF195
S2144020700700284B9847044610B120460BB0F0BDE9
S214402080254B98470446002838D124490120244B44
S214402090984702A8234B98470446234F3846234D7B
S2144020A0A8479DF80E309DF80D209DF80C1020484E
S2144020B0A847204E3046A8473846A8479DF81130D6
S2144020C09DF810209DF80F101B48A8473046A8479B
S2144020D03846A8470023032213211848A84730460D
S2144020E0A84714F10D0FC8D140F2D512144915482F
S2144020F0A8471548A8473046A847BEE70020134BD8
S2144021009847BAE76FF00B04B7E700BF5C0A402079
S214402110610A4020192A4000691D4000B91D400050
S214402120D91C40006929400070B74000CD5140009E
S2144021305CB84000DCC1400078B8400094B840002D
S2144021404CB74000A0B44000B0B84000E52A40007C
S21440215008B5014B984708BDB51840002DE9F04139
S214402160A0B080460D4614461E46BDF89870012A1B
S21440217003D0002B37D0022A42D06B1EDBB21F2B77
S21440218075D8FF2F01D00D2F7ED82A4641460DF137
S2144021905A00774B984720AB1D44002305F8263C51
S2144021A0ADF858709DF89C30003318BF01238DF869
S2144021B07B308DF85540032C73D0022C00F0AA805B
S2144021C0042C00F0C180012C40F0C4800023029310
S2144021D0019300936C2305AA28210120654CA04753
S2144021E020B0BDE8F08140F2032263496348644C66
S2144021F0A0476448A0476448A0476FF00B00EFE74D
S2144022001846624B98474028B7D13378A3F13A0234
S214402210D2B2062A1ED9A3F13002D2B2362A19D833
S214402220473BDBB2192B15D9314606F13F0011F872
S214402230013FA3F13A02D2B2062A0BD9A3F13002EB
S214402240D2B2362A06D8473BDBB2192B02D988428F
S214402250EDD192E740F20F2247494848484CA04704
S2144022604B48A0474848A0476FF00B00B8E740F2FD
S214402270192241494148424CA0474648A047424857
S214402280A0476FF00B00ABE740F222223A493B48AA
S2144022903B4CA0474048A0473B48A0476FF00B0048
S2144022A09EE73378013BDBB28DF81430032B13D80E
S2144022B07278531E8DF8153002F0EF030B2B1AD1AF
S2144022C0B11C0DF116002A4B9847737820AA134488
S2144022D0002203F86A2C79E740F23922264927483B
S2144022E0274CA0479DF814102C48A0472648A047E6
S2144022F06FF00B0074E74FF410721F491F48204CD4
S214402300A0479DF815102648A0471F48A0476FF0E5
S2144023100B0065E730461D4B9847431E9BB23F2B4C
S21440232005D8421C314605A8114B98474EE740F267
S2144023304F2211491148124CA0471A48A04712484C
S214402340A0476FF00B004BE73E22314605A8084BEE
S21440235098473BE740F25F2207490848084CA047A9
S2144023601148A0470848A0476FF00B0038E700BF69
S2144023705D154000D51640005CB74000A0B4400054
S214402380CD514000B0B74000DCC140007F15400052
S214402390C4B74000D4B74000E8B74000F4B74000A8
S2144023A010B840002CB8400048B8400010B582B085
S2144023B000240194BDF810400094024CA04702B09F
S2144023C010BD00BF5D21400000207047F0B583B0CF
S2144023D004464FF4A5550A4E0A4F21462846B047B4
S2144023E054B102A9002341F8043D2846B8470028C6
S2144023F0F3D1019B9C42F0D1002003B0F0BD00BF5A
S214402400A5284000992840002DE9F04F83B00120D0
S2144024103C4B984701A901203B4B9847824638B928
S21440242000244FF00108DFF80891364D374F20E082
S214402430722237493748384CA0473848A047384872
S214402440A04709E0962232493248334CA0473548E7
S214402450A0473348A047B246504603B0BDE8F08F89
S214402460019941F002014046C847009B13F0040F13
S214402470F2D1019941F002014046C8474046A8477C
S2144024806946294B1868204B984708B9009BBBB94A
S214402490254E0E2333604046A847694630681A4B9F
S2144024A0984708B9009B5BB91F4E132333604046DC
S2144024B0A84769463068144B984706460028C1D15D
S2144024C0194E009B13F0040FC6D10134A7FB04231A
S2144024D05B0803EB43039C42C2D10220A8476946EF
S2144024E03068094B9847009B13F0040FE9D1AA22A5
S2144024F007490848DFF820B0D8470C48D84708486E
S214402500D847DEE7B911400099284000ABAAAAAAEE
S214402510CCB84000A0B44000CD5140003CB940008B
S214402520DCC140005CB94000340040207CB940002B
S214402530A528400000B583B001A941F20840154BDC
S2144025409847E8B9019941F48071019141F20840F9
S214402550114B9847B8B901A94FF4D0500D4B984746
S214402560A0B9019941F4803101914FF4D0500A4B03
S2144025709847002818BF6FF0050003B05DF804FBCD
S2144025806FF00500F9E76FF00500F6E76FF005001D
S214402590F3E700BF99284000A528400010B582B058
S2144025A0254B1C6824B1244B1C68204602B010BD45
S2144025B019464FF48050214B984718B100221E4BC5
S2144025C01A60F2E701A941F2F4301C4B984718B163
S2144025D00022194B1A60E8E7174B1B68184A9342CB
S2144025E00DD0184A934211D0174A934218D0124A37
S2144025F0136823F4702343F4A0231360D3E7019BAE
S214402600012BF4D001320C4B1A60F0E7019B032BF0
S214402610EDD0042B0CBF01320C4A074B1A60E6E79C
S21440262005494FF46C10054B98470028DFD0002230
S214402630014B1A60B9E700BF640A40209928400061
S214402640A0021000B0021000F0001000B20210000D
S2144026502DE9F041074641F21405284C284E2846FD
S214402660A047002802DB0120B047F8E72548234B67
S214402670984710F0010F10D1DFF884801F4E224D8E
S2144026800120C0474FF00C10B04704462A4601468A
S2144026901E481F4B9847AC42F2D1022F19D0032F49
S2144026A022D0042F14BF002480241A4B9847C0F32E
S2144026B00B00B0F5687F0CBF44F002002046164B76
S2144026C0984716494FF00C10154B98470020BDE828
S2144026D0F08114491448124CA0474FF4801141F23F
S2144026E08C00A0470024E0E70E490F480C4CA0475A
S2144026F0002141F28C00A0470024D6E78D284000F8
S214402700B9114000BC0702009ED0AD10A0B94000F1
S214402710CD5140009D254000CD234000612F52EF13
S214402720A52840007DD51C3CAC070200F0B583B020
S21440273041F28C030193184B00930238C0B2012833
S21440274011D94FF0FF3400200227144E144D009B41
S214402750984212D03846B0470198A847013CF6D177
S2144027606FF004000EE00F4B0193A3F12253A3F544
S2144027701113A3F2E9530093E3E7009A064B9A42FB
S21440278002D0002003B0F0BD002141F28C00064B81
S21440279098470020F6E700BF36265302B91140009E
S2144027A08D284000AC070200A5284000F0B583B055
S2144027B002A9002341F8043D4FF4A050244B98470B
S2144027C020BB019921F4806101914FF4A050214B28
S2144027D09847054628BB0A241D4E1E4F01A94FF4B4
S2144027E0A050B047054638BB019911F4806F0AD017
S2144027F021F4806101914FF4A050B8470546631E0E
S21440280013F0FF04EAD1284603B0F0BD40F231226F
S21440281011491248124CA0471248A0471248A047F8
S214402820CFE740F237220C490C480D4CA0470F48E2
S214402830A0470D48A047E6E740F23E220649074833
S214402840074CA0470A48A0470748A047DBE700BF19
S21440285099284000A5284000DCB84000A0B44000BD
S214402860CD514000E8B84000DCC1400004B940000B
S21440287020B9400008B5014B984708BD2D134000CD
S21440288008B5014B984708BD1D15400008B5014BDB
S214402890984708BDE130400008B5014B984708BD51
S2144028A0F930400008B5014B984708BD113140004B
S2144028B02DE9F047074689461546124BB3F8008087
S2144028C0A8F108081FFA88F8424519D94446002658
S2144028D0DFF834A0424609EB06013846D0470346A7
S2144028E058B92D1B26442744A542F3D8AAB209EB73
S2144028F006013846044B984703461846BDE8F0871D
S2144029000026F3E7300040203D3240002DE9F047F6
S214402910074689461546124BB3F80080A8F10808CA
S2144029201FFA88F8424519D944460026DFF834A0F5
S214402930424609EB06013846D047034658B92D1B98
S21440294026442744A542F3D8AAB209EB06013846E6
S214402950044B984703461846BDE8F0870026F3E741
S214402960300040200533400030B583B0044602A90D
S214402970002341F8043D2448244B98470546019AD5
S214402980234B9A4239D0019B1A0C91B2080AE07147
S214402990C1F30311217202F00F0262729AB2110A59
S2144029A02171C2F30312627103F00F03A371194B36
S2144029B0984720602279A37903F00F0343EA022365
S2144029C062791201D2B21343E179627A02F00F02C1
S2144029D042EA0122217A0901C9B20A4341F2303162
S2144029E08A4288BF6FF00C0541F22F3293428CBF6B
S2144029F028466FF00C0003B030BD01A941F24800F4
S214402A00024B98470546BEE7AC07020099284000AF
S214402A10C3C15DD79D25400038B5002837D004781F
S214402A20631EDBB2042B28BF012400201E4B9847B0
S214402A30054600282DD11D481D4DA8471D4B9847DB
S214402A4001461D48A8471D48A8471D4B98472046A5
S214402A501C4B98470546B0B920461B4B9847054641
S214402A6088B9023CE4B2012C0FD9184B984705466A
S214402A7058B14FF4AE72164916480D4CA04716484A
S214402A80A0470E48A047154B9847284638BD012416
S214402A90CBE74FF492720E490E48054CA0471048BB
S214402AA0A0470648A047F0E77528400070B74000AA
S214402AB0CD5140009D25400068BA4000DCC1400032
S214402AC029314000512640002D2740003525400042
S214402AD0B0B94000A0B440002CBA40008128400065
S214402AE04CBA400038B5194B984758B90020184B97
S214402AF09847044698B9174B98470446D0B9164BA2
S214402B0098470AE004464FF4BA7214491448154DE3
S214402B10A8471548A8471548A847204638BD40F25C
S214402B207B120E490E480F4DA8471148A8470F483C
S214402B30A847F2E740F2811208490948094DA847DC
S214402B400C48A8470948A847E7E700BFAD2740001C
S214402B50893B400081284000D5304000BCB9400049
S214402B60A0B44000CD514000CCB94000DCC140008C
S214402B70ECB9400010BA400000B585B00023019380
S214402B800290ADF80C1001A90320024B984705B0FF
S214402B905DF804FB491440002DE9F04182B005463B
S214402BA000F13B03DBB2012B27D9CF2825D00B24DD
S214402BB04FF00108234F41460DF10700B84706463F
S214402BC020BB9DF80730AB422CD0631E13F0FF04A9
S214402BD0F1D10B2401271B4D39460DF10700A847BC
S214402BE010BB9DF8073053B3631E13F0FF04F3D1B8
S214402BF00126304602B0BDE8F08101210DF1070004
S214402C00104B98470028D2D00026F2E740F2271211
S214402C100D490E480E4CA0470E48A0470E48A04708
S214402C200026E6E70B24D5E740F23512064907486A
S214402C30074CA0470748A0470748A047D9E70126C2
S214402C40D7E700BF792B400080BA4000A0B44000D0
S214402C50CD514000C0BE4000DCC140002DE9F04FE1
S214402C6085B083468A4617464FF00009374D27E021
S214402C7040F2571236493748374CA0473748A047A6
S214402C803748A04700230193019805B0BDE8F08F70
S214402C90002C2EDD41460BEB0900A84704460028D1
S214402CA034D11FB92F4B1B78002B3AD0C1440FFAB2
S214402CB089F9AAEB080A1FFA8AFABAF1000F41D03E
S214402CC0D046BAF5005F28BF4FF400580A240126C4
S214402CD031460DF10B00A84701900028C8D19DF859
S214402CE00B301B090F2BD3D0013C24B2B4F1FF3F6D
S214402CF0EED140F2631216491648174CA0479DF88D
S214402D000B101948A0471648A047BDE74FF4B672C7
S214402D100F491048104CA0471448A0471048A047F9
S214402D20B2E7022103A8A8470028BFD040F2771296
S214402D3007490848084DA8470D48A8470848A847E7
S214402D400194A1E7012301939EE700BF792B400041
S214402D508CBA4000A0B44000CD514000F4BE4000C4
S214402D60DCC14000680A402028BF400058BF4000F1
S214402D708CBF400000B585B0019000230293ADF8AB
S214402D800C1001A90320024B984705B05DF804FBE0
S214402D904914400070B584B09DF820408DF804007A
S214402DA0C1380E2800F2A280DFE800F045456619DB
S214402DB02A3354547F08A0A0A0A03C000B0C8DF8EA
S214402DC005300B0A8DF806308DF807100521554B57
S214402DD01B78002B00F08C800139C9B29AE0C1F311
S214402DE0072344B98DF805308DF8061000238DF87A
S214402DF007300521EBE763F07F038DF80530F3E7F6
S214402E0000238DF805308DF806308DF80730052103
S214402E10DDE700238DF805308DF806308DF8073055
S214402E200521D4E7FF238DF805308DF806308DF860
S214402E3007300521CBE70A0C8DF805200A0A8DF8E5
S214402E4006208DF807101A0A8DF808208DF80930EC
S214402E500721BCE70A0C8DF805200A0A8DF80620E3
S214402E608DF807101A0C8DF808201A0A8DF80920DC
S214402E708DF80A300821AAE7C1F3072384B98DF8F4
S214402E8005308DF80610130E8DF80730130C8DF8AC
S214402E900830130A8DF809308DF80A20082196E785
S214402EA063F07F038DF80530EBE70B0C8DF80530AB
S214402EB00B0A8DF806308DF80710130E8DF8083083
S214402EC0130C8DF80930130A8DF80A308DF80B2054
S214402ED009217CE74FF4847213491448144CA047E8
S214402EE01448A0471448A047002019E0002017E0E7
S214402EF04E1E01AB9D197F201A46104C12F8013B1E
S214402F0083EA4003E05C9542F8D104AB1E4443009C
S214402F1006F80C3C01A80A4B98470028DAD1012055
S214402F2004B070BD680A402078BA4000A0B44000A3
S214402F30CD51400094BE4000DCC14000F4BA400091
S214402F40752D400070B582B00446312835BF012348
S214402F500023C325C925009304230A460146284674
S214402F60154EB04701280DD040F2EB1213491448D5
S214402F70144DA84721461448A8471448A84700209F
S214402F8002B070BD2846124B98470128F8D040F250
S214402F90F1120A490A480B4DA84721460D48A84752
S214402FA00A48A84700240094234622462146CF20BC
S214402FB0014DA8472046E3E7952D4000ACBA4000B7
S214402FC0A0B44000CD51400044C04000DCC14000A9
S214402FD0992B400070C040002DE9F04184B0044673
S214402FE08846B0F5807F35BF01260026C425CA2511
S214402FF0009604230022014628462C4FB847012855
S2144030000ED040F245222A492A482B4DA847214651
S2144030102A48A8472A48A847002004B0BDE8F081BF
S2144030202846284B9847012814D040F24B22204986
S2144030302048214DA84721462348A8472048A8476E
S21440304000240094234622462146CF20174DA84709
S2144030502046E2E73246042103A81C4B9847012845
S21440306010D19DF80D209DF80E301B0443EA022334
S2144030709DF80C2013439DF80F2043EA0263C8F8DE
S2144030800030CAE740F2532209490A480A4CA04792
S2144030900F48A0470A48A0470024009423462246EB
S2144030A02146CF20014DA8472046B6E7952D400043
S2144030B0CCBA4000A0B44000CD514000C4BF400050
S2144030C0DCC14000992B4000F0BF40005D2C400022
S2144030D024C040000020014B18707047680A40200A
S2144030E000B583B001A9034B9847019803B05DF83B
S2144030F004FB00BFD92F400008B5044B9847012871
S2144031000CBF00206FF0050008BD00BFD92F40005F
S21440311008B5044B984701280CBF00206FF0050007
S21440312008BD00BF452F400030B583B0002302A93C
S21440313041F8083D344A13704EF62400334B984706
S21440314048B3314B1B787BB9009921F07C0141F0A4
S214403150500100914EF624002D4B98470446002817
S21440316039D00122284B1A7001A94FF48050274BC2
S214403170984700283AD04EF62400264B984720F031
S214403180700141F050014EF62400234B984700242E
S214403190204603B030BD01221B4B1A7040F2C522B8
S2144031A01E491F481F4CA0471F48A0471F48A0471E
S2144031B069464EF62400154B984704460028C0D171
S2144031C04FF4327215491648164DA8471848A84776
S2144031D01648A847DCE740F2D22210491048114D65
S2144031E0A8471448A8471148A847D1E74FF4377274
S2144031F00A490B480B4CA0470F48A0470B48A0472E
S2144032006FF00504C4E700BF680A4020D92F40008D
S214403210452F4000E130400011314000E8BA400000
S214403220A0B44000CD514000F4BB4000DCC140009B
S21440323044BC400074BC4000A8BC4000F0B583B01D
S21440324004460F461546002200922B460146C820EB
S214403250224EB04701280ED04FF41D722049214817
S214403260214DA84721462148A8472148A8476FF046
S214403270050003B0F0BDC8201E4B9847012812D069
S21440328040F27A2216491748174DA84721461A4851
S214403290A8471748A847002100910B460A46CF206A
S2144032A00E4CA047E3E7002229463846134B984782
S2144032B0012811D04FF4217209490A480A4CA04708
S2144032C00F48A0470A48A047002100910B460A46EF
S2144032D0CF20024CA047CAE70020CAE7952D400001
S2144032E0DCBA4000A0B44000CD514000D0BC400005
S2144032F0DCC14000992B400000BD40005D2C4000E2
S21440330038BD40002DE9F04385B004468846154652
S214403310002200922B460146C7204D4EB04701285A
S2144033200FD040F20F224B494B484C4DA847214600
S2144033304B48A8474B48A8476FF0050005B0BDE886
S214403340F083C720484B9847012812D040F21522F8
S21440335040494148414DA84721464448A84741482E
S214403360A847002100910B460A46CF20384CA0477C
S214403370E2E70024ADF80C403D4FDFF80C911DE02D
S214403380B5F5005F94BF0323022363F00F038DF867
S2144033900B3001210DF10B00B847E8B9314608EB78
S2144033A00400B847002835D199F80030002B3CD0AF
S2144033B0344424B2AD1BADB2002D46D02E46B5F5F2
S2144033C0005F28BF4FF40056002CD9D1B5F5005FFA
S2144033D094BF03230123D8E74FF4D47225491E48EF
S2144033E01E4CA0472448A0471E48A04740F226222D
S2144033F018491948194CA0472048A0471948A047E3
S21440340000240094234622462146CF20104DA8474C
S214403410204693E740F2B11216490F480F4CA0479A
S2144034201748A0470F48A047E0E7022103A8B8473F
S2144034300028BDD040F2BB120E490748074CA047B3
S2144034401048A0470748A047D0E7002076E700BFCF
S214403450952D4000BCBA4000A0B44000CD5140007D
S21440346060BD4000DCC14000992B400090BD40004C
S214403470752D40009CBA4000C8BD40006CBE400060
S21440348000BE400034BE4000680A40202DE9F84F98
S214403490BDF8284094B181460E46924698460301B0
S2144034A02249CB5853B101EB00139B889BB22BB1FA
S2144034B001EB00139B7ADBB2012B01D0BDE8F88FFD
S2144034C0F48001EB0017DFF87CB006E025460123C8
S2144034D00BE0641BA4B2A844ECB1BB88E31A1BB251
S2144034E0002BF3DDBD88ADB2002339682A4640463E
S2144034F0D84790B93B683360B580F3885B1BF38050
S2144035000B4B1B68002BE4D0094B1B6832465146D8
S21440351048469847DDE7BDE8F88F0648064DA84779
S21440352021460648A8470648A847C7E790164020C1
S2144035304017402070B74000CD514000A8C0400022
S214403540DCC14000C51B4000F0B599B01446412888
S21440355049D00D4642285FD0432875D0442800F015
S214403560B0804B2800F0AD804A2800F0CC80A0F117
S2144035704603DBB2072B00F2F480852222FA03F3DF
S21440358013F0010F00F0ED80482814BF06270927E6
S2144035900023102203A92046934EB047002840F04F
S2144035A0B0809DF91800BDF81A10904A02EB001240
S2144035B000231373BDF914E0BDF81630BDF80E6055
S2144035C0ADF82660049E0A96D28892B2914200F0E8
S2144035D0AC80102D40F29580012300221146104603
S2144035E0814CA0478DE00023042207A920467E4C4C
S2144035F0A047002840F085809DF81D308DF80C309F
S2144036007B4B1B68002B7CD0794B1B6803AA01219F
S2144036109DF91C00984774E00023042207A9204621
S214403620714CA04700286CD19DF81D308DF80C30A9
S2144036306F4B1B68002B64D06D4B1B6803AA02219E
S2144036409DF91C0098475CE000230C220DEB02011C
S2144036502046654CA047002853D19DF91530002BD5
S21440366019DB624A02EB03120021D17201219172EA
S21440367060490A88013292B20A800A8892B21AB920
S2144036800A88013292B20A805A4A118889B2574A49
S21440369002EB0312D1808DF81C300223ADF82030A7
S2144036A0BDF80E30ADF82230049B0993504B1B6892
S2144036B03BB34F4B1B6807AA04219DF9140098475B
S2144036C01FE00023042207A92046474CA047C0B964
S2144036D09DF91C008DF80C009DF91D308DF80D30BD
S2144036E03BB9BDF81E30083B9BB2404A02EB001285
S2144036F013813F4B1B6823B13D4B1B6803AA052132
S214403700984719B0F0BD0023442207A92046364CFE
S214403710A0470028F5D1384B1B68002BF1D0364B1C
S2144037201B68179907A89847EBE7BEF1000F01DD25
S214403730AE450DDBADF820E0002307932C4B1B680D
S214403740002BDED02A4B1B6807AA39469847D8E795
S2144037501FFA8EF2009223443A4607A9274CA04708
S214403760CFE700F0FD03452B19D04C2817D0522840
S214403770C7D10123142207A920461B4CA047002886
S214403780BFD11F4B089A1A601B68002BB9D01C4B40
S2144037901B689DF82C20099907989847B1E7472859
S2144037A014BF072508250023082207A920460E4CEB
S2144037B0A0470028A5D19DF91C00BDF82020BDF8E3
S2144037C01E30ADF80C30094B03EB0013DB889BB280
S2144037D09A4296D1064B1B68002B92D0044B1B682E
S2144037E003AA294698478CE7C51B40009016402000
S2144037F0401740206A0A4020481740208D34400039
S2144038004417402008B50A4B1B7803B108BDB022C8
S21440381000210848084B984708490220084B98471B
S2144038200122034B1A700022064B1A80EEE700BFB7
S214403830690A4020901640207115400049354000E6
S214403840D91C40006A0A4020024B1860024B19609F
S214403850704700BF4017402048174020F0B587B05B
S214403860022858D1012959D0022916D10B260724FF
S21440387025462E4B03EB04139B7A002B51D0631C3A
S214403880DBB22A4FDCB2B44240D21D4607EB0311EE
S214403890897A581C21B10346F4E74FF0FF3437E0ED
S2144038A0224800EB0310164610220021204B984772
S2144038B01E4B03EB051301229A721E4A13880133EE
S2144038C09BB2138013889BB21BB9138801339BB2FB
S2144038D01380184B1A8892B2144B03EB0513DA8008
S2144038E064B216F0010F13D006AA02F8044D0F4B2F
S2144038F003EB05152123EB720023029301930093FB
S2144039000423502102200C4DA84701E04FF0FF341D
S214403910204607B0F0BD4FF0FF34F9E707260024F5
S214403920A6E7024800EB0410BDE700BF9016402013
S214403930711540006A0A4020D516400030B589B05F
S214403940041E36DB002934D01D4B03EB04139B7A50
S214403950DBB2002A30D0012B2ED1194B03EB0413D7
S214403960DB7A13F0010F22D0154B03EB0413DB7AFE
S2144039708DF81D304B258DF81C40082205A8114BAC
S21440398098470F4800EB0410C388ADF81E3000235C
S2144039900293019300930C2305AA294602200A4C61
S2144039A0A047002818BF6FF0080009B030BD442576
S2144039B0E1E76FF00500F8E76FF00500F5E700BFB8
S2144039C0901640205D154000D516400030B589B0B1
S2144039D00C46003118BF0121B2F5AF6F88BF0021F9
S2144039E0002937D0002835DB1D4B03EB00139B7AAC
S2144039F0DBB2012B31D18DF81000ADF81220184BF8
S214403A0003EB0013DB88ADF81C300728B4BF502505
S214403A104425134B03EB0013DB7A13F0010F17D04A
S214403A200F4B03EB00100589ADB24C210295019275
S214403A30009410230DEB030241F080010220094C54
S214403A40A04700280CBF00206FF00D0009B030BD25
S214403A504521EBE76FF00500F8E76FF00500F5E766
S214403A6090164020D5164000002918BF002A44D0A2
S214403A7070B586B00E461546002836DB204A02EB67
S214403A800012927AD2B2012A32D11D4C010162183C
S214403A9066509580127B002A2DD104EB001201213E
S214403AA01173D27A0A40002A0CBF46214D21D3B961
S214403AB04FF0FF3304938DF81400114B03EB0010C6
S214403AC0C388ADF816300023029301930093082371
S214403AD004AA02200B4CA04700280CBF00206FF021
S214403AE00D0006B070BD0493E5E76FF00500F8E7FB
S214403AF06FF00500F5E70020F3E76FF0050070472C
S214403B0090164020D516400030B587B0041E2FDBF7
S214403B101A4B03EB04139B7ADBB2012B2BD18DF8A7
S214403B201440164B03EB0413DA88ADF81620002237
S214403B309A72DA80DB7A03F0010393420292019292
S214403B4000924FF0040305AA0CBF49214E210220E3
S214403B500B4DA847051E18BF6FF008051022002120
S214403B60064800EB0410074B9847284607B030BD80
S214403B706FF00505F9E76FF00505F6E7901640206B
S214403B80D51640007115400070B582B005462B4BE7
S214403B909847C0F30B00B0F5687F03D20024204658
S214403BA002B070BD01A941F21040254B984704462B
S214403BB00028F4D1234B019A13402349194301911D
S214403BC041F21040214B984705B3002120481F4D35
S214403BD0A847AB211F48A84701211F48A8470021F6
S214403BE01E48A84781211E48A8471E4E1E4D3046F7
S214403BF0A8470128FBD11349019B194041F4803165
S214403C00019141F21040114B9847C8E700211048F7
S214403C100E4DA847B9210F48A84701210E48A8478E
S214403C2000210E48A84781210D48A8470D4E0E4D4D
S214403C303046A8470128FBD1DDE700BF9D25400060
S214403C4099284000FF8F88F800101101A5284000F1
S214403C50080201000C020100140201001C020100CF
S214403C6004020100180201008D28400010B51048DB
S214403C70104B98473E2100200F4B98470F4CA047CB
S214403C800028FCD00E4B98470E4A0F4B9A620F4CBA
S214403C90A0470028FCD002200D4B984700200D4B33
S214403CA098470D4B98470248024B984710BD00BFB7
S214403CB000A3E1111D4B4000E54540003946400059
S214403CC049464000013F182000060E405946400035
S214403CD04945400081454000114A40002DE9F041E9
S214403CE080B90C469046002A0FDD8F18084E094DC5
S214403CF0306821462B6898470134BC42F8D140468C
S214403D00BDE8F0814FF0FF38F9E78046F7E700BF9F
S214403D10541740204C1740200138022815D82DE96A
S214403D20F0410E4614469AB10D46DFF838800C4FE7
S214403D30D8F8000015F8011B3B68984700280ADBB6
S214403D40A81B013CF4D1BDE8F0814FF0FF3070472E
S214403D501046BDE8F0814FF0FF30BDE8F08100BF6F
S214403D605017402054174020F8B54FF40042B84B47
S214403D705A60BFF35F8FB74F3846B74DA847B74E28
S214403D8040EA06011120B64CA047B648A847B649B7
S214403D900143B648A0473846A84740EA0601B4481B
S214403DA0A047B448A84706F1087606F5403640EAEC
S214403DB00601B148A047B148A84740EA0601B048C6
S214403DC0A0476FF06040A847AE4E40EA0601AE48B6
S214403DD0A0476FF07040A847AC4F40EA0701AC4898
S214403DE0A0476FF07040A847AA490143AA48A04799
S214403DF06FF06040A84740EA0701A848A047A84897
S214403E00A84740EA0601A748A047A74C636A43F480
S214403E10E02363620520A54B9847BFF34F8FBFF35F
S214403E206F8FBFF34F8FBFF36F8F0023C4F85032AE
S214403E30636943F400336361BFF34F8FBFF36F8F03
S214403E40D4F88070C7F34E3607F007000430C7F347
S214403E50C907B7FA87FE0EF01F0EBFF34F8F4FF01D
S214403E60FF3404FA00FC06FA00F004FA0EF407FAEF
S214403E700EFE8D4D3A46734640EA0301C5F8601281
S214403E80013A2344B2F1FF3FF6D1013E6044B6F119
S214403E90FF3FEFD1BFF34F8F834B5A6942F48032D6
S214403EA05A61BFF34F8FBFF36F8F814A814951608C
S214403EB0A1F580715160BFF34F8FBFF36F8FD3F87A
S214403EC0902222F00102C3F89022D3F8942222F0E6
S214403ED00102C3F89422BFF34F8FBFF36F8F0A20BF
S214403EE0754CA0470B20A0470C20A0471020A047A9
S214403EF01120A047714A4FF480731361C2F8A03076
S214403F0013636F4B4FF400615961C3F8A0105966B4
S214403F10C3F8901059651962C3F88410186F20F4DE
S214403F2000601867586F20F400605867C3F8C010E8
S214403F30C3F8D410C3F8B0104FF400111966C3F894
S214403F40901059655962C3F88010186F20F400101D
S214403F501867586F20F40010586759605948D0F8D1
S214403F60141141F01001C0F814115749102008668A
S214403F70C1F8900048654862C1F880000C6F044361
S214403F800C674C6F04434C6748604FF0805119668D
S214403F90C3F8901059655962C3F88010186F20F026
S214403FA080501867586F0843586759604FF0007143
S214403FB01966C3F8901059655962C3F88010186F97
S214403FC008431867586F0843586759604FF0804158
S214403FD01966C3F8901059655962C3F88010186F77
S214403FE020F080401867586F0843586759604FF074
S214403FF000411966C3F8901059655962C3F880109D
S214404000186F20F000401867586F0843586759608B
S2144040104FF080611966C3F8901059655962C3F82D
S2144040208010186F20F080601867586F08435867F4
S21440403059604FF000611966C3F89010596559628F
S214404040C3F88010186F20F0006018673EE000BF8D
S21440405050180E40FFFF3F0019414000010000018C
S2144040600D414000FFFF1F000100230612004000E4
S21440407013000020FFFF030014004020FFFF010054
S2144040801500442001000113160000400100000303
S214404090170000600100250318000070190000801A
S2144040A0FFFF0F001A0010A000ED00E001414000A5
S2144040B0000C0E400C08005A6946400000120E40A4
S2144040C0000E0E400080084000100E40586F084317
S2144040D0586759604FF480335361C2F8A030536636
S2144040E0C2F8903053655362C2F88030136F23F4A1
S2144040F080331367536F23F480335367F8BD00BF94
S214404100014B5860704700BF90ED00E0014BD8600F
S2144041101961704790ED00E0202809D90423202239
S21440412001335200904201D91E2BF9D958007047EE
S2144041300423FBE70AB9016670474166704742644C
S214404140B1F1C05F3AD013D8B1F1006F25D0B1F1CC
S214404150805F0AD1036F13430367436F416F0B4081
S21440416023EA02034367426070470029FBD1704749
S214404170B1F1205F21D009D8B1F1005FF3D1036FD0
S21440418013430367436F13434367ECE7B1F1405F64
S21440419013D0B1F1605F10D0E5E710B4016F046F43
S2144041A0D34321401C4619400167436F416F0B4083
S2144041B02340436742605DF8044B7047036F016FCE
S2144041C00B4023EA02030367436F13434367CAE780
S2144041D0416412F0010F0DD1016612F00A0F0BD0A8
S2144041E0016212F0020F09D112F0080F08D0C0F891
S2144041F0841005E04166F0E74162F2E7C0F88010BF
S21440420041610160704710B4019C41644CB901663D
S2144042104BB101654AB94163016101605DF8044BE9
S21440422070474166F4E74165F4E70163F4E712F04E
S214404230100F12D0C0F8B01012F0200F07D0C0F800
S214404240D41012F0400F05D0C0F8C0107047C0F828
S214404250D010F6E7C0F8C4107047C0F8B4107047E6
S2144042600164704741647047C06C7047806C70470B
S21440427070B582B00D46464C04EB5014640201F013
S214404280F043B3F1005F59D00AD8B3F1805F2FD026
S214404290B3F1C05F3FD0B3F1006F16D0002012E0FC
S2144042A0B3F1405F5DD0B3F1605F5AD0B3F1205FA9
S2144042B0F4D100F01F0101262A4606FA01F12046F5
S2144042C0344B9847304602B070BD00F01F000126C0
S2144042D0864032464FF0006120462F4B984715F0F7
S2144042E0010F02D126660120EDE766660120EAE767
S2144042F000F01F000126864032464FF0805120468F
S214404300254B984715F0010F02D126660120DAE7C3
S21440431066660120D7E700F01F0001268640324639
S2144043204FF0C05120461C4B984715F0010F02D164
S21440433026660120C7E766660120C4E700F01F0036
S2144043400126864032464FF000512046124B984791
S21440435015F0010F02D126660120B4E766660120FB
S214404360B1E705F0605200F01F01012605EA06039A
S2144043700093C5F38003B2F1605F14BF00220122B0
S21440438006FA01F12046054CA04730469BE700BFA1
S21440439007072000D14140003F414000074240000F
S2144043A02DE9F041044688460E4B98470546204680
S2144043B00D4B9847054013D00C4C04F1600603E0C3
S2144043C0B4420DD010345DB120684045F8D16168E4
S2144043D02942F5D0E3689847636825EA0305EFE786
S2144043E0BDE8F081694240006D4240006C0A4020C2
S2144043F0F8B5184C2668062E2AD84FF0000C6446AE
S214404400154F04E00134E4B2A446A64209D3A646BA
S21440441025017D598D42F5D107EB04156D6895420F
S214404420F0D10D4D4FEA0E1E05EB0E0445F80E106A
S2144044306260A3600699E1600136664505D0114684
S2144044401A46064B98470020F8BD02490E60F6E72C
S2144044500120F8BDDC0A40206C0A40202F42400074
S21440446008B50A210148024B984708BD000E0E4089
S214404470A143400008B50B210148024B984708BDB0
S21440448000100E40A143400008B50C210148024BE5
S214404490984708BD00120E40A143400008B51021C1
S2144044A00148024B984708BD00140E40A143400007
S2144044B008B511210148024B984708BD00160E402A
S2144044C0A1434000F8B506460D461446174B98479C
S2144044D007464FF0FF313046154B98473046154B50
S2144044E098475FFA85FE0EF01F03012202FA03F397
S2144044F06809114901EB8002C2F88030C2F8803169
S214404500002D0ADB6401E4B20C4A545541F82030D1
S214404510394630460A4B9847F8BD0EF00F0E6401F8
S214404520E4B2084A02F80E40F0E700BF6D42400091
S214404530654240006942400000E100E000E400E0DF
S2144045406142400014ED00E0032811D0042812D048
S21440455002280CBF4FF480710021084A136B23F4E5
S21440456040730B431363936E13F0080FFBD07047F2
S2144045704FF44071F1E74FF40071EEE700060E404D
S214404580174A136B23F0700318431063936E13F0AF
S214404590080F0AD14FF4805311498A6E12F0080F63
S2144045A003D1013BF9D1012070470D4A136B23F02C
S2144045B0030343F002031363936E13F0080F0AD10C
S2144045C04FF4805306498A6E12F0080F05D1013B1E
S2144045D0F9D101207047002070470020704700BF87
S2144045E000060E40A0B90E48036A090289B20D4A79
S2144045F01A400D4B1343194301620246936E13F063
S214404600010FFBD0064A116A084B0B4313627047F2
S21440461003490B6A064A1A40064B13430B6270471F
S21440462000060E40FCFFC8FF0100370000003701BF
S214404630FCFFC8FE02003701024B986E00F4803043
S214404640704700BF00060E404FF00052014B9A6282
S214404650704700BF00060E40024B986E00F0020006
S214404660704700BF00060E403F281ED81F280CD8B3
S214404670114B9A6901238340934318D0012303FAD0
S21440468000F00D4B18610020704720380A4BD3F8D5
S21440469008210123834093430BD0012303FA00F003
S2144046A0054BC3F8000100207047012070470020EA
S2144046B070470020704700BF00060E4008B5074B05
S2144046C0984203D0064B984204D008BD1520054BAF
S2144046D0984708BD2A20034B9847F6E700800040DD
S2144046E00080054069464000436823F470234360D9
S2144046F04368090401F4702119434160704710B4BF
S21440470043F69923046914F0010F03D1013BF9D114
S214404710012009E08368406810F0020F02D0C3F31E
S214404720034010700B8000205DF8044B704730B497
S21440473043F69924056915F0020F03D1013CF9D1DF
S21440474001200CE0446814F0020F06D0120402F474
S214404750702211430BB141F08071C160002030BC23
S214404760704732B900EB8100036B23F0010303630B
S214404770704700EB8100036B43F00103036370470F
S21440478032B900EB8100036B23F0020303637047EA
S21440479000EB8100036B43F002030363704700EBBA
S2144047A081010B6B23F0F0030B630B6B1A430A6318
S2144047B07047431E1944B1FBF0F0431EFE2B94BFD6
S2144047C000B24FF0FF3070477AB110B4144600EB99
S2144047D081010B6B23F47F430B630A6B42EA04228E
S2144047E00A6300205DF8044B70474FF0FF30704777
S2144047F010B400EB8101086B80B208630C6B44EA8E
S214404800036343EA02430B635DF8044B7047436916
S21440481013F0020F02D0C16100207047012070479C
S214404820436913F0010F03D083690B700020704773
S2144048300120704710B40B01934214D9C9004B08AD
S21440484003EBC202B2FBF1F2D3085C1E4FF6FE71D8
S2144048508C4201D9012017E0416841F400214160B3
S2144048600CE0012010E0590801EBC202B2FBF3F263
S214404870D3085C1E4FF6FE718C42F2D8120402F446
S214404880E0221A43026200205DF8044B70470000A5
S214404890084BC0F8E43000234360436283628823B9
S2144048A00360242303604FF4807303604FF40023B7
S2144048B0036070470041535570B505460C46164692
S2144048C00F4B984700220F4B1A60A4B1324621681E
S2144048D028460D4B9847024678B96368A1680B4353
S2144048E021690B43E1680B4306490B6069680B433B
S2144048F06B60104670BD0122FBE70122F9E700BF5E
S21440490091484000E00A402035484000402303607C
S2144049107047102303607047436913F0020F04D0BA
S214404920C1F30801C1610020704701207047436908
S21440493013F0010F05D08369C3F308030B60002012
S214404940704701207047FEE700B583B0254B264AE6
S2144049509A4210D0254B234A9A420CD2013B9B1ACE
S21440496023F00303043313441F4951F8040B42F861
S214404970040B9A42F9D11E4B1E4A9A420AD2013B78
S2144049809B1A23F0030304331344002142F8041B0C
S2144049909342FBD1184A194B23F07F039360EFF301
S2144049A01083B3FA83F35B09019372B6BFF35F8F4C
S2144049B00022134B1A700199124A136843F470038D
S2144049C01360BFF34F8FBFF36F8F29B101220C4B9B
S2144049D01A70BFF35F8F62B60B4B98470B4B9847E6
S2144049E0FEE700BF00004020ECC64000EC09402037
S2144049F05C174020EC09402000ED00E0000040003D
S214404A003800402088ED00E07D5140002D4F4000AA
S214404A103B4B1B6B03F00303012B1DD083B1022BD2
S214404A2036D0374B1B6B03F07003702B5FD0344B84
S214404A301A6B3449C2F302120B68D3400B607047BE
S214404A40314B5B6913F0800F14BF4FF400424FF4B4
S214404A50FA422C4B1A60E4E7294B1B6A13F0807F1E
S214404A6003D02A4A274B1A60DBE7294A254B1A60AF
S214404A70234B1B6A03F07003102B05D0202BD0D19C
S214404A80224A204B1A60CCE7224A1E4B1A60C8E7DF
S214404A901B4B1B6A13F0807F16D01C4A194B1A60BA
S214404AA0174B1B6B03F00303022BBAD1144A916ACF
S214404AB0926A1448C1F30A41036801FB0333D2B239
S214404AC0B3FBF2F30360ACE7114A0E4B1A600C4B93
S214404AD01B6A03F07003102B05D0202BE0D10B4A45
S214404AE0084B1A60DCE70B4A064B1A60D8E7054AC3
S214404AF013680949A1FB03135B081360704700BFA6
S214404B0000060E403C00402010180E40001BB70028
S214404B1000093D0000127A00ABAAAAAA124B98429E
S214404B2011D9124B984213D9114B984214D9114BB4
S214404B30984215D9104B984294BF4FF004220F4A22
S214404B400F4B1A6070474FF080620D4B1A607047EB
S214404B500C4A0B4B1A6070470B4A094B1A60704759
S214404B600A4A074B1A607047FF2C3101FF59620210
S214404B70FF869303FFB3C404FFE0F5050005000479
S214404B80000C0E4000010004000200040003000474
S214404B900A4B1B6853B1094B1B681A1808499142C7
S214404BA008DB1046054A106018467047054A034B16
S214404BB01A60F0E74FF0FF30704700BFE40A40202D
S214404BC0FCFF4520603940204FF0FF3070474FF4DF
S214404BD000534B600020704701207047002070470C
S214404BE070B51446062943D007293DD0052900D084
S214404BF070BD2E4D40F2B452002128462C4B9847AB
S214404C002C4B2D4A2D4928462D4DA8470CB394F9D8
S214404C100130002B1DDB2B482B4B9847234C20465E
S214404C202A4B98472A4D002382B2214695F9000028
S214404C30284EB04740F2B4563246002120461C4B20
S214404C40984700233246244995F90000234CA04754
S214404C5070BD23481C4B98471D4C94F90000214BCF
S214404C609847FF23237070BD1F48174B984770BD69
S214404C701AB1B2F90430002B0ADC1C48124B984794
S214404C80134C94F90000174B9847FF232370AFE767
S214404C90174B19680131196016480B4B9847B4F901
S214404CA0042000212068024B984770BDEC0A402043
S214404CB0F551400080C240009CC24000B0C2400057
S214404CC0ED534000B8C24000CD5140004154400032
S214404CD040004020CD394000A0104020693A4000B6
S214404CE0D8C24000093B4000F4C2400038C34000F0
S214404CF0E80A402010C3400010B582B02C2803D0EC
S214404D0032281BD002B010BD0B78012B10D0002BE0
S214404D10F8D11148114B98470022114B1A70FF23C7
S214404D200093104B02220A210F48104CA047E9E797
S214404D300F480A4B98470F4B9847E3E70122084B2A
S214404D401A708B784A780878C978009101460A48E4
S214404D50024CA047D6E700BF8CC34000CD51400070
S214404D6054164020C8C34000D4C34000AD23400082
S214404D7054C34000C9234000E0C34000F0B583B0B0
S214404D8005460C46002301932A4B984213D02A4BE3
S214404D90984218D0294B98421DD0294B9D4222D08C
S214404DA0284B9D4227D0284B9D422ED0274B9D42D4
S214404DB035D003B0F0BD1F46254E21463846B04795
S214404DC00028FAD1E9E71F46214E21463846B0472B
S214404DD00028FAD1E4E71F461D4E21463846B04724
S214404DE00028FAD1DFE71F46194E21463846B0471D
S214404DF00028FAD1DAE71E46164D01A93046A847E4
S214404E000028FAD1019B2370D3E71E46114D01A915
S214404E103046A8470028FAD1019B2370C9E71E46B2
S214404E200C4D01A93046A8470028FAD1019B2370B3
S214404E30BFE700BF00080E40000A0E40001A0E40B2
S214404E40001C0E40004002400080024000C002406D
S214404E50214840002F49400070B50C462A4B9842E6
S214404E6013D02A4B984219D0294B98421FD0294B31
S214404E70984225D0284B98422BD0284B984231D088
S214404E80274B984237D0002070BD1E46254D214600
S214404E903046A8470028FAD1012070BD1E46214D55
S214404EA021463046A8470028FAD1012070BD1E464C
S214404EB01C4D21463046A8470028FAD1012070BD37
S214404EC01E46184D21463046A8470028FAD10120F4
S214404ED070BD1E46144D21463046A8470028FAD1DC
S214404EE0012070BD1E46104D21463046A84700287A
S214404EF0FAD1012070BD1E460B4D21463046A847CC
S214404F000028FAD1012070BD00080E40000A0E406D
S214404F10001A0E40001C0E40004002400080024036
S214404F2000C002400F484000194940002DE9F041BA
S214404F30ADF51E7D5F4B98475F4B98470E205F4E02
S214404F40B0475F4D5F4B1D605F4A604B1A60604ADA
S214404F50604B1A604FF4E1330293C02303934FF43F
S214404F60006304930024059406940E20B0475A4AE2
S214404F7002A92846594B98472846594B98472846F1
S214404F80584B9847584E336821469868574DA8471F
S214404F90336821465868A8475548564B9847564B5D
S214404FA098470223ADF8503249F21F13ADF85232FB
S214404FB0524B959399949A949B949C949D94504B61
S214404FC0989398A84F4B984720B101464E48494B76
S214404FD09847FEE74D4B984700214D484D4B984724
S214404FE0FF2300934C4B02220A214C484C4CA047CE
S214404FF001224C4B1A70BFF35F8F62B64A4B9847FC
S2144050004A483C4CA0474A48A0474A4E4A4D0AE0C8
S2144050102846A0474948A0474FF00008484F40461A
S214405020B8470228FBD10020B0470128F0D000281E
S214405030F9D144482F4B98474FF40C72002108A8EA
S214405040414B984708A90020404B98470B2806D06C
S2144050503F48284B98473F4D3F4C404E0BE00B2176
S2144050603F48244B9847F3E73E48224B984702E098
S2144050703D48204B98470020A8472378012BFAD17B
S21440508096F90030002BF6DA002201210220374B39
S214405090984730700028E7DB102294A9344B984795
S2144050A00028E5D03348134B984796F90000324B1A
S2144050B09847E0E76D3C4000693D40006946400047
S2144050C00080024054174020594E40005017402060
S2144050D07D4D40004C17402080D1F008B948400034
S2144050E00D49400013494000440040209152400082
S2144050F0BCC04000CD51400015124000C0A8016819
S214405100F94C4000552040001CC140000538400086
S214405110E14B400049384000C8C34000D4C340007B
S214405120AD234000380040205D03400044C14000AD
S21440513074C14000310C4000A4C14000B8C14000DA
S21440514089034000E0C14000F55140007511400021
S2144051500CC24000512140005416402040004020E0
S214405160FCC1400014C2400070C240005D384000A0
S2144051703D39400048C24000093B400070B50F4EE4
S2144051800F4D761BB61018BF002405D0013455F8D5
S214405190043B9847A642F9D10A4E0B4D761B07F0C2
S2144051A08FFAB61018BF002406D0013455F8043BD9
S2144051B09847A642F9D170BD70BD00BFCCC640002E
S2144051C0CCC64000D4C64000CCC640000FB400B5A4
S2144051D0074983B004AB086853F8042B81680193F1
S2144051E001F002FC03B05DF804EB04B0704700BF6A
S2144051F04400402070B4860746D0541E002A41D052
S214405200CAB2034602E014F1FF343BD303F8012B45
S2144052109D07F8D1032C2ED9CDB245EA05250F2C93
S21440522045EA054519D903F110022646103E0F2ED1
S21440523042F8105C42F80C5C42F8085C42F8045CA9
S21440524002F11002F2D8A4F1100222F00F0204F08C
S2144052500F041032032C13440DD91E462246043A3E
S214405260032A46F8045BFAD8221F22F003020432CF
S214405270134404F003042CB1C9B21C4403F8011BC8
S2144052809C42FBD170BC704714460346C2E700BF41
S21440529000290CBF022200224FF4806300F000B8C1
S2144052A02DE9F043504C256883B004460F4690469F
S2144052B01E4615B1AB6B002B77D0B8F1020F04D069
S2144052C0B8F1010F7DD8002E7BDB2146284603F03F
S2144052D095FA216B41B104F14003994202D0284629
S2144052E003F0F6FB00232363B4F90C300022A261DE
S2144052F062601A0652D423F44A6323F00303B8F1DB
S214405300020FA38137D001AB6A462146284603F0F8
S21440531083FEA3891843A08116B317B3AB6B002B4B
S2144053204BD0009B27609E42B4F90C3027611CBFCF
S21440533043F40063A381B8F1010F04BF43F00103B7
S214405340A3819BB213F00800666123D013F00100DE
S2144053502FD000207642A661A06003B0BDE8F0835F
S214405360009E304603F0CAFE074668B3A38943F062
S2144053708003A381D2E7002004F1430243F00203F6
S21440538000250121A381A56022602261616103B0EE
S214405390BDE8F083A06003B0BDE8F08321692846ED
S2144053A003F096FBB4F90C30A5E7284603F0BAFAAA
S2144053B083E7A66003B0BDE8F083284603F0B2FA60
S2144053C0AFE74FF0FF30E2E7DDF80090B14506D09A
S2144053D0484603F093FE074608B14E46C6E7B4F982
S2144053E00C304FF0FF30C7E7440040200EB4F0B515
S2144053F09CB021AB0F4953F8042B019305466FF040
S2144054000044086802954FF402774FF6FF7602A9EB
S2144054100695ADF8147004940794ADF8166000F045
S2144054207DF8029B00221A701CB0BDE8F04003B025
S214405430704700BF4400402000000000000000000D
S21440544090F800F06DE9024520F007016FF0000C7F
S21440545010F0070491F820F040F049804FF0000427
S2144054606FF00700D1E9002391F840F000F1080002
S21440547082FA4CF2A4FA8CF283FA4CF3A2FA8CF33A
S2144054804BBBD1E9022382FA4CF200F10800A4FAA1
S2144054908CF283FA4CF3A2FA8CF3E3B9D1E90423F5
S2144054A082FA4CF200F10800A4FA8CF283FA4CF32C
S2144054B0A2FA8CF37BB9D1E9062301F1200182FAE6
S2144054C04CF200F10800A4FA8CF283FA4CF3A2FAEC
S2144054D08CF3002BC6D0002A04BF04301A4612BAFA
S2144054E0B2FA82F2FDE8024500EBD2007047D1E9FD
S2144054F0002304F00305C4F100004FEAC50514F08C
S214405500040F91F840F00CFA05F562EA05021CBF5C
S21440551063EA050362464FF00004A9E72DE9F04F21
S214405520C3B00C460B9192460F930C9003F066FD69
S21440553003681A931846FFF783FFA3891990190644
S21440554003D52369002B01F0018000230DF1C80923
S2144055501393149315932793269318931B930993A9
S214405560CDF89490C846169317939AF80030544650
S214405570E3B1252B02D119E0252B03D014F8013FC7
S214405580002BF9D1A4EB0A0585B1269B279AC8F8CB
S21440559000A001332A44072BC8F8045027922693CC
S2144055A07FDC08F10808099B2B4409932378002BDD
S2144055B07FD000231A468DF8773019460D939B46C8
S2144055C04FF0FF3063780A9004F1010A0AF1010AAD
S2144055D0A3F12000582800F2C083DFE810F038021C
S2144055E0BE03BE034002BE03BE03BE03BE03BE03ED
S2144055F0BE0345020302BE035D006B02BE03860285
S2144056009C039C039C039C039C039C039C039C035D
S2144056109C03BE03BE03BE03BE03BE03BE03BE035F
S214405620BE03BE03BE0337035703BE035703BE0382
S214405630BE03BE03BE039703BE03BE03AC03BE0356
S214405640BE03BE03BE03BE035902BE03BE031E0313
S214405650BE03BE03BE03BE03BE03BE03BE03BE03FD
S214405660BE03BE03C602DB025703570357038B0233
S214405670DB02BE03BE039002BE039D02CC01B40211
S2144056800802BE03E101BE037E00BE03BE030D0258
S2144056900D980F9340420D904BF0040B9AF8003053
S2144056A094E725AA0B990C9804F042FE40B9C846E8
S2144056B079E7279B23B10C980B9925AA04F038FE6E
S2144056C00B9B9B8913F0400F099B18BF4FF0FF338D
S2144056D00993099843B0BDE8F08F1BF0200F119353
S2144056E040F0DD810F9A1BF0100F134640F06C859A
S2144056F01BF0400F00F06885148804320025012313
S2144057000F9200278DF877700A994A1C00F0658240
S2144057102BF08002079254EA050240F0648200298A
S21440572040F03984002B40F0D4841BF001030E93E4
S21440573000F0028642AE302306F8413D0A9B0E9AA0
S2144057409342B8BF134608930023129317B1089BA1
S21440575001330893079B13F00203109302D0089B73
S21440576002330893079B13F0840540F00D830D9B8E
S214405770089AA3EB020BBBF1000F40F30583BBF185
S214405780100F279C269A29DD43462146A846102717
S2144057900C9C0B9D06E0ABF1100BBBF1100F03F118
S2144057A0080318DD0132B74826921031072A2791A0
S2144057B083E88100EFDD25AA2946204604F0B8FD9F
S2144057C000287FF47DAFABF1100BBBF1100F27998B
S2144057D0269A4B46E6DC45460C4698460132A94B8F
S2144057E026925C44072A279488E8080800F39584A4
S2144057F09DF8777008F1080877B1269B013301348D
S2144058000DF177010122072B2794269388E806009E
S21440581000F3D88308F10808109B6BB1269B013330
S21440582002341EA90222072B2794269388E80600F6
S21440583000F3D38308F10808802D00F013830A9BF9
S2144058400E9A9F1A002F36DD102F269B8E4D27DD91
S21440585042462146B0464FF0100B2E460C9C0B9D00
S21440586004E0103F102F02F1080215DD013310311D
S214405870072B2791269382E84008F2DD25AA294681
S214405880204604F055FD00287FF41AAF103F102F35
S2144058902799269B4A46E9DC35460C4646469046BE
S2144058A001333C44072B2794269388E8A00000F356
S2144058B07E8308F10808079BDF0500F16782269B78
S2144058C00E99C8F8006001330C44072B2794C8F89B
