:020000040040BA
:10000000984F4020CD684000C9684000C968400052
:10001000C9684000C9684000C9684000000000008D
:10002000000000000000000000000000C96840005F
:10003000C968400000000000C9684000C96840006D
:10004000C9684000C9684000C9684000C9684000EC
:10005000C9684000C9684000C9684000C9684000DC
:10006000C968400000000000B9634000CD63400053
:10007000E1634000C9684000C9684000C9684000A9
:10008000F563400009644000C9684000C968400049
:10009000C9684000C9684000C9684000C96840009C
:1000A000C9684000C9684000C9684000C96840008C
:1000B000C9684000C9684000C9684000C96840007C
:1000C000C9684000C9684000C9684000C96840006C
:1000D00000000000C968400000000000C96840003E
:1000E000C9684000C9684000C9684000C96840004C
:1000F000C9684000C9684000C9684000C96840003C
:10010000C9684000C9684000C9684000C96840002B
:10011000C96840000000000000000000000000006E
:10012000C9684000C9684000C9684000C96840000B
:10013000C968400000000000C9684000C96840006C
:1001400010B5054C237833B9044B13B10448AFF311
:1001500000800123237010BDE4084020000000004F
:1001600078F94000084B10B51BB108490848AFF3B7
:1001700000800848036803B910BD074B002BFBD073
:10018000BDE81040184700BF00000000E80840200C
:1001900078F9400078F940000000000010B5074BE6
:1001A000196891F82230003318BF01234A7C09688E
:1001B00003480078034CA04710BD00BF040940204D
:1001C0000A0940208111400010B5002854D1334B5A
:1001D0009A68334B03EB52135B02D96B02F01F0298
:1001E000012303FA02F20A420ED02C4B9B7B012B17
:1001F00005D12C4B1B7813B100222B4B1A60042223
:10020000264B9A73022010BD244B9B7B042B15D1E7
:100210000122224B9A73244B1B683BB9214B1A7065
:10022000214B224959601A60022010BD00221D4B4B
:100230001A701F481F4B9847022010BD012B0BD18D
:10024000184B1B78F3B1184B1B6813F4803F15D083
:100250000022154B1A6015E0032B11D00022164B1B
:100260001A700E4C154B1C60154B9847A07B02284A
:1002700014BF0020012010BD042010BD022010BDBD
:10028000032010BD054B02229A730E4A1A60012208
:100290005A74002283F82220E0E700BF0C004020BF
:1002A000070720000209402010E000E060343C0213
:1002B0006BAF0303010040200A09402004094020DD
:1002C0009D014000801A060038B5049C520242EAA3
:1002D000C36343EA017141EAC0702178014341F2EE
:1002E0003430044B9847054610B1034B98472070B3
:1002F000284638BD4D1240007112400010B5084B21
:100300001B689989090441F60930064B9847044651
:1003100020B1034B18681230034B9847204610BD9C
:10032000040940204D1240007912400008B5034BEB
:100330001B7813B90020024B984708BD0A094020DA
:100340002512400008B51020054B98470422054BA4
:100350009A73FF22044B1A70044B984708BD00BFE4
:10036000C96540000C0040200A09402045114000AA
:100370002DE9F04194B0A84B9847012805D00446D8
:10038000A64B9847204600F014BC14AD082305F88E
:10039000453DA34B1B680126DE7300241C749C8121
:1003A000A04B9847009523460622214630469E4D95
:1003B000A84721464FF480409C4B9847002800F006
:1003C000AB834FF4D57145F20850984B98470028FD
:1003D00000F0AA83964B9847B0F1FF3F00F0A78347
:1003E000C0F30B00B0F5D57F40F09683B046A0E394
:1003F0008F4B984710F0E04F00F0A38341F289340F
:1004000044F20556894D8A4F00F4FC113046A84746
:10041000002800F08183B847002802DB013CF3D1BB
:100420007AE310F0006F04D07D4B1B680522DA736D
:100430008EE37B4B1B680422DA7361E1414641F293
:100440003710A847002800F09083314644F2295025
:10045000A847002800F08983B84700280ADA10F07E
:10046000804F00F08E836E4B1A68D37B43F00803F5
:10047000D37386E3013CE1D177E341F269046D4E29
:100480006A4D6B4F314644F20150A847002800F0F6
:100490004383B84700280CDA00F0C040B0F1804F29
:1004A00040F077835E4B1A68D37B43F00803D37325
:1004B0006FE3013CE6D12FE3594B1B6801229A817F
:1004C0004FF4803141F20310584B9847002800F058
:1004D0002383594B9847002800F01E83504B19681E
:1004E0008B7CC3F38303013B032B03D8DFE803F0CA
:1004F00005080B0E12230B740AE014230B7407E09B
:1005000022230B7404E030230B7401E040230B74AE
:100510004B7DC3F3C30003F00703484A52F823207E
:100520004FF47A7303FB02F3454A52F8202003FB91
:1005300002F30B60887E4B7E0A7E920242EA8303BE
:1005400043EAA013C3F30B0340F6FF7293420FD0AC
:10055000087FCA7E520042EAE012013302F007022D
:1005600002329340CA7D02F00F0293409B0A4B6017
:100570008989090443F207102C4B9847002800F0A2
:10058000CB82274B1B681B7C3F2B40F29D800021B8
:10059000009101234FF400722A482B4CA0470028F9
:1005A00000F0BA820024294D03A8A847002800F0D3
:1005B000B3820134A4B2322CF6D1039B03F00203C0
:1005C000DDB2174B1A68917E537E127E920242EA88
:1005D000830343EAA113C3F30B0340F6FF72934274
:1005E0000ED11A4E04A8B047002800F095820134BD
:1005F000A4B2352CF6D90A4B1A68049B5B085360E9
:10060000124E06E004A8B047002800F085820134AD
:10061000A4B27F2CF6D9C4E2C90140002D034000EA
:100620000409402029124000C90240004D12400038
:100630007112400000801F40FD024000ACDE40000F
:10064000C8DE400008110800A912400071134000E4
:10065000A44B1878A44B98470446042805D0A34916
:10066000A34B082808BF194600E0A24943F2061030
:10067000A14B9847002800F04F82A04B984710F0FC
:10068000800F40F049829E4B1B685C749D4B9847DD
:100690009D4B984705B3F8B19C4943F20610964B21
:1006A0009847002800F03882944B984710F0800F4C
:1006B00040F03282924B1B68012283F82220944A38
:1006C0001A60904B984707E08E4B984704E03946F4
:1006D0003046A84738B117E20A244FF4007741F2B8
:1006E0001016854DF3E7013C14F0FF04EFD113E23F
:1006F000002145F60230804B9847002800F00C821C
:10070000002145F203107C4B9847002800F004823A
:100710007B4C2568794B9847000CA8812368DB7BCC
:1007200013F0010F41D07B4B9847002800F0F48173
:1007300023685A7DC2F3C30002F00702764951F8DC
:1007400022104FF47A7202FB01F2744951F8201022
:1007500002FB01F21A609A7C92090CD0DA7E987E34
:10076000597E090441EA00210A43C2F3150201320D
:1007700052025A6019E0987E5A7E197E890241EA37
:10078000820242EAA012187FD97E490041EAE011B4
:10079000C2F30B02013201F0070102318A40D97D18
:1007A00001F00F018A40920A5A60554B1B689989E3
:1007B000090443F20710504B9847002800F0AC8121
:1007C0004F4B1B68DA7B12F0010F40D09989090466
:1007D00041F23710484B9847002800F09D810123D3
:1007E0000093082200214E484E4CA047002800F0FC
:1007F0009381012104A84C4B9847002800F08C817C
:100800004A4B9847002800F087819DF8103003F08C
:100810000F03012B08D013B1022B0AD013E0384B81
:100820001B6810221A7412E0354B1B681A221A74C6
:100830000DE09DF81230DB09314B1B6814BF3022EC
:1008400020221A7403E02E4B1B6810221A742C4BC2
:100850001B68DB7B13F0040F00F093800924002653
:10086000334DA4F1090303AA1344009333462246EF
:1008700031463046A84701340D2CF2D19DF80D20A9
:100880009DF80C3003EB02239DF80E8003EB084328
:100890009DF80F8003EB08684546254F0024264647
:1008A00004AB2344009333462A1931463046B847F7
:1008B0000134032CF4D19DF81030FF2B00F02C8173
:1008C000222B02D19DF81230A3B39DF81130002BDA
:1008D00000F0228102331D4408F580739D42DDD96A
:1008E0001AE100BF0A094020711140000000B70161
:1008F0000002B7010001B7014D1240007112400023
:10090000040940209D0140007D1140000001B90311
:1009100000751903FD024000ACDE40006CDE4000B3
:1009200033110800A9124000E5134000991440005B
:10093000C902400004AC05F1060800279E4E009451
:100940003B462A4639463846B047013501344545CD
:10095000F5D19DF81530322B28BF3223974A126803
:10096000C3F3C30003F00703954951F823104FF474
:100970007A7303FB01F3934951F8201003FB01F351
:100980001360914B1878914B9847032842D98B4BB1
:100990001B68DB7B13F0040F1FD004AB0093002314
:1009A000082219461846844CA047002800F0B4805D
:1009B0009DF91030002B10DA14AB022203F8402D01
:1009C00000930123072200211846A047002800F0C9
:1009D000A3807A4B1B6804225A74784B1B68DA7B1D
:1009E00012F0010F14D09989090441F23710784BA5
:1009F0009847002800F09080022141F20610744BC5
:100A00009847002800F088806C4B1B6804225A74B9
:100A1000704B9847704B9847002868D0674B1B680D
:100A2000DB7B13F0040F22D004AB009300231322CE
:100A300019461846604CA04700286DD09DF810302C
:100A400013F0010F13D014AB022203F8402D0093D2
:100A50000123132200211846A04700285CD0574BE1
:100A60001B68012283F822201A6852001A60534B37
:100A70001B68DA7B12F0010F37D01B7C102B34D9A6
:100A800040242246002104A8544B98470123009398
:100A9000224653495348544CA04700283CD00121DA
:100AA00004A8524B9847002836D0514B984700284D
:100AB00032D0504B984710F0800F2DD19DF8203048
:100AC00003F00F030F2B10D09DF82D309DF82C2034
:100AD00053EA022320D1484B9847384B1B68012228
:100AE00083F822201A6852001A603A4B9847334B19
:100AF0001B68DB7B13F0010F06D04FF4007141F24D
:100B00001010334B984738B12C4B1B6800229A7356
:100B10003A4B984701204CE0284B1B6803249C73F8
:100B2000364B9847204644E04FF0000801E04FF074
:100B30000008002144F20550254B984700287FF417
:100B400057AC1E4B1B68DB7B13F0010F3FF4D8AD95
:100B5000B8F1000F2A4E08BF4FF4FC1640F63504DA
:100B60004FF000081A4D234F68E4144B1B68022213
:100B7000DA7300214FF48040154B98470028CBD002
:100B80007BE40E4B1B68DB7B13F0010F7FF4B0ADF1
:100B9000B6E5002145F602300D4B98470028BBD042
:100BA0008AE4094B1878094B984703283FF650AD63
:100BB0006EE514B0BDE8F081C90240000409402090
:100BC000ACDE40006CDE40000A094020711140009C
:100BD0004D1240009D0140007D114000217D4000EC
:100BE00001FFFF8006110800A9124000E513400034
:100BF0009914400071124000291240002D0340005A
:100C000000801F4008B5054B984728B9044B98470A
:100C1000044B1B68D87B08BD002008BDC9014000FB
:100C20002D0340000409402008B5054B984728B91A
:100C3000044B9847044B1B68586808BD002008BD4A
:100C4000C90140002D0340000409402000207047E6
:100C50002DE9F04383B089469046254B98470028FC
:100C600031D1244C244E254D254F336899890904F0
:100C700041F20D10A84738B3B84710F4807F27D150
:100C8000013CF2D120E04FEA492901230093434679
:100C90004FF4007249461B4CA04718B91A4B9847AD
:100CA000052022E0164B9847184B03401BB1164B0A
:100CB0009847052019E0164BA3F80080154BA3F8C0
:100CC0000080002011E010E00F4B984705200CE059
:100CD0001148124BB8F1010F88BF1846064B1B682C
:100CE000DB7B13F0080FD0D1CDE703B0BDE8F08374
:100CF000C9014000410D0300040940204D1240008D
:100D000071124000A91240002D034000000058E479
:100D1000080940200009402011110800121110009C
:100D200010B50C46064B984720B90022054B1A8097
:100D3000052010BD034A13881C1B1480002010BD21
:100D4000E51340000809402010B50446124B9847AF
:100D5000F0B11CB10022114B1A8002E00F4B1B882E
:100D6000C3B90F4B1B88012B03D10E4B98470020B2
:100D700010BD002143F20C100B4B984720B9002105
:100D800043F20C10084B9847064B9847002010BDC3
:100D9000052010BD002010BD991440000809402016
:100DA000000940202D0340004D12400030B583B0B3
:100DB0000D461446164B984738BB1648164B012C67
:100DC00088BF1846154B1B68DB7B13F0080F08BF64
:100DD0006D020123009323464FF400722946104D03
:100DE000A84718B90F4B984705200EE00E4B9847BF
:100DF0000E4B03401BB10B4B9847052005E00C4BF5
:100E00001C800C4B1C800020FFE703B030BD00BFEE
:100E1000C9014000189108001991100004094020F0
:100E2000A91240002D03400071124000000058E458
:100E3000080940200009402010B50C46064B984791
:100E400020B90022054B1A80052010BD034A1388E3
:100E50001C1B1480002010BDF9144000080940201C
:100E600010B50446124B9847E8B11CB10022114B53
:100E70001A8002E00F4B1B88BBB90F4B1B88012B5C
:100E800003D10E4B9847002010BD002143F20C10F7
:100E90000B4B984718B9094B9847052010BD074BD5
:100EA0009847002010BD052010BD002010BD00BFD8
:100EB000AD15400008094020000940202D034000E6
:100EC0004D12400010B504460F4B9847012816D02C
:100ED00018B102280ED0012010BD0C4B1B5D83B948
:100EE00020460B4B984700F00300002814BF002059
:100EF000022010BD0022054B1A55022010BD032010
:100F000010BD022010BD00BF710340000C0940203D
:100F1000050C400008B50020014B984708BD00BFF4
:100F2000C50E400038B504460D46044B98474000B6
:100F3000013828602046024B984738BD290C4000F4
:100F4000C50E400008B501460020014B984708BD7A
:100F5000250F400008B50020014B984708BD00BF91
:100F60004D0C400010B5144601220A4B984720B1A1
:100F700002280CBF0220012010BD01212046064B93
:100F8000984728B9054B9847003018BF012010BD7D
:100F9000012010BD510C4000210D4000490D4000C2
:100FA00008B50A4601460020014B984708BD00BF1E
:100FB000650F400010B5144601220A4B984720B136
:100FC00002280CBF0220012010BD01212046064B43
:100FD000984728B9054B9847003018BF012010BD2D
:100FE000012010BDAD0D4000390E4000610E4000E3
:100FF00008B50A4601460020014B984708BD00BFCE
:10100000B50F400018B908B5024B984708BD01203C
:10101000704700BF150F400020B908B50846024BC5
:10102000984708BD01207047450F4000B0FA80F096
:101030004009704718B908B5024B984708BD012010
:10104000704700BF550F400028B908B50846114643
:10105000024B984708BD0120704700BFA10F400018
:1010600028B908B508461146024B984708BD01202B
:10107000704700BFF10F400070B44FF080435D68CF
:101080009C68D868D9695A6D80261E605D609C6036
:10109000D860D9615A6500221A6505221A6070BCB1
:1010A000704700BF08B501F03F03184311F4807F7B
:1010B0000CD011F4006F02D040F4845006E011F41B
:1010C000005F14BF40F4865040F4825011F4804F0A
:1010D00018BF40F400604FF080431A615861184611
:1010E00001F48052036C32B113F41F0F0AD0144B79
:1010F0009847002008BD13F41B0F03D0104B9847EE
:10110000002008BD13F0010FECD011F4005F0ED1E8
:10111000012008BD0B6C013A03D1094B9847002010
:1011200008BD03F03003202BF4D1012008BD4FF09F
:1011300080431B6C4FF0FF324FF08041F1E700BF5E
:101140007910400010B51220084CA0473A20A04763
:101150004FF0804372229A60DA6111225A654FF48F
:10116000E0625A6005221A6010BD00BFC9654000E8
:1011700000280CBF04200020704700BF01207047EA
:1011800010B433B14FF08040436D43F48073436536
:1011900005E04FF08040436D23F4807343651F4B9F
:1011A000B3EB410F2DD31E48B0FBF1F301FB13014C
:1011B00009B9023B00E0013B4FF08041486820F054
:1011C000FF0048604868C3F347042043486013F0B9
:1011D000010F04D04B6843F480334B6005E04FF0BF
:1011E00080414B6823F480334B60042A04D0082AE2
:1011F0000CBFC022002200E080224FF08043DA6062
:1012000008E04FF08043596821F0FF0159605968A8
:101210005960E4E75DF8044B704700BF7FD1F008E8
:1012200080D1F008704700BF4FF080435A6822F425
:1012300060525A6000221A614FF410625A611A46D5
:10124000136C13F0010FFBD0704700BF10B54FF0C7
:1012500080435A6822F460525A6000241C659C61E5
:101260000A4601462046014B984710BDA510400094
:101270004FF08043186A704710B4031D14304FF0CC
:101280008044226A110E03F8041C110C03F8031C9D
:10129000110A03F8021C03F8012C04338342F0D135
:1012A0005DF8044B704700BF70B59DF810402CB13D
:1012B0004FF480754FF08044256503E000254FF022
:1012C000804425654FF080456C6844F4C0546C60E0
:1012D00012F0030F04D06C6844F400546C6005E015
:1012E0004FF080456C6824F400546C6000F40044B6
:1012F000002C14BF4FF480344FF4A02410F4803F2E
:1013000007D044F40014C2F308054FF08046B561DD
:1013100018E043EA02454FF08046B56110F4003F03
:1013200002D044F420140DE010F4802F02D044F4D5
:10133000801407E010F4002F04D110F4801F18BFB0
:1013400044F400240026064D2E60064D2A80064AED
:1013500013800A4601462046044B984770BD00BFE3
:10136000140940200E09402010094020A51040001B
:1013700008B54FF08041164A0B6C134203D0154B51
:101380009847002008BD13F0020FF5D04FF08043BE
:101390001B6B0360104A1368043313600F4A1188F3
:1013A0000F4A128802FB01F293420ED34FF08041A4
:1013B000074A0B6C134203D0064B9847002008BD28
:1013C00013F0006FF5D0012008BD012008BD00BF5B
:1013D000000060C079104000140940200E09402030
:1013E00010094020F0B589B004460D4620220021A6
:1013F0006846214B9847214801230362204B1B88F4
:1014000005FB03F51F4B0393AB0800931E4B0193A1
:1014100002946A4600211D4B98471D4BD3F88070FB
:10142000C7F34E3607F0070E0EF1040EC7F3C907D7
:10143000B7FA87F000F01F00BFF34F8F1C463B4602
:1014400006FA0EF103FA00F20A43C4F87422013BD3
:10145000B3F1FF3FF6D1013EB6F1FF3FEFD1BFF34D
:101460004F8FBFF36F8F0120044BD861094B1A686F
:1014700015441D6009B0F0BD217D4000008007408B
:101480000E0940200130040000020040DD1640003B
:1014900000ED00E01409402070B5114B1A88114B83
:1014A0001B8803FB02F2104B1C684FF080400F4971
:1014B0000F4E036C0B4206D00E4B984701220C4B8B
:1014C0001A62002070BDA24203D9F56D15F0010F1C
:1014D00004D113F0006FECD0012070BD012070BD6D
:1014E0000E0940201009402014094020000060C06F
:1014F0000080074079104000F0B589B004460D46E1
:10150000202200216846214B98472148012303628D
:10151000204B1B8805FB03F51F4B0393AB0800937F
:1015200001941E4B02936A4600211D4B98471D4BA8
:10153000D3F88070C7F34E3607F0070E0EF1040E95
:10154000C7F3C907B7FA87F000F01F00BFF34F8F4A
:101550001C463B4606FA0EF103FA00F20A43C4F8B1
:101560007422013BB3F1FF3FF6D1013EB6F1FF3FDC
:10157000EFD1BFF34F8FBFF36F8F0120044BD861C2
:10158000094B1A6815441D6009B0F0BD217D40006B
:10159000008007400E094020115001000002004069
:1015A000DD16400000ED00E01409402070B5114B3D
:1015B0001A88114B1B8803FB02F2104B1C684FF07A
:1015C00080400F490F4E036C0B4206D00E4B9847DC
:1015D00001220C4B1A62002070BDA24203D9F56DA6
:1015E00015F0010F04D113F0006FECD0012070BD95
:1015F000012070BD0E094020100940201409402030
:10160000000060C0008007407910400030B4856859
:101610008468A54203D084688568A542FBD161B186
:10162000C4F3015000EB8005C4F3034000EB450018
:1016300014F4800F18BF0C30086042B1C4F30231BB
:1016400001EB8101C4F3032000EB4101116043B1C0
:10165000C4F3021202EB820204F00F0404EB420412
:101660001C6030BC704700BFF0B4049EC568C468FD
:10167000A54203D0C468C568A542FBD199B1C4F3A3
:10168000021000EB800504F00F0000EB4505C4F3E9
:10169000033000EB8000C4F3032707EB400064270E
:1016A00007FB0500086042B1C4F300518800014403
:1016B000C4F3034000EB4101116043B1C4F3017274
:1016C00002EB8202C4F3036101EB42021A6016B11D
:1016D000C4F342543460F0BC704700BF00EB81118A
:1016E000CB6D53680B6693684B66136823F07F439A
:1016F0000B671369C3F30B034B675369CB6793699C
:1017000023F07F43C1F88030D36923F07F43C1F8D1
:101710008430D3688B677047012813D810B504460E
:101720000B4B9847032804D12046094B98470328C0
:101730000AD058B92046074B9847002814BF042008
:10174000002010BD01207047012010BD012010BDF8
:10175000051040003510400008B5054B984720B1F2
:1017600002280CBF0320012008BD002008BD00BFD7
:10177000051040002DE9F04F83B083460D46144616
:101780001F46164B9847F0B1064601A95846144B20
:101790009847B04606FB0742019B03FB06639A424B
:1017A00013D8B9469FB176024FF0000A0D4F2A4672
:1017B00021465846B84760B90AF1010A4444354405
:1017C000CA45F4D106E0012004E0042002E0002034
:1017D00000E0012003B0BDE8F08F00BF2D104000F5
:1017E00019104000491040002DE9F04F83B08346A6
:1017F0000D4614461F46164B9847F0B1064601A900
:101800005846144B9847B04606FB0742019B03FB22
:1018100006639A4213D8B9469FB176024FF0000A88
:101820000D4F2A4621465846B84760B90AF1010AC9
:1018300044443544CA45F4D106E0012004E00420C4
:1018400002E0002000E0012003B0BDE8F08F00BFFF
:101850002D104000191040006110400010B582B0FA
:101860001446032924D8DFE801F01C060E020123E8
:101870001360002021E001A9114B9847019B01331F
:101880002360002019E00F4B9847082812D84FF426
:101890008B7323FA00F010F0010F0DD000202070A0
:1018A0000BE0094B984700280CBF0020032004E000
:1018B000042002E0012000E0012002B010BD00BFC2
:1018C000191040002D1040000510400030B58BB0BD
:1018D000114C07AB08AA09A92046104DA84703AB35
:1018E000009304AB05AA06A920460D4CA047049B13
:1018F0001B04059843EA4053099843EAC02308981B
:1019000043EA4013079843EA50030698A0F2BC70DC
:1019100043EA40600BB030BD60180E400D16400029
:10192000691640003AB101388A1811F8013B00F8F5
:10193000013F9142F9D1704722B1821800F8011B92
:101940008242FBD1704700BF02398369023B994252
:1019500004D28378806A01FB03007047002070473F
:1019600000F10B010023DA0142EA530310F8012BC6
:1019700052FA83F3DBB28842F5D11846704700BFB4
:1019800078B108B5027872B1C2888A420DD1407828
:10199000074B984700F00100002814BF03200020E7
:1019A00008BD09207047092008BD092008BD00BFF7
:1019B0005917400038B5044601230A4600F13001AA
:1019C00040781D4DA84780BB94F82F2294F82E3202
:1019D00043EA02231BB2194A934228D194F86910B2
:1019E00094F86820130443EA016294F866301343C4
:1019F00094F8672043EA022323F07F43104A93427E
:101A000017D094F8850094F884301B0443EA0060F2
:101A100094F88230034394F8830043EA002020F0D6
:101A20007F43981A18BF012038BD032038BD02201B
:101A300038BD002038BD00BF7517400055AAFFFF14
:101A400046415400F8B503681C78303C092C08D88E
:101A50005D783A2D07D102330360072C00F24A81EA
:101A600002E0002400E00024C14B53F824500D6034
:101A7000002D00F0418116462B7883B16878BD4B6C
:101A8000984710F0010F0AD1002E00F0378100F0C6
:101A90000400C0B200280CBF00200A20F8BD0023BB
:101AA0002B70E0B26870B44B984710F0010F40F013
:101AB00027811EB110F0040F40F024810021284638
:101AC000AE4B9847012817D195F8F231002B00F062
:101AD0001B8195F8F92195F8F8311B0443EA02635C
:101AE00095F8F641234395F8F74143EA042421464B
:101AF0002846A24B984700E00024032800F0068106
:101B0000002840F0058195F83C2095F83B3043EAE9
:101B100002231BB2B3F5007F40F0FC8095F847101C
:101B200095F8463053EA01210DD195F8572095F8E4
:101B300056301B0443EA026395F854100B4395F8A2
:101B4000551043EA0121E96195F840E085F803E08A
:101B50000EF1FF33DBB2012B00F2DE8095F83D3051
:101B6000AB70002B00F0DA805A1E1A4240F0D88089
:101B700095F8427095F8412042EA07272F8117F027
:101B80000F0F40F0CF8095F8440095F8432052EABB
:101B900000220DD195F8536095F85220120442EAC4
:101BA000066695F85020324395F8510042EA00222B
:101BB00095F83F6095F83E0050EA062000F0B480AA
:101BC00001FB0EFE00EB17167644B242C0F0AE8069
:101BD000921BB2FBF3F3002B00F0AA8040F6F572E3
:101BE00093428CBF022201224FF6F57C634500F23E
:101BF000A980E6E095F85F0095F85E20120442EABD
:101C0000006095F85C20024395F85D0042EA0022EE
:101C10006A629B0003F2FF13B1EB532FC0F08A807E
:101C2000B6E070446862022A01D15B0099E003EBE0
:101C3000430003F0010303EB500392E095F82F22D9
:101C400095F82E3243EA02231BB24D4A934241D10A
:101C500095F8332095F832301B0443EA026295F878
:101C60003030134395F8312043EA0223454A93422A
:101C700032D195F8172295F816321B0443EA026216
:101C800095F81432134395F8152243EA02233E4A8D
:101C9000934223D195F81F2295F81E321B0443EA84
:101CA000026295F81C32134395F81D2243EA022381
:101CB000EB6095F81B2295F81A321B0443EA026286
:101CC00095F81832134395F8192243EA02232B6141
:101CD000032204E0032202E0032200E003222A7030
:101CE0002A4A138801339BB21380EB800020E862FC
:101CF0002871F8BD0B20F8BD0C20F8BD0020F8BD00
:101D00000320F8BD0A20F8BD0D20F8BD0120F8BD64
:101D10000D20F8BD0D20F8BD0D20F8BD0D20F8BD3B
:101D20000D20F8BD0D20F8BD0D20F8BD0D20F8BD2B
:101D30000D20F8BD0D20F8BD0D20F8BD0D20F8BD1B
:101D40000D20F8BD0233AB612644AE622044286208
:101D5000002FF1D14EE74FF0FF332B610023EB60F2
:101D6000BDE703F2FF13B1EB532FE7D3F3E700BF57
:101D70001C0940205917400019174000B5194000B0
:101D800055AAFFFF52526141727241611809402009
:101D90004FF0FF332B610023EB606B7195F86120EE
:101DA00095F8603043EA022222446A61012305F17A
:101DB00030016878074CA04700283FF43FAF03226A
:101DC0008DE70233AB612644AE6220442862002FC7
:101DD000B6D026E7751740002DE9F047C76A8F4255
:101DE00031D00E46044603790BB300F130080123CD
:101DF0003A46414640781A4DA84738BB0023237124
:101E0000226AE36913449F4211D2E578012D0ED96D
:101E10004FF0010ADFF84890E3691F4453463A4601
:101E200041466078C847013DEDB2012DF4D186B13D
:101E30000123324604F1300160780A4DA84758B9B1
:101E4000E662BDE8F0870020BDE8F0870120BDE82C
:101E5000F0870020BDE8F0870120BDE8F08700BFD3
:101E6000E91740007517400001295DD9F8B583696D
:101E700099425BD20C4605460378022B28D0032BEF
:101E800037D0012B54D101EB5107016A01EB5721E7
:101E90002F4B984700284ED1C7F308032B4493F8E3
:101EA00030600137296A01EB57212846284B9847B3
:101EB000002843D1C7F30807E81990F8300046EA34
:101EC000002014F0010F14BF0009C0F30B00F8BD8F
:101ED000016A01EB14211E4B984790BB610001F48D
:101EE000FF716B1893F8310093F8303043EA00200B
:101EF000F8BD016A01EBD411154B984720BBA10036
:101F000001F4FE7101F130022A44D07893781B0469
:101F100043EA0063507843EA00200D4495F83030DE
:101F2000184320F07040F8BD012070470120F8BD33
:101F30004FF0FF30F8BD4FF0FF30F8BD4FF0FF30ED
:101F4000F8BD4FF0FF30F8BD4FF0FF30F8BD00BFD7
:101F5000D91D4000F8B505460C46C18081680129AD
:101F600038D003689A69914236D271B91A78032A37
:101F700001D1596A49B90022EA601A89A2422DD9D1
:101F80005B6A03EB14132B611BE09E783601B442AD
:101F900010D3164F2868B8470146B0F1FF3F1FD055
:101FA00001281FD92B689B6998421DD2A41BA4B29B
:101FB000A642EFD9E96028680D4B984700EB141052
:101FC00028612B68303304F00F0403EB44146C6178
:101FD0000020F8BD0220F8BD0220F8BD0220F8BDA7
:101FE0000120F8BD0220F8BD0220F8BD691E4000A6
:101FF000491940002DE9F041012979D983699942B5
:1020000078D215460C4606460378022B3BD0032BAC
:102010004AD0012B64D101EB5108016A01EB582130
:102020003F4B9847074600285FD1C8F3080314F0D8
:10203000010F15D0334493F8302002F00F0242EA2A
:10204000051283F8302008F1010801233371316A49
:1020500001EB58213046324B9847002842D14BE0E3
:10206000334483F8305008F1010801233371316A99
:1020700001EB582130462A4B9847A8BB41E0B044B9
:1020800088F8302031E0016A01EB1421244B984795
:10209000074650BB610001F4FF71731883F830509C
:1020A0002A1283F8312020E0016A01EBD4111C4B85
:1020B00098470746C8B9A10001F4FE7101F1300349
:1020C0003344DA781206314402F070422A4381F830
:1020D000302011125970110C9970120EDA7004E050
:1020E000022702E0074600E007460123337114E0AF
:1020F000022712E0022710E0C8F30808C5F3071210
:10210000BDE7C8F3080806EB080393F8303023F066
:102110000F03C5F303221A43B1E73846BDE8F08147
:10212000D91D40002DE9F0410546884631B9C66801
:102130006EB183699E4228BF012609E0294B98476A
:10214000012840D9AB6998424AD3464600E00126AF
:102150003446244F0134AB699C4202D3012E35D959
:10216000022421462846B847034638B1B0F1FF3F64
:102170002FD001282DD0B442ECD12DE06FF0704269
:1021800021462846184B9847034640B9B8F1000F3E
:1021900005D0224641462846134B984703465BB973
:1021A000EC602B69B3F1FF3F19D0013B2B61012398
:1021B0006B712046BDE8F081012B0CBF4FF0FF3062
:1021C0000120BDE8F0810120BDE8F0810020BDE8DC
:1021D000F0811846BDE8F0810020BDE8F08120467E
:1021E000BDE8F081691E4000F51F4000012928D993
:1021F0002DE9F84304460E468369994224D2174FCD
:102200004FF00009DFF8588031462046B8470546B0
:10221000E0B101281CD0B0F1FF3F1BD04A46314647
:102220002046C0470246B0B92369B3F1FF3F03D04F
:1022300001332361012363712E46A369AB42E3D8C6
:1022400009E0022210467047022204E0002202E068
:10225000022200E001221046BDE8F883691E40001A
:10226000F51F40002DE9F84FC4880134A4B2002CBA
:102270006ED00369002B6ED00E46054614F00F0792
:102280005DD101330361C16821B903681B89A34291
:1022900064D954E000688378013B13EA14134ED1EB
:1022A0003C4B9847804601285BD9B0F1FF3F5BD09B
:1022B0002868836998453BD3002E58D0E968364B8F
:1022C00098478046002855D0012856D0B0F1FF3FEE
:1022D00056D000212868314B9847002853D12868F0
:1022E0004FF40072002130302D4B98472E68414644
:1022F00030462C4B9847F06200264FF0010BB24657
:10230000DFF898900BE083F804B051462868C8477E
:10231000013600283AD12A68D36A0133D3622B6888
:102320009978F2B29142EED81646DA6A961BDE62CE
:10233000C5F80C80414628681A4B98472861EC8004
:102340002B68303303EB47136B610020BDE8F88F37
:102350000420BDE8F88F0420BDE8F88F0420BDE814
:10236000F88F0220BDE8F88F0120BDE8F88F042027
:10237000BDE8F88F0720BDE8F88F0220BDE8F88F90
:102380000120BDE8F88F0120BDE8F88F0120BDE8ED
:10239000F88F00BF691E400025214000D91D400074
:1023A00039194000491940002DE9F04F85B0054624
:1023B0000021644B9847002840F0A4804FF0FF0BA9
:1023C000D946614FDA4629692868B847002840F0A5
:1023D0009A806C692678002E00F09680E37A03F0EC
:1023E0003F02E52E78D013F0080F01D00F2A76D1E6
:1023F0000F2A53D1D5F81C80B8F1000F7AD016F00F
:10240000400F06D094F80DA006F0BF06EB882B8491
:1024100001E0B14566D194F80DB0D34565D123787C
:1024200023F04003013B03EB430A03EB8A03DFF88D
:10243000289109F10D0A01200396CDF804B01E463B
:10244000029519F8012BA3185978A35C43EA0123DC
:1024500070B118463D4B98478346FE2E5FD8751CD9
:1024600038F81600394B984783455CD12E4603E077
:102470004FF6FF7293425AD1D145E2D1DDF804B054
:102480003246039E029D237813F0400F42D000286D
:1024900040D038F81230002B3CD04BE0B9F1000F9F
:1024A00004D120462A4B984782452FD04FF6FF7320
:1024B0002B84AB69DA7A12F0010F19D104F10B0009
:1024C00001E0A04224D014F8011B13F8012B914223
:1024D000F7D04FF0FF090DE04FF0FF090AE04FF091
:1024E000FF0907E04FF0FF0904E04FF0FF0901E0AA
:1024F0004FF0FF0900212846164B984700283FF46B
:1025000062AF1BE01AE019E0042017E0002015E09C
:10251000002013E0013E5FFA86F9DA46EAE7DDF8CB
:1025200004B0029D06E0DDF804B0029D02E0DDF893
:1025300004B0029DDA464FF0FF09DBE705B0BDE8C5
:10254000F08F00BF551F4000D91D4000F9304000FA
:102550006119400065224000D0DF40002DE9F04FB6
:1025600089B004468769D0F81CA00C22394605A81A
:10257000A64B98479DF81F3013F0010F6FD0002332
:10258000FB72E3610B2205A93846A04B9847012551
:102590002B462026DFF89482DFF8709214E00B229D
:1025A00005A93846C847052D0DD92B465146DA03F3
:1025B00042EA530331F8022B12FA83F39BB20A88E2
:1025C000002AF4D100E02B460DF1140E072203F08F
:1025D0000F0000F13001392988BF00F13701013ABD
:1025E0000EF8011DC3F30F13002BF0D17E2108ABB1
:1025F000134403F8141C62B13B78202B0BD03946EE
:10260000002301339A4207D011F8010F2028F8D196
:1026100002E0002300E00023F9180133072A05D85F
:1026200008A8104410F8140C013200E0304601F8FC
:10263000010B072BF1D92046C04728B90135ADB2AF
:10264000642DACD10720DDE0642D00F0C7800428A4
:1026500040F0C6809DF81F30FB72C4F81CA09DF8A6
:102660001F3013F0020F14D0BAF800303BB1002332
:1026700001339BB23AF81320002AF9D100E000237D
:102680001933634E86FB0326DB17C3EBA606B6B2EF
:1026900000E00126002120465E4B9847002840F0CC
:1026A000A0804FF000094D465B4FCA46DFF87481A9
:1026B00021692068B8470346002840F0A28063697A
:1026C0001B78E52B00D03BB90DB9B4F80690013565
:1026D000ADB2AE4201D186E0554601212046C04749
:1026E00003460028E4D08CE049462046494B9847F1
:1026F0000346002840F08380A069484B984700902B
:10270000751EADB20027019721692068424B98479A
:102710000346002873D1D4F81C9060695FFA85FBEA
:102720009DF8003043730F23C37207738776C77613
:102730000BF1FF3303EB430103EB8101384A02F154
:102740000D08019B4FF6FF764FF0FF0AB3424ED0C3
:1027500001F1010E39F811301178435401444FEA68
:10276000132C81F801C013B97146334600E071465D
:1027700001324245EAD14FF6FF72934202D039F856
:1027800011300BB94BF0400B80F800B023680122E8
:102790001A7139462046234B9847034678BB013DC2
:1027A000ADB2002DB0D1216920681B4B984705467A
:1027B000C0B966692022002130461B4B98470B2286
:1027C000A1693046114B9847A369DB7A03F01803DF
:1027D0003373236801221A71284613E0072011E0A1
:1027E00010E00FE00EE0012E3FF67EAFDBE792F83F
:1027F00000E000F80EA086448EF801A0B8E7184665
:1028000000E0184609B0BDE8F08F00BF2519400070
:102810004FECC44E551F4000D91D400061194000C7
:10282000D0DF40006522400039194000A923400054
:1028300070B5044600212C4B98470346002850D120
:102840002378032B45D16379002B42D00026E66222
:1028500004F130054FF4007231462846234B984767
:10286000552384F82E32AA2384F82F32522384F879
:10287000303084F83130612384F83230412284F8DA
:102880003320722184F8141284F8151284F8162269
:1028900084F81732236984F818321A1284F819223E
:1028A0001A0C84F81A221B0E84F81B32E36884F891
:1028B0001C321A1284F81D221A0C84F81E221B0ED8
:1028C00084F81F320123626929466078084DA847C1
:1028D0006671002211466078064B9847031C18BFAA
:1028E0000123184670BD00BFD91D400039194000B2
:1028F000E91740005D1840002DE9F04F83B0834692
:102900000D460B782F2B01D05C2B00D10135002315
:10291000CBF808302B781F2B08D800215846B94B2C
:10292000984703460022CBF8142066E1DFF8ECA2BA
:102930002B782F2B01D05C2B05D115F8013F2F2BC5
:10294000FBD05C2BF9D0DBF81C6028782F2818BF4F
:102950001F2840F249815C2800F04681A6F1020858
:102960002F460124A14604E0B3F5807F00F03A81B0
:102970001C464946D0470146002800F033817F2895
:1029800009D8222800F0ED809F4A12F8013F13B1C8
:102990009842FAD1E5E028F8021F631C17F8010FEE
:1029A0002F2818BF1F2801D95C28DDD11D442028FD
:1029B00034BF04270027002C00F0D3806FF00043C1
:1029C000234406EB430236F81330202B0AD02E2B7B
:1029D00040F0EB8006E032F8023D202B02D02E2B97
:1029E00040F0E380013CF6D1BBE0013331F8022F27
:1029F000202AFAD02E2AF8D01BB147F0030700E0B6
:102A00000023A8F1020806EB080236F808102E2968
:102A100001D0013C06D1082200924FF00009CDF808
:102A2000049004E032F8021D2E29F2D1F3E703F1FD
:102A3000010836F81300002860D0202803D02E2883
:102A400005D1A04503D047F003074346EFE7009BBD
:102A5000994501D2A0451AD1009B0B2B07D147F015
:102A60000307DBF818301A78E52A55D14BE0A0456A
:102A700018BF47F00307A04540D8019B9B00DBB27D
:102A8000019323460B2200924FF00809CFE77F28DD
:102A900040F29F800021D0470346002800F0AA8022
:102AA0005A4A134413F8801C88B247F0020748B111
:102AB0002B2907D0564A12F8013F002B00F08B80DB
:102AC0008B42F8D147F003075F200FE0019B43F0F2
:102AD000020301930AE0A0F161039BB2192B05D810
:102AE000019B43F001030193203880B2DBF81830DA
:102AF00003F80900434609F1010998E7DBF81830AB
:102B00001A78E52A01D105221A70009B082B03D1FF
:102B1000019B9B00DBB20193019901F00C020C2A8E
:102B200003D001F00303032B01D147F0020717F094
:102B3000020F0AD1019B03F00303012B08BF47F0EA
:102B40001007042A08BF47F00807DBF81830DF72C7
:102B50005846304B9847DBF81830DA7A034660B1B4
:102B600001E0062349E0042847D102F00402D2B272
:102B7000002A14BF034605233FE012F0040F3CD1A6
:102B8000DBF81430DA7A12F0100F0CD0597D1A7D70
:102B900042EA0121D87E9A7E42EA002343EA0143B9
:102BA000CBF80830C4E6052327E04FEA44080023A9
:102BB00026F814300B222021DBF81800164B98471A
:102BC0003388202B02D02E2B7FF41AAF31460023FE
:102BD0000BE701466CE7A0F141039BB2192B7FF68E
:102BE00075AF78E7062308E001351F28B9D900241E
:102BF0002746E0E647F0020764E7184603B0BDE861
:102C0000F08F00BF551F400088DF400008DF400004
:102C100094DF4000A923400039194000B93040003A
:102C200007280DD8074B53F820300BB100221A703B
:102C300009B100230B70034B43F8201000207047AC
:102C40000B2070471C0940202DE9F041ADF50E7DA9
:102C50000546019116460023036002F01F0702F0AB
:102C60001E0285A901A8584B984782AB8B9302ABF3
:102C70008C93002840F08A80019985A8534B98478F
:102C800003468A9C14B9002800F0868016F01C0FB9
:102C900048D05BB1042B40F0878085A84C4B984707
:102CA00047F008078A9C034638B188E0E37A13F0BE
:102CB000110F7DD116F0040F7CD117F0080F42D010
:102CC000444B9847A0730312E373030C2374000E64
:102CD00060740023E37223776377A377E377667DDD
:102CE000227D42EA0626E27EA17E41EA0222A37606
:102CF000E3762375637585980123037152EA0646CE
:102D00001FD0D0F82C803146334B9847034600281B
:102D100055D18598721EC2604146304B9847034694
:102D200078B14CE0002B4AD1E37A13F0100F43D175
:102D300016F0020F02D013F0010F3FD116F0080F6A
:102D400001D047F02007859BDB6AEB612C62AF71F5
:102D5000617D237D43EA0121E37EA27E42EA0323D3
:102D600043EA01432B61E27FA37F1B0443EA026332
:102D7000227F1343627F43EA0223EB600023AB60B0
:102D8000AB61859A2A60D288AA8018E003468A9CA3
:102D900016F01C0FC6D07DE716F01C0F03D10623DA
:102DA000002BD4D00BE0062347F008078A9CF7E7F6
:102DB000072304E0082302E0042300E00723184669
:102DC0000DF50E7DBDE8F081451A4000F928400060
:102DD0005D254000CD184000ED214000D91D400088
:102DE0002DE9F84F04468946164698460023C8F850
:102DF000003081880068744B9847002840F0DB80E1
:102E0000A37913F0800F40F0D88013F0020F00F088
:102E1000D780E368F34280F0C280002E00F0BF80CC
:102E2000A268C2F30803002B40F08C8020688378EE
:102E3000013B03EA522313F0FF0723D13AB9236978
:102E400063B90021614B98470346206103E0616943
:102E50005E4B98470346002B00F0A180012B06D162
:102E6000A37963F07F03A3710220BDE8F88FB3F16B
:102E7000FF3F06D1A37963F07F03A3710120BDE872
:102E8000F88F63612068C26AA3699A420AD100215F
:102E90004F4B984730B1A37963F07F03A3710120B2
:102EA000BDE8F88FD4F800A061695046494B9847B7
:102EB000054630B9A37963F07F03A3710220BDE812
:102EC000F88F3D445FEA562B29D09AF8023007EB81
:102ED0000B029A4288BFC7EB030B5FFA8BF32A46BB
:102EE00049469AF801003C4FB84730B1A37963F0E6
:102EF0007F03A3710120BDE8F88F2068C16A491BD8
:102F00008B4509D94FF4007209EB41213030334B26
:102F10009847236800221A714FEA4B2533E0A268D4
:102F2000E3689A420DD300215046294B984730B1AF
:102F3000A37963F07F03A3710120BDE8F88F2368B4
:102F4000DD62A561A568C5F30805C5F50075B54244
:102F500028BF3546A16920681D4B984730B1A37939
:102F600063F07F03A3710120BDE8F88FA068C0F370
:102F70000800303023682A4649461844174B9847C2
:102F8000236801221A71A944A3682B44A360D8F8CE
:102F900000302B44C8F80030761B7FF441AFA368A3
:102FA000E268934288BFE360A37943F02003A371F2
:102FB0000020BDE8F88FBDE8F88F0220BDE8F88F4B
:102FC0000720BDE8F88F00BF81194000252140008F
:102FD000D91D400049194000E9174000251940005B
:102FE00038B50446818800681E4B98470346002880
:102FF00035D1A27912F0200F31D0E16920681A4B47
:103000009847034658BB256AEB7A43F02003EB72DE
:10301000E3682B77E3681B126B77E389AB77E37B7D
:10302000EB772369AB7623691B12EB76638A2B75EA
:10303000638A1B126B750D4B9847A8750312EB75CD
:10304000030C2B76000E6876A37923F02003A3717E
:10305000236801221A712068054B984703461846D9
:1030600038BD00BF81194000D91D4000CD18400077
:103070003128400010B50446034B9847034608B971
:1030800000222260184610BDE12F400010B582B02A
:103090000C468DF8000001AB012269462046054C24
:1030A000A047019B012B0CBF01204FF0FF3002B065
:1030B00010BD00BFE12D40007F2819D971B9C72884
:1030C00013D00C4A012332F8021F814203D001338E
:1030D0009BB2802BF7D18033D8B27047FF2806D837
:1030E0008038044B33F8100070470023F3E70020CA
:1030F000704700BFE0DF400061280ED00849002281
:10310000013231F8023F834201D0002BF8D11BB1CC
:10311000044B33F81200704770470022F8E700BFF5
:10312000E0E04000C0E24000102808D1B1F1805F2B
:1031300005D108B5024B1B6803B1984708BD70471D
:103140003C09402040B170B50446044E044D304661
:10315000A847013CFBD170BD704700BF3516030086
:10316000010040202DE9F041094F4FF40038C7F825
:103170003480084D08266E636420074CA047C7F8CA
:1031800030806420A0472E636420A047BDE8F08112
:1031900000120E4000100E404531400010B50022D4
:1031A000144B1A600A20144CA0470B20A0470C2097
:1031B000A0471020A0471120A047104B08221A61F9
:1031C000C3F8A0201A630E4A4FF400311161C2F80F
:1031D000A010116304221A61C3F8A0201A63094BDE
:1031E0001B6813F0010F01D0064B1B68064B984774
:1031F000002010BD3C094020C965400000100E4071
:1032000000120E4010E000E06531400030B583B0A0
:10321000144B18601020144B98474FF020517C201D
:10322000124B9847124C01224FF080512046114B0F
:103230009847114B009351234FF0805210212046A4
:103240000E4DA8474FF0805120460D4B98474FF444
:1032500080320C4B1A600022102120460A4B9847FE
:1032600003B030BD3C094020C9654000C961400041
:1032700000140E4085604000293140004D6340003D
:10328000B961400000E100E01D64400008B528B1CC
:103290004FF080510448054B984708BD4FF08051CE
:1032A0000148034B984708BD00140E40B961400027
:1032B000BD614000F8B5394C4FF480112166C4F867
:1032C000901061656162C4F88010236F0B4323671F
:1032D000636F23F4801363674FF400122266C4F80F
:1032E000902062656262C4F88020236F13432367D5
:1032F000636F23F4001363674FF480032366C4F8FD
:10330000903063656362C4F88030206F1843206793
:10331000606F20F4800060676160626063604FF0FE
:10332000007666602660266126631D4D28461D4B8B
:10333000984702232B6080232B606B6843F00103C6
:103340006B606B6843F010036B6001212846164BDD
:103350009847002201212846144B98470122114624
:103360002846134B9847002201212846114B9847C5
:1033700011491248124B9847C2B201212846114BFD
:10338000984700231A46012128460F4FB8470123CA
:103390002B6026630D4B98470020F8BD00140E40AB
:1033A000008000401D66400049664000CD66400038
:1033B000ED6640000D67400000A3E111006CDC02E7
:1033C0002167400039674000656740006531400073
:1033D0002DE9F04F83B0032841D10E684D680C8968
:1033E00000238DF80430ADF8063036B1002D33D10E
:1033F0004FF00108994601AD04E04FF000084FF08E
:10340000010901AE4FF000721C4B5A63F4B11C4F1E
:10341000DFF884B0DFF884A000231A4631783846FC
:10342000D8470DF105020DF106013846D047BDF829
:1034300006302B70013CA4B2B8F1000F00D1013569
:10344000B9F1000F00D10136002CE5D14FF0007228
:103450000A4B1A6300200EE06FF005000BE040F20B
:103460001F1208490848094CA0470948A0470948C5
:10347000A0474FF0FF3003B0BDE8F08F00140E40BE
:1034800000800040A0E44000B0E4400045764000E9
:10349000C4E44000D8F640009566400061664000F4
:1034A00002220E4B1A6003F5592303F580634FF493
:1034B00000125A61C3F8A0204FF480125A61C3F879
:1034C000A0204FF480025A61C3F8A0204FF0007290
:1034D0005A61C3F8A0200020704700BF0080004060
:1034E0003AB10139821811F8013F00F8013B9042CE
:1034F000F9D1704722B1821800F8011B9042FBD12C
:10350000704700BF034602783AB10020013080B214
:1035100013F8012F002AF9D170470020704700BF2F
:10352000024A13780133DBB2137070474809402018
:10353000704700BF00B583B001200B4B984701A92D
:1035400041F27000094B9847034640B9019941F098
:103550000201019141F27000054B9847034618465D
:1035600003B05DF804FB00BF8D324000FD47400012
:103570000948400008B5114B1B7813F0FF0F15D117
:103580000F4B1B78DBB2032B04D00D4B1B78DBB247
:10359000042B0BD10B4B9847034668B945F2786171
:1035A00041F27400084B9847034628B9034A137840
:1035B0000133DBB213700023184608BD64094020B4
:1035C000540940206D4340000948400000B583B0D5
:1035D0001D4B1B7813F0FF0F04D01B4A1378013BDF
:1035E000DBB21370184B1B7813F0FF0F25D1174B6C
:1035F0001B78DBB2032B04D0144B1B78DBB2042BFB
:103600001DD10023019344F2213141F27400104B8B
:1036100098470346A0B901A901200E4B98470346DD
:1036200070B9019911F0020F0AD021F00201019145
:103630000120074B9847034602E0002300E00023E7
:10364000184603B05DF804FB64094020540940208B
:1036500009484000FD4740002DE9F04F87B0804603
:103660000F4692469946109CBDF84460BDF84850FC
:1036700001F07F038DF815308DF814000823ADF8A4
:10368000163044B1BDF8163016FA83F32B449BB2C2
:10369000ADF8163006E0BDF8163019FA83F39BB288
:1036A000ADF81630574B98478346002840F0958078
:1036B00000230393ADF806300293029B48EA03030C
:1036C0000293029B43EA07270297BDF81620029B4C
:1036D00043EA02430293029941F28C004A4B984715
:1036E0008346002840F08A8000230293029B43F027
:1036F00002030293029941F27800434B98478346B4
:1037000000287BD100230393ADF80630BDF80630C6
:103710009BB2B3F57A7F1ED241F278083B4F02A9E3
:103720004046B847B8B9029B13F0020F07D103A96E
:103730003748364B984770B1002303930BE0BDF830
:10374000063001339BB2ADF80630BDF806309BB2AF
:10375000B3F57A7FE3D3039B002B4DD0039B0493F7
:10376000BDF816309BB2ADF816300498082205A9B2
:10377000284B98478346002840D1049B0833049384
:10378000BAF1000F0AD004984A465146214B984797
:103790008346002832D1049B4B44049374B1049BAC
:1037A000C9EB05051D440495049832462146194B82
:1037B0009847834610BB049B1E440496039B9B00C2
:1037C0000293029B43F002030293029941F26C00C0
:1037D0000D4B9847834688B90AE040F29F120E4984
:1037E0000E480F4CA0470F48A0470F48A04705E0E0
:1037F0000E4B9847834601E06FF0020B584607B026
:10380000BDE8F08F7535400009484000FD47400095
:10381000000415007548400034E74000B0E4400063
:1038200045764000F0E44000D8F64000CD35400039
:103830002DE9F04387B0DFF8FC92A34FDFF8F88260
:10384000A24E7BE199F80030013BDBB289F80030F1
:10385000B8470446002840F01A8103A941F27000DD
:103860009B4B98470446002840F00681039B13F0C9
:10387000010F00F0F580974B9847039921F0010163
:10388000039141F27000944B98470446002840F0A1
:103890000E810022914B1A70039DC5F38B05002DFC
:1038A00000F0D18006A941F8042D41F28400884B34
:1038B0009847044668B14FF4E77241463046884D58
:1038C000A8478848A8478848A8470120814B9847BF
:1038D000EBE0042204A90598844B9847BDF8123008
:1038E0009BB2ADF81230044668B14FF4EB7241461A
:1038F00030467B4DA8477E48A8477B48A847012013
:10390000744B9847D1E0BDF812309BB29D421ED057
:10391000BDF812309BB2EB1A042B18DD40F2DF1217
:10392000414630466E4CA047BDF812209DF810303D
:103930009DF81110009192B229466E48A0476A483E
:10394000A0470120634B98476FF00504ADE09DF858
:103950001030DBB2012B0DD1674B1B68002B60D000
:103960009DF81100BDF812100839059A083289B285
:10397000984756E09DF81030DBB2022B0DD15F4B1B
:103980001B68002B4DD09DF81100BDF812100839AE
:10399000059A083289B2984743E09DF81030DBB2AF
:1039A000042B0DD1564B1B68002B3AD09DF811000B
:1039B000BDF812100839059A083289B2984730E0EC
:1039C0009DF81030DBB2062B0CD14E4B1B6843B375
:1039D0009DF81100BDF812100839059A083289B215
:1039E00098471EE09DF81030DBB2072B0CD1464BF8
:1039F0001B68B3B19DF81100BDF812100839059A83
:103A0000083289B298470CE040F202224146304623
:103A1000334CA0473D48A0473348A0476FF005040A
:103A200043E02E4B1B7813F0FF0F3BD140F20922ED
:103A3000414630462A4CA0473548A0472A48A0476F
:103A4000344B98472EE040F2112241463046244C38
:103A5000A0473148A0472448A0476FF0010426E062
:103A60004FF40672414630461D4CA04703992B483F
:103A7000A0471D48A04715E040F21E2241463046AF
:103A8000174DA8472648A8471748A8470FE04FF406
:103A9000097241463046124DA8472248A8471248AD
:103AA000A84704E0204B98470446002C46D040F23B
:103AB00043221E4930460A4DA84721461C48A847C4
:103AC0000948A847C4E600BF75354000B0E440008F
:103AD000FD4740008D324000094840005C0940200D
:103AE0004576400010E54000D8F6400015484000FB
:103AF00038E5400050E54000440940205809402086
:103B000060094020400940205009402090E54000D5
:103B1000A8E5400035354000CCE54000E0E5400038
:103B2000FCE5400020E64000CD35400040E7400085
:103B300040E6400048094020DCE4400099F80030AD
:103B400013F0FF0F7FF47EAE002007B0BDE8F083D6
:103B50002DE9F04383B01C46002A18BF002903D08A
:103B600005460F461646A0B934B10122314B1A70F2
:103B7000314B9847034658E040F269222F493048BC
:103B8000304CA0473048A0473048A0476FF00B03A7
:103B90004BE0694641F270002D4B984703460028E0
:103BA00043D1DDF8008001A941F28400284B9847F9
:103BB0000346002839D1C8F38B0846450ED940F298
:103BC0007A221E491E481F4CA047424631462148D2
:103BD000A0471E48A0476FF00B0326E0019B9D42C3
:103BE00004D305EB0609434499450CD94FF42072E0
:103BF00012491348134CA0471748A0471348A04741
:103C00006FF00B0311E0324639462846134B9847B4
:103C1000034650B9019A42444A4500D02CB10122D2
:103C2000044B1A70044B98470346184603B0BDE88E
:103C3000F08300BF5C09402035354000E4E44000DB
:103C4000B0E440004576400070E64000D8F6400001
:103C5000FD47400090E64000D4E640001548400093
:103C600038B5431E062B1DD8DFE803F00804100CFE
:103C70001C141800134B1960002038BD124B19603A
:103C8000002038BD114B1960002038BD104B196061
:103C9000002038BD0F4B1960002038BD0E4B196055
:103CA000002038BD044640F2B9220C490C480D4DA5
:103CB000A84721460C48A8470C48A8476FF00B00BE
:103CC00038BD00BF58094020440940206009402009
:103CD0004C094020400940205009402024E7400082
:103CE000B0E440004576400018E74000D8F64000B8
:103CF00010B50024094B1C60094B1C60094B1C705B
:103D0000094B1C70094B1C7009480A4B98470A491B
:103D100003200A4B9847204610BD00BF44094020AD
:103D20005809402064094020540940204809402097
:103D3000213540000D32400031354000613C4000EB
:103D400030B59FB015462C2811D10023042203A9B9
:103D50002846904CA047002840F019818E4B1B68E4
:103D6000002B00F0148103A92C2098470FE1044692
:103D70001B2811D10023082203A92846854CA047FF
:103D8000002840F00481844B1B68002B00F0FF806A
:103D900003A91B209847FAE0062811D101233022FD
:103DA00003A928467B4CA047002840F0F0807A4BBE
:103DB0001B68002B00F0EB8003A906209847E6E083
:103DC0000E2800F0E480322811D10023102203A92C
:103DD0002846704CA047002840F0D9806E4B1B68E5
:103DE000002B00F0D48003A932209847CFE02F2881
:103DF00016D16422002103A8684B9847002364224F
:103E000003A92846634CA047002840F0C080624BBD
:103E10001B68002B00F0BB8003A92F209847B6E059
:103E2000342820D10023042203A92846594CA04756
:103E3000002840F0AC805A485A4CA04703990B0E1A
:103E40000093C1F30743C1F30722C9B25648A04704
:103E50005648A047504B1B68002B00F0988000216B
:103E60003420984793E0112816D10023504A13704C
:103E7000042203A92846474CA047002840F0878029
:103E80009DF80C204B4B1A70434B1B68002B7ED0C7
:103E900003A9112098477AE013280FD100232C2280
:103EA00003A928463B4CA047002870D13A4B1B6819
:103EB000002B6CD003A91320984768E004280FD189
:103EC000002304221CA92846324CA04700285ED1BA
:103ED000314B1B68002B5AD01CA90420984756E090
:103EE00065280FD1002304221CA92846294CA0478D
:103EF00000284CD1284B1B68002B48D01CA96520FA
:103F0000984744E009280FD10123642203A92846D9
:103F1000204CA04700283AD11F4B1B68002B36D0FD
:103F200003A90920984732E02A280DD10123042251
:103F300003A92846174CA04748BB174B1B6833B34F
:103F400003A92A20984722E0202815D1002308221F
:103F500003A928460F4CA047C8B90123BDF810207B
:103F6000039905F10800A04788B90B4B1B6873B192
:103F700003A9202098470AE04FF495720E490F4894
:103F8000084DA84721460E48A8470848A8471FB033
:103F900030BD00BF513B400068094020F53440006F
:103FA00070E74000457640007CE74000D8F64000CE
:103FB0006C0940206D09402064E74000B0E44000F7
:103FC0009CE74000F0B58BB001238DF80730002846
:103FD0004ED00268294B1A600022294B1A700DF14D
:103FE0000700284B98470446002843D1264B9847A2
:103FF0000446002838D125490120254B984702A8BE
:10400000244B98470446244F3846244DA8479DF832
:104010000E309DF80D209DF80C102148A847214E28
:104020003046A8473846A8479DF811309DF8102023
:104030009DF80F101C48A8473046A8473846A847A7
:104040000023032213211948A8473046A84714F13A
:104050000D0F0FD140F2D51215491648A847164842
:10406000A8473046A84705E00020144B984701E0D8
:104070006FF00B0420460BB0F0BD00BF6809402074
:104080006C09402081494000F13C4000413D400026
:10409000613C4000D548400070E740004576400054
:1040A00054E84000D8F6400070E840008CE840003A
:1040B00098EA4000B0E44000A8E84000494A4000C7
:1040C00008B5014B984708BD313840002DE9F04153
:1040D000A0B080460D4614461E46BDF89870012AD1
:1040E00045D063B940F203227A497B487B4CA04714
:1040F0007B48A0477B48A0476FF00B00E7E0022A0F
:1041000035D11846784B9847402830D13378A3F101
:104110003002D2B2362A1BD8A3F13A02D2B2062A12
:1041200016D9473BDBB2192B12D9314606F13F00B5
:1041300011F8013FA3F13A02D2B2062A08D9A3F13D
:104140003002D2B2362A03D8473BDBB2192B0CD847
:1041500040F20F225F496048604CA0476348A04787
:104160006048A0476FF00B00B1E08842E0D16B1EC1
:10417000DBB21F2B0CD940F2192256495648574C36
:10418000A0475B48A0475748A0476FF00B009EE050
:10419000FF2F0ED00D2F0CD940F222224D494E4850
:1041A0004E4CA0475348A0474E48A0476FF00B0025
:1041B0008DE02A4641460DF15A004F4B984720ABFF
:1041C0001D44002305F8263CADF858709DF89C303E
:1041D000003318BF01238DF87B308DF85540032C38
:1041E00038D13378013BDBB28DF81430032B0ED974
:1041F00040F2392237493848384CA0479DF814100E
:104200003E48A0473748A0476FF00B005FE0727848
:10421000531E8DF8153002F0EF030B2B0ED04FF428
:1042200010722C492C482D4CA0479DF8151034488D
:10423000A0472C48A0476FF00B0048E0B11C0DF1DF
:1042400016002D4B9847737820AA1344002203F8D8
:104250006A2C32E0022C19D13046234B9847431E7A
:104260009BB23F2B0CD940F24F221A491A481B4CE3
:10427000A0472448A0471B48A0476FF00B0026E04A
:10428000421C314605A81C4B984716E0042C05D16A
:104290003E22314605A8184B98470EE0012C0CD061
:1042A00040F25F220B490C480C4CA0471648A0472F
:1042B0000C48A0476FF00B0009E000230293019324
:1042C00000936C2305AA28210120104CA04720B0A0
:1042D000BDE8F08150E74000B0E440004576400082
:1042E000C4E84000D8F6400005354000D8E840005A
:1042F000E8E84000FCE84000E134400008E9400004
:1043000024E9400040E940005CE9400059364000A3
:1043100010B582B000240194BDF810400094024C06
:10432000A04702B010BD00BFCD4040000020704744
:10433000F0B583B004464FF4A5550A4E0A4F214606
:104340002846B04754B102A9002341F8043D28464D
:10435000B8470028F3D1019B9C42F0D1002003B064
:10436000F0BD00BF09484000FD4740002DE9F04F77
:1043700083B001203D4B984701A901203C4B984751
:10438000824648B172223B493B483C4CA0473C48DE
:10439000A0473C48A04764E000244FF00108DFF844
:1043A000F890324D384F019941F002014046C8471C
:1043B0004046A8476946354B18682D4B984718B9B1
:1043C000009B0BB1314E37E0304E0E233360404638
:1043D000A84769463068264B984710B9009B002BC8
:1043E000F0D12A4E132333604046A847694630680F
:1043F0001F4B984706460028E4D096221D491E48C8
:104400001E4CA0472248A0471E48A047B24628E0BD
:104410000220A84769463068154B9847009B13F067
:10442000040F09D1AA2213491348DFF850B0D84726
:104430001848D8471348D847009B13F0040F10D1F1
:104440000134A7FB04235B0803EB43039C42DFD04A
:10445000019941F002014046C847009B13F0040F48
:10446000A1D0504603B0BDE8F08F00BF45314000F9
:10447000FD474000B4EA4000B0E44000457640000B
:10448000C4EA4000D8F64000ABAAAAAA34004020F3
:10449000E4EA400004EB40000948400000B583B066
:1044A00001A941F20840154B9847E0B9019941F440
:1044B0008071019141F20840114B9847B0B901A9B0
:1044C0004FF4D0500D4B984798B9019941F4803181
:1044D00001914FF4D0500A4B9847002814BF6FF059
:1044E0000500002007E06FF0050004E06FF0050014
:1044F00001E06FF0050003B05DF804FBFD474000EC
:104500000948400010B582B0244B1C68002C40D1F3
:1045100019464FF48050224B984718B100221F4B88
:104520001A6038E001A941F2F4301D4B984718B1E8
:1045300000221A4B1A602EE0184B1B68194A93424E
:1045400006D1019B012B1DD00132144B1A6019E0DA
:10455000154A934209D1019B032B13D0042B0CBFA6
:104560000132124A0D4B1A600CE0114A934209D1F4
:104570000A494FF46C100A4B984718B10022074BB8
:104580001A6008E0054A136823F4702343F4A0235B
:104590001360024B1C68204602B010BD7009402019
:1045A000FD474000A0021000B0021000B20210004F
:1045B000F00010002DE9F041074641F21405284CA7
:1045C000284E2846A047002802DB0120B047F8E724
:1045D0002548234B984710F0010F10D1DFF8848055
:1045E0001F4E224D0120C0474FF00C10B04704462B
:1045F0002A4601461E481F4B9847AC42F2D1022F73
:104600000AD11D491D481E4CA0474FF4801141F2AC
:104610008C00A04700240FE0032F09D1164917484A
:10462000174CA047002141F28C00A047002403E072
:10463000042F14BF00248024124B9847C0F30B00B2
:10464000B0F5687F0CBF44F0020020460E4B98473F
:104650000E494FF00C100A4B98470020BDE8F0813E
:10466000F147400045314000BC0702009ED0AD102C
:1046700050EB4000457640007DD51C3CAC07020065
:10468000094840000545400031434000612F52EF8A
:10469000F0B583B041F28C030193184B00930238BC
:1046A000C0B2012810D8164B0193A3F12253A3F5F1
:1046B0001113A3F2E953009306E03846B04701987E
:1046C000A847013C06D113E04FF0FF340020022739
:1046D0000C4E0D4D009B9842EFD1009A074B9A4229
:1046E00009D1002141F28C00084B9847002003E0DB
:1046F0006FF0040000E0002003B0F0BD3626530246
:10470000AC07020045314000F14740000948400035
:10471000F0B583B002A9002341F8043D4FF4A05046
:10472000244B984748B140F2312223492348244C76
:10473000A0472448A0472448A047019921F480615C
:1047400001914FF4A050214B9847054658B140F2D3
:104750003722194919481A4CA0471D48A0471A4842
:10476000A047284624E00A24124E184F01A94FF40E
:10477000A050B047054658B140F23E220E490F48BE
:104780000F4CA0471348A0470F48A04728460FE00A
:10479000019911F4806F0AD021F4806101914FF4E6
:1047A000A050B847631E13F0FF04DFD100E00020E3
:1047B00003B0F0BDFD474000A8EA4000B0E440006F
:1047C0004576400060EB4000D8F6400009484000C4
:1047D0007CEB400098EB400008B5014B984708BDC2
:1047E000B532400008B5014B984708BDA1344000E0
:1047F00008B5014B984708BD4150400008B5014B32
:10480000984708BD5950400008B5014B984708BD6E
:10481000715040002DE9F047074689461546134B75
:10482000B3F80080A8F108081FFA88F8424508D8B4
:104830000026AAB209EB060138460D4B98470346FD
:1048400010E044460026DFF828A0424609EB0601A6
:104850003846D047034628B92D1B26442744A54295
:10486000F3D8E6E71846BDE8F08700BF30004020E7
:10487000955140002DE9F047074689461546134BF0
:10488000B3F80080A8F108081FFA88F8424508D854
:104890000026AAB209EB060138460D4B984703469D
:1048A00010E044460026DFF828A0424609EB060146
:1048B0003846D047034628B92D1B26442744A54235
:1048C000F3D8E6E71846BDE8F08700BF3000402087
:1048D0006152400030B583B0044602A9002341F87C
:1048E000043D2348234B98470546019A224B9A42A0
:1048F00005D101A941F248001E4B98470546019B8E
:104900001A0C1112E171C2F30311217202F00F02AD
:1049100062721A122271C3F30312627103F00F0361
:10492000A371164B984720602279A37903F00F03F7
:1049300043EA022263791B01DBB21343E179627A15
:1049400002F00F0242EA0121227A1201D2B20A4396
:1049500041F230318A4288BF6FF00C0541F22F32AC
:1049600093428CBF28466FF00C0003B030BD00BFEF
:10497000AC070200FD474000C3C15DD705454000BC
:1049800038B530B10478631EDBB2042B28BF012494
:1049900000E0012400201D4B9847054650B14FF41C
:1049A00092721B491B481C4CA0471C48A0471C483E
:1049B000A04729E01B48184DA8471B4B98470146C4
:1049C0001A48A8471648A847194B98472046194B3C
:1049D00098470546B0B92046174B9847054688B911
:1049E000023CE4B2012C0FD9144B9847054658B14C
:1049F0004FF4AE7206490748074CA0471048A0473D
:104A00000748A0470F4B9847284638BDD947400074
:104A1000A0EC4000B0E4400045764000F4EB4000DC
:104A2000D8F6400070E740000545400010EC40001B
:104A300089504000B5454000914640009D444000EB
:104A400020EC4000E547400038B5194B984758B175
:104A500004464FF4BA7217491748184DA84718482A
:104A6000A8471848A84720E00020174B984704465D
:104A700050B140F27B120F490F48104DA847134820
:104A8000A8471048A84710E0114B9847044650B17A
:104A900040F2811207490848084DA8470D48A84729
:104AA0000848A84701E00C4B9847204638BD00BF96
:104AB00011474000ACEC4000B0E4400045764000B7
:104AC00040EC4000D8F64000F15A400060EC400055
:104AD000E547400084EC40003550400000B585B00B
:104AE000002301930290ADF80C1001A90320024BA2
:104AF000984705B05DF804FBD1334000F0B583B0B2
:104B0000054600F13B03DBB2012B01D9CF2806D1CA
:104B100001210DF10700224B984700283AD10B24C0
:104B200001271F4E39460DF10700B04758B140F23A
:104B300027121C491C481D4CA0471D48A0471D4872
:104B4000A047002029E09DF80730AB4205D0631E46
:104B500013F0FF04E6D10B2400E00B240126104DD6
:104B600031460DF10700A84758B140F235120D4902
:104B70000D480E4CA0470E48A0470E48A047002005
:104B80000BE09DF807303BB1631E13F0FF04E7D143
:104B9000012002E0002000E0012003B0F0BD00BFD2
:104BA000DD4A4000D0F24000B0E4400045764000CD
:104BB000F4ED4000D8F640002DE9F04F83B0824676
:104BC000894693464FF00008354DB9F5005F94BF14
:104BD0000FFA89F74FF400570A24012631460DF1E8
:104BE0000300A84758B140F257122E492E482F4CC7
:104BF000A0472F48A0472F48A04700204DE09DF830
:104C000003301B090F2B05D0013C24B2B4F1FF3F48
:104C1000E4D101E0002C0DDC40F26312214922486E
:104C2000224CA0479DF803102348A0472148A047E5
:104C3000002032E0BFB239460AEB0800A84758B15D
:104C40004FF4B67217491848184CA0471B48A047A4
:104C50001848A047002020E0BBF1000F12D1184BEC
:104C60001B787BB9022101A8A84758B140F27712FE
:104C70000C490D480D4CA0471248A0470D48A047CD
:104C800000200AE0B8440FFA88F8C7EB09071FFABA
:104C900087F9B9F1000F98D1012003B0BDE8F08F7A
:104CA000DD4A4000BCEC4000B0E4400045764000E6
:104CB00028EE4000D8F640005CEE40008CEE40004C
:104CC00074094020C0EE400000B585B0019000237B
:104CD0000293ADF80C1001A90320024B984705B0D0
:104CE0005DF804FBD133400070B584B09DF82040DE
:104CF0008DF80400C1380E2800F2AE80DFE800F025
:104D00003E3E5F12232C4D4D7808ACACACAC350068
:104D10000B0C8DF805300B0A8DF806308DF8071056
:104D20000521A4E0C1F3072314B98DF8053003E091
:104D300063F07F038DF805308DF8061000238DF8A1
:104D40000730052193E000238DF805308DF80630FB
:104D50008DF8073005218AE000238DF805308DF8A5
:104D600006308DF80730052181E0FF238DF80530EE
:104D70008DF806308DF80730052178E00A0C8DF8A3
:104D800005200A0A8DF806208DF807101A0A8DF8FA
:104D900008208DF80930072169E00A0C8DF80520FC
:104DA0000A0A8DF806208DF807101A0C8DF80820D5
:104DB0001A0A8DF809208DF80A30082157E0C1F34E
:104DC000072314B98DF8053003E063F07F038DF8F5
:104DD00005308DF80610130E8DF80730130C8DF882
:104DE0000830130A8DF809308DF80A2008213EE0BA
:104DF0000B0C8DF805300B0A8DF806308DF8071076
:104E0000130E8DF80830130C8DF80930130A8DF845
:104E10000A308DF80B20092129E012F8013B83EAC2
:104E20004003E05C9542F8D104AB1E44430006F811
:104E30000C3C01E00139C9B201A8104B984768B198
:104E40004FF484720E490F480F4CA0470F48A047FB
:104E50000F48A04700200FE000200DE001200BE0EC
:104E60004E1E01AB9D197F201A460A4CD5E70A4B0E
:104E70001B78002BDED1F3E704B070BDC94C4000B5
:104E8000B8F24000B0E4400045764000F8EE400043
:104E9000D8F64000CCEC40007409402070B582B0D8
:104EA0000446312835BF01230023C325C9250093BB
:104EB00004230A4601462846164EB04701280CD066
:104EC00040F2EB1214491548154DA84721461548E4
:104ED000A8471548A84700201AE02846134B9847D2
:104EE000012814D040F2F1120B490C480C4DA84790
:104EF00021460F48A8470C48A847002400942346A1
:104F000022462146CF20034DA847204600E001203D
:104F100002B070BDE94C4000A8F24000B0E440008F
:104F20004576400024EF4000D8F64000FD4A40009E
:104F300050EF40002DE9F04184B004468846B0F5BA
:104F4000807F35BF01260026C425CA25009604238C
:104F50000022014628462D4FB84701280CD040F2C8
:104F600045222B492B482C4DA84721462B48A847C2
:104F70002B48A847002045E028462A4B984701289F
:104F800014D040F24B2222492248234DA847214603
:104F90002548A8472248A8470024009423462246D3
:104FA0002146CF20194DA84720462BE03246042148
:104FB00003A81E4B9847012813D040F253221449EE
:104FC0001448154CA0471A48A0471548A04700248C
:104FD0000094234622462146CF200C4DA847204668
:104FE00010E09DF80D109DF80E20130443EA0122F5
:104FF0009DF80C3013439DF80F2043EA0263C8F874
:105000000030012004B0BDE8F08100BFE94C400051
:10501000DCF24000B0E440004576400088EF4000FC
:10502000D8F64000FD4A4000B4EF4000B94B4000C4
:10503000E8EF40000020014B1870704774094020D1
:1050400000B583B001A9034B9847019803B05DF800
:1050500004FB00BF354F400008B5044B98470128BA
:105060000CBF00206FF0050008BD00BF354F4000A9
:1050700008B5044B984701280CBF00206FF00500CD
:1050800008BD00BF9D4E400030B583B0002302A98B
:1050900041F8083D324A13704EF62400314B9847D0
:1050A000F0B901222E4B1A7040F2C5222E492F482A
:1050B0002F4CA0472F48A0472F48A04769464EF6DF
:1050C0002400284B9847044650B94FF432722649C1
:1050D0002648274DA8472948A8472748A8473CE025
:1050E0001F4B1B78CBB9009921F07C0141F0500196
:1050F00000914EF62400224B9847044650B940F2E6
:10510000D222194919481A4DA8471E48A8471A48DB
:10511000A84722E00122124B1A7001A94FF48050D7
:10512000104B984760B94FF437720F490F48104C35
:10513000A0471548A0471048A0476FF005040CE0B1
:105140004EF62400114B984720F0700141F05001B9
:105150004EF624000E4B98470024204603B030BD85
:1051600074094020354F4000CCED4000B0E44000D1
:105170004576400008F04000D8F6400058F0400066
:105180009D4E400088F04000BCF04000415040007F
:1051900071504000F0B583B004460F46154600221A
:1051A00000922B460146C820234EB04701280BD061
:1051B0004FF41D7221492248224DA847214622481A
:1051C000A8472248A84732E0C820214B9847012829
:1051D00012D040F27A22194919481A4DA84721469F
:1051E0001C48A8471948A847002100910B460A46C9
:1051F000CF20114CA0471AE0002229463846164B12
:105200009847012811D04FF421720C490C480D4CDD
:10521000A0471248A0470D48A047002100910B4627
:105220000A46CF20044CA04701E0002001E06FF0C7
:10523000050003B0F0BD00BFE94C4000E8ED4000C0
:10524000B0E4400045764000E4F04000D8F640006D
:10525000FD4A400014F14000B94B40004CF14000C1
:105260002DE9F04385B00446884615460022009299
:105270002B460146C7204C4EB04701280BD040F2C8
:105280000F224A494A484B4DA84721464A48A84759
:105290004A48A84782E0C720494B9847012812D0C6
:1052A00040F2152241494248424DA847214645480F
:1052B000A8474248A847002100910B460A46CF2044
:1052C000394CA0476AE00024ADF80C403E4FDFF8AF
:1052D00010912E46B5F5005F28BF4FF400562CB94B
:1052E000B5F5005F94BF0323012304E0B5F5005F2B
:1052F00094BF0323022363F00F038DF80B300121C9
:105300000DF10B00B84750B14FF4D4722F49284823
:10531000284CA0472E48A0472848A04728E03146FF
:1053200008EB0400B84750B140F2B11227492048B9
:10533000204CA0472748A0472048A04718E099F8EC
:10534000003073B9022103A8B84750B140F2BB1234
:105350001E491748174CA0471F48A0471748A047A9
:1053600006E0344424B2AD1BADB2002DB1D113E040
:1053700040F226220D490E480E4CA0471748A04780
:105380000E48A04700240094234622462146CF2001
:10539000054DA847204603E0002001E06FF005001E
:1053A00005B0BDE8F08300BFE94C4000C0F240000A
:1053B000B0E440004576400074F14000D8F640006B
:1053C000FD4A4000A4F14000C94C4000D8ED400027
:1053D000DCF1400014F2400048F2400080F240004E
:1053E000740940202DE9F84FBDF82840002C47D023
:1053F00081460E469246984603012249CB58002B1F
:105400003ED001EB00139B889BB2002B38D001EB00
:1054100000139B7ADBB2012B32D1F48001EB001731
:10542000DFF878B0BB88E31A1BB2002B03DDBD8820
:10543000ADB2002301E02546012339682A464046E3
:10544000D847A8B93B683360B580F3885B1BF3800D
:105450000D4B1B682BB10C4B1B683246514648461E
:105460009847641BA4B2A844002CDBD1BDE8F88F98
:105470000648074DA84721460648A8470648A847BA
:10548000BDE8F88F9C1540204C16402070E7400086
:1054900045764000ECF24000D8F64000513B400019
:1054A000F0B599B01446412819D10023042207A968
:1054B0002046A44CA047002840F041819DF81D30B3
:1054C0008DF80C30A04B1B68002B00F038819E4BF0
:1054D0001B6803AA01219DF91C0098472FE10D4686
:1054E000422819D10023042207A92046954CA04741
:1054F000002840F024819DF81D308DF80C30924B2F
:105500001B68002B00F01B818F4B1B6803AA022134
:105510009DF91C00984712E143283FD100230C223B
:105520000DEB02012046874CA047002840F0078180
:105530009DF91530002B19DB844A02EB0312002180
:10554000D1720121917282490A88013292B20A8095
:105550000A8892B21AB90A88013292B20A807C4A49
:10556000118889B2794A02EB0312D1808DF81C3080
:105570000223ADF82030BDF80E30ADF82230049B88
:105580000993714B1B68002B00F0D9806E4B1B6890
:1055900007AA04219DF914009847D0E0442801D0BF
:1055A0004B2824D10023042207A92046654CA0479C
:1055B000002840F0C4809DF91C008DF80C009DF976
:1055C0001D308DF80D303BB9BDF81E30083B9BB245
:1055D0005E4A02EB001213815B4B1B68002B00F04C
:1055E000AE80594B1B6803AA05219847A7E04A28BB
:1055F00013D10023442207A92046524CA04700287B
:1056000040F09D80534B1B68002B00F09880514B5D
:105610001B68179907A8984791E0A0F14603DBB2F1
:10562000072B4DD8852222FA03F313F0010F47D040
:10563000482814BF062709270023102203A9204663
:10564000404EB04700287AD19DF91800BDF81A10D5
:105650003E4A02EB001200231373BDF914E0BDF8BB
:105660001630BDF80E60ADF82660049E0A96D2880A
:1056700092B291421BD1BEF1000F0ADDAE4508DAAD
:105680001FFA8EF2009223443A4607A9324CA047F3
:1056900055E0ADF820E0002307932B4B1B68002B4F
:1056A0004DD0294B1B6807AA3946984747E0102D73
:1056B00045D90123002211461046224CA0473EE066
:1056C00000F0FD03452B01D04C2823D1472814BFFF
:1056D000072508250023082207A92046194CA047C2
:1056E00000282CD19DF91C00BDF82020BDF81E30EB
:1056F000ADF80C30154B03EB0013DB889BB29A42DC
:105700001DD1114B1B68D3B10F4B1B6803AA29464F
:10571000984714E0522812D10123142207A92046E9
:10572000084CA04758B90D4B089A1A601B6833B152
:105730000A4B1B689DF82C2009990798984719B0C7
:10574000F0BD00BF513B40004C1640209C1540204E
:105750007609402054164020E55340005016402062
:1057600008B50A4B1B7813F0FF0F0ED1B0220021B1
:105770000748084B984708490220084B98470122E0
:10578000024B1A700022064B1A8008BD7509402092
:105790009C154020F5344000A1544000613C40007D
:1057A00076094020024B1860024B1960704700BF19
:1057B0004C1640205416402070B586B002284BD1BC
:1057C00001294CD002294DD04FF0FF3458E0254636
:1057D00000EB04139B7A13F0FF0F36D12A4800EB3D
:1057E0000410164610220021284B9847264B03EB45
:1057F000051301229A72264A138801339BB2138043
:1058000013889BB21BB9138801339BB21380204BC2
:105810001A8892B21C4B03EB0513DA8064B216F0BF
:10582000010F2DD006AA02F8044D174B03EB051506
:105830002123EB7200230293019300930423502150
:105840000220144DA8471BE00F480134E4B28C42FB
:10585000BDD34FF0FF3413E04FF0FF3410E00721C9
:10586000002401E00B2107242546074B03EB04131A
:105870009B7A13F0FF0FE7D1034800EB0410B0E769
:10588000204606B070BD00BF9C154020F534400096
:105890007609402059364000002838DB002936D0F0
:1058A0001F4B03EB00139B7ADBB2002A32D0012B93
:1058B00030D130B589B01A4B03EB0013DB7A13F00B
:1058C000010F07D0164B03EB0013DB7A8DF81D3068
:1058D0004B2500E0442504468DF81C00082205A84D
:1058E000104B98470E4800EB0410C388ADF81E30EB
:1058F00000230293019300930C2305AA294602205A
:10590000094CA047002818BF6FF0080005E06FF0B1
:10591000050070476FF00500704709B030BD00BF4B
:105920009C154020E13440005936400030B589B024
:105930000C46003118BF0121B2F5AF6F88BF0021BE
:10594000002936D0002834DB1D4B03EB00139B7A73
:10595000DBB2012B30D18DF81000ADF81220184BBE
:1059600003EB0013DB88ADF81C300728B4BF5025CB
:105970004425134B03EB0013DB7A13F0010F06D021
:105980000F4B03EB00100589ADB24C2100E045211F
:1059900002950192009410230DEB030241F0800167
:1059A0000220084CA04700280CBF00206FF00D001B
:1059B00004E06FF0050001E06FF0050009B030BDB4
:1059C0009C15402059364000002918BF002A45D0B8
:1059D00070B586B00E461546002836DB214A02EB2C
:1059E0000012927AD2B2012A32D11E4C0101621801
:1059F00066509580127B12F0FF0F2CD104EB001241
:105A000001211173D27A0A40002A0CBF46214D2190
:105A10001BB94FF0FF33049300E004938DF814009A
:105A2000104B03EB0010C388ADF81630002302932F
:105A300001930093082304AA02200B4CA0470028DE
:105A40000CBF00206FF00D0006E06FF0050003E0D2
:105A50006FF0050000E0002006B070BD6FF005009B
:105A6000704700BF9C1540205936400030B587B0C4
:105A700000282EDB1B4B03EB00139B7ADBB2012BC0
:105A80002AD104468DF81400164B03EB0013DA8874
:105A9000ADF8162000229A72DA80DB7A03F0010357
:105AA00093420292019200924FF0040305AA0CBFA8
:105AB00049214E2102200C4DA847051E18BF6FF04A
:105AC000080510220021074800EB0410074B9847F7
:105AD00004E06FF0050501E06FF00505284607B00A
