S0150000574946492D57494E43313530302E73726563BC
S21440000098304020253B4000213B4000213B4000AB
S214400010213B4000213B4000213B400000000000C7
S214400020000000000000000000000000213B4000EF
S214400030213B400000000000213B4000213B4000A7
S214400040213B4000213B4000213B4000213B4000FB
S214400050213B4000213B4000213B4000213B4000EB
S214400060213B40000000000011364000253640008D
S21440007039364000213B4000213B4000213B4000B8
S2144000804D36400061364000213B4000213B400059
S214400090213B4000213B4000213B4000213B4000AB
S2144000A0213B4000213B4000213B4000213B40009B
S2144000B0213B4000213B4000213B4000213B40008B
S2144000C0213B4000213B4000213B4000213B40007B
S2144000D000000000213B400000000000213B4000A3
S2144000E0213B4000213B4000213B4000213B40005B
S2144000F0213B4000213B4000213B4000213B40004B
S214400100213B4000213B4000213B4000213B40003A
S214400110213B4000000000000000000000000000FE
S214400120213B4000213B4000213B4000213B40001A
S214400130213B400000000000213B4000213B4000A6
S21440014010B5054C237833B9044B13B10448AFF3CC
S21440015000800123237010BD3C09402000000000B1
S214400160E8C64000084B10B51BB108490848AFF335
S21440017000800848036803B910BD074B002BFBD02E
S214400180BDE81040184700BF00000000400940206E
S214400190E8C64000E8C6400000000000102808D12D
S2144001A0B1F1805F05D108B5024B1B6803B1984793
S2144001B008BD70475809402040B170B50446044E0B
S2144001C0044D3046A847013CFBD170BD704700BF88
S2144001D035160300010040202DE9F041094F4FF449
S2144001E00038C7F83480084D08266E636420074CF4
S2144001F0A047C7F830806420A0472E636420A047FD
S214400200BDE8F08100120E4000100E40B9014000DB
S21440021010B50022144B1A600A20144CA0470B203D
S214400220A0470C20A0471020A0471120A047104B05
S21440023008221A61C3F8A0201A630E4A4FF4003110
S2144002401161C2F8A010116304221A61C3F8A020FD
S2144002501A63094B1B6813F0010F01D0064B1B684D
S214400260064B9847002010BD5809402021384000D2
S21440027000100E4000120E4010E000E0D901400091
S21440028030B583B0144B18601020144B98474FF08D
S21440029020517C20124B9847124C01224FF080513F
S2144002A02046114B9847114B009351234FF08052F4
S2144002B0102120460E4DA8474FF0805120460D4B4A
S2144002C098474FF480320C4B1A600022102120468B
S2144002D00A4B984703B030BD5809402021384000AB
S2144002E02134400000140E40DD3240009D014000A5
S2144002F0A53540001134400000E100E0753640006E
S21440030008B528B14FF080510448054B984708BDC2
S2144003104FF080510148034B984708BD00140E40EB
S2144003201134400015344000F8B5394C4FF4801174
S2144003302166C4F8901061656162C4F88010236F2E
S2144003400B432367636F23F4801363674FF40012F5
S2144003502266C4F8902062656262C4F88020236FEB
S21440036013432367636F23F4001363674FF48003DC
S2144003702366C4F8903063656362C4F88030206FAB
S21440038018432067606F20F4800060676160626099
S21440039063604FF0007666602660266126631D4DDA
S2144003A028461D4B984702232B6080232B606B68A2
S2144003B043F001036B606B6843F010036B600121F0
S2144003C02846164B9847002201212846144B98474A
S2144003D0012211462846134B984700220121284601
S2144003E0114B984711491248124B9847C2B2012107
S2144003F02846114B984700231A46012128460F4F9E
S214400400B84701232B6026630D4B98470020F8BD64
S21440041000140E400080004075384000A13840006F
S21440042025394000453940006539400000A3E111B8
S214400430006CDC027939400091394000BD394000FB
S214400440D90140002DE9F04F83B0032841D10E6812
S2144004504D680C8900238DF80430ADF8063036B16F
S214400460002D33D14FF00108994601AD04E04FF01E
S21440047000084FF0010901AE4FF000721C4B5A6362
S214400480F4B11C4FDFF884B0DFF884A000231A468E
S21440049031783846D8470DF105020DF10601384649
S2144004A0D047BDF806302B70013CA4B2B8F1000F1F
S2144004B000D10135B9F1000F00D10136002CE5D14D
S2144004C04FF000720A4B1A6300200EE06FF00500F2
S2144004D00BE040F21F1208490848094CA04709485B
S2144004E0A0470948A0474FF0FF3003B0BDE8F08F63
S2144004F000140E4000800040D0B24000A0B2400041
S21440050059454000B4B24000CCB24000ED384000FF
S214400510B938400002220E4B1A6003F5592303F502
S21440052080634FF400125A61C3F8A0204FF4801243
S2144005305A61C3F8A0204FF480025A61C3F8A02045
S2144005404FF000725A61C3F8A0200020704700BFE9
S214400550008000403AB10139821811F8013F00F896
S214400560013B9042F9D1704722B1821800F8011B36
S2144005709042FBD1704700BF034602783AB1002054
S214400580013080B213F8012F002AF9D170470020BD
S214400590704700BF024A13780133DBB213707047CE
S2144005A064094020704700BF00B583B001200B4B64
S2144005B0984701A941F27000094B9847034640B955
S2144005C0019941F00201019141F27000054B9847B4
S2144005D00346184603B05DF804FB00BF0103400025
S2144005E0451C4000511C400008B5114B1B7813F0C9
S2144005F0FF0F15D10F4B1B78DBB2032B04D00D4BEE
S2144006001B78DBB2042B0BD10B4B9847034668B9DB
S21440061045F2786141F27400084B9847034628B982
S214400620034A13780133DBB213700023184608BD23
S2144006308009402070094020C1164000511C4000EF
S21440064000B583B01D4B1B7813F0FF0F04D01B4A38
S2144006501378013BDBB21370184B1B7813F0FF0F77
S21440066025D1174B1B78DBB2032B04D0144B1B78D9
S214400670DBB2042B1DD10023019344F2213141F219
S2144006807400104B98470346A0B901A901200E4BB1
S2144006909847034670B9019911F0020F0AD021F02D
S2144006A0020101910120074B9847034602E00023D0
S2144006B000E00023184603B05DF804FB80094020A4
S2144006C070094020511C4000451C40002DE9F04F69
S2144006D087B080460F4692469946109CBDF84460C7
S2144006E0BDF8485001F07F038DF815308DF81400A2
S2144006F00823ADF8163044B1BDF8163016FA83F329
S2144007002B449BB2ADF8163006E0BDF8163019FA09
S21440071083F39BB2ADF81630574B98478346002874
S21440072040F0958000230393ADF806300293029B79
S21440073048EA03030293029B43EA07270297BDF861
S2144007401620029B43EA02430293029941F28C0030
S2144007504A4B98478346002840F08A8000230293FD
S214400760029B43F002030293029941F27800434B06
S2144007709847834600287BD100230393ADF8063084
S214400780BDF806309BB2B3F57A7F1ED241F27808A8
S2144007903B4F02A94046B847B8B9029B13F0020F38
S2144007A007D103A93748364B984770B100230393C7
S2144007B00BE0BDF8063001339BB2ADF80630BDF80D
S2144007C006309BB2B3F57A7FE3D3039B002B4DD024
S2144007D0039B0493BDF816309BB2ADF816300498D0
S2144007E0082205A9284B98478346002840D1049BF9
S2144007F008330493BAF1000F0AD004984A4651468B
S214400800214B98478346002832D1049B4B4404939F
S21440081074B1049BC9EB05051D4404950498324603
S2144008202146194B9847834610BB049B1E440496AA
S214400830039B9B000293029B43F0020302930299A0
S21440084041F26C000D4B9847834688B90AE040F267
S2144008509F120E490E480F4CA0470F48A0470F481E
S214400860A04705E00E4B9847834601E06FF0020B29
S214400870584607B0BDE8F08FE9054000511C4000DF
S214400880451C400000041500BD1C400038B5400023
S214400890A0B2400059454000F4B24000CCB24000FF
S2144008A0410640002DE9F04387B0DFF8FC92A34FA5
S2144008B0DFF8F882A24E7BE199F80030013BDBB2CC
S2144008C089F80030B8470446002840F01A8103A94A
S2144008D041F270009B4B98470446002840F0068142
S2144008E0039B13F0010F00F0F580974B9847039950
S2144008F021F00101039141F27000944B9847044661
S214400900002840F00E810022914B1A70039DC5F3DB
S2144009108B05002D00F0D18006A941F8042D41F248
S2144009208400884B9847044668B14FF4E7724146C6
S2144009303046884DA8478848A8478848A847012099
S214400940814B9847EBE0042204A90598844B9847CE
S214400950BDF812309BB2ADF81230044668B14FF481
S214400960EB72414630467B4DA8477E48A8477B48B9
S214400970A8470120744B9847D1E0BDF812309BB28F
S2144009809D421ED0BDF812309BB2EB1A042B18DDE8
S21440099040F2DF12414630466E4CA047BDF812206A
S2144009A09DF810309DF81110009192B229466E487D
S2144009B0A0476A48A0470120634B98476FF005045C
S2144009C0ADE09DF81030DBB2012B0DD1674B1B68B4
S2144009D0002B60D09DF81100BDF812100839059A1A
S2144009E0083289B2984756E09DF81030DBB2022BA9
S2144009F00DD15F4B1B68002B4DD09DF81100BDF804
S214400A0012100839059A083289B2984743E09DF893
S214400A101030DBB2042B0DD1564B1B68002B3AD05E
S214400A209DF81100BDF812100839059A083289B2AF
S214400A30984730E09DF81030DBB2062B0CD14E4B79
S214400A401B6843B39DF81100BDF812100839059A8B
S214400A50083289B298471EE09DF81030DBB2072B6B
S214400A600CD1464B1B68B3B19DF81100BDF812106F
S214400A700839059A083289B298470CE040F20222BB
S214400A8041463046334CA0473D48A0473348A047F0
S214400A906FF0050443E02E4B1B7813F0FF0F3BD15D
S214400AA040F20922414630462A4CA0473548A047E6
S214400AB02A48A047344B98472EE040F21122414640
S214400AC03046244CA0473148A0472448A0476FF002
S214400AD0010426E04FF40672414630461D4CA047BE
S214400AE003992B48A0471D48A04715E040F21E2218
S214400AF041463046174DA8472648A8471748A847B6
S214400B000FE04FF4097241463046124DA84722483E
S214400B10A8471248A84704E0204B98470446002CB4
S214400B2046D040F243221E4930460A4DA847214649
S214400B301C48A8470948A847C4E600BFE905400046
S214400B40A0B24000451C400001034000511C40003C
S214400B50780940205945400014B34000CCB24000CC
S214400B605D1C40003CB3400054B340006009402048
S214400B70740940207C0940205C0940206C094020D4
S214400B8094B34000ACB34000A9054000D0B3400049
S214400B90E4B3400000B4400024B4400041064000A6
S214400BA044B5400044B4400064094020E0B24000F0
S214400BB099F8003013F0FF0F7FF47EAE002007B0A8
S214400BC0BDE8F0832DE9F04383B01C46002A18BFE9
S214400BD0002903D005460F461646A0B934B1012277
S214400BE0314B1A70314B9847034658E040F2692221
S214400BF02F493048304CA0473048A0473048A0479F
S214400C006FF00B034BE0694641F270002D4B98475E
S214400C100346002843D1DDF8008001A941F2840054
S214400C20284B98470346002839D1C8F38B084645D9
S214400C300ED940F27A221E491E481F4CA047424613
S214400C4031462148A0471E48A0476FF00B0326E0D8
S214400C50019B9D4204D305EB0609434499450CD9B4
S214400C604FF4207212491348134CA0471748A04728
S214400C701348A0476FF00B0311E03246394628462A
S214400C80134B9847034650B9019A42444A4500D010
S214400C902CB10122044B1A70044B98470346184661
S214400CA003B0BDE8F08300BF78094020A9054000A6
S214400CB0E8B24000A0B240005945400074B440003D
S214400CC0CCB24000451C400094B44000D8B440002C
S214400CD05D1C400038B5431E062B1DD8DFE803F0E8
S214400CE00804100C1C141800134B1960002038BD63
S214400CF0124B1960002038BD114B1960002038BDDA
S214400D00104B1960002038BD0F4B1960002038BDCD
S214400D100E4B1960002038BD044640F2B9220C49FB
S214400D200C480D4DA84721460C48A8470C48A847F4
S214400D306FF00B0038BD00BF7409402060094020AA
S214400D407C094020680940205C0940206C0940200E
S214400D5028B54000A0B24000594540001CB54000B0
S214400D60CCB2400010B50024094B1C60094B1C60F7
S214400D70094B1C70094B1C70094B1C7009480A4BE8
S214400D8098470A4903200A4B9847204610BD00BFA3
S214400D9060094020740940208009402070094020A6
S214400DA0640940209505400081024000A5054000AA
S214400DB0D50C400030B59FB015462C2811D10023E5
S214400DC0042203A92846904CA047002840F01981E9
S214400DD08E4B1B68002B00F0148103A92C209847EB
S214400DE00FE104461B2811D10023082203A92846F8
S214400DF0854CA047002840F00481844B1B68002B9C
S214400E0000F0FF8003A91B209847FAE0062811D17E
S214400E100123302203A928467B4CA047002840F0F7
S214400E20F0807A4B1B68002B00F0EB8003A906206D
S214400E309847E6E00E2800F0E480322811D10023DF
S214400E40102203A92846704CA047002840F0D980BD
S214400E506E4B1B68002B00F0D48003A932209847C5
S214400E60CFE02F2816D16422002103A8684B98476C
S214400E700023642203A92846634CA047002840F07C
S214400E80C080624B1B68002B00F0BB8003A92F205C
S214400E909847B6E0342820D10023042203A92846E8
S214400EA0594CA047002840F0AC805A485A4CA047BE
S214400EB003990B0E0093C1F30743C1F30722C9B24F
S214400EC05648A0475648A047504B1B68002B00F09A
S214400ED0988000213420984793E0112816D10023AB
S214400EE0504A1370042203A92846474CA0470028BE
S214400EF040F087809DF80C204B4B1A70434B1B6884
S214400F00002B7ED003A9112098477AE013280FD1F2
S214400F1000232C2203A928463B4CA047002870D12A
S214400F203A4B1B68002B6CD003A91320984768E007
S214400F3004280FD1002304221CA92846324CA0477F
S214400F4000285ED1314B1B68002B5AD01CA90420C8
S214400F50984756E065280FD1002304221CA928464E
S214400F60294CA04700284CD1284B1B68002B48D062
S214400F701CA96520984744E009280FD10123642224
S214400F8003A92846204CA04700283AD11F4B1B688F
S214400F90002B36D003A90920984732E02A280DD1E5
S214400FA00123042203A92846174CA04748BB174BE9
S214400FB01B6833B303A92A20984722E0202815D17E
S214400FC00023082203A928460F4CA047C8B901238E
S214400FD0BDF81020039905F10800A04788B90B4BCF
S214400FE01B6873B103A9202098470AE04FF4957216
S214400FF00E490F48084DA84721460E48A8470848BE
S214401000A8471FB030BD00BFC50B40008409402034
S2144010106905400090B54000594540009CB54000E9
S214401020CCB24000880940208909402068B540007D
S214401030A0B24000BCB5400010B560B940F24312C3
S2144010404E494F484F4CA0474F48A0474F48A047AF
S2144010506FF00B0010BD04464D4B984720B120461C
S2144010604B4B984720280CD94FF4A5724349444827
S214401070444CA0474748A0474448A0476FF00B0061
S21440108010BD94F821300D2B0CD940F251123B493B
S2144010903B483C4CA0474048A0473C48A0476FF0E0
S2144010A00B0010BD94F8413093B994F842307BB9A8
S2144010B094F8433063B94FF4AD7230493048314C00
S2144010C0A0473648A0473148A0476FF00B0010BDF8
S2144010D094F83F30012B4CD0032B3DD194F822306E
S2144010E0013BDBB2032B0CD940F26912234924485A
S2144010F0244CA0472A48A0472448A0476FF00B003E
S21440110010BD94F8233003F0EF030A2B0CD04FF4B5
S214401110B9721A491A481B4CA0472248A0471B4898
S214401120A0476FF00B0010BD243408D02046184B63
S214401130984720B12046164B98471A281BD940F2AC
S21440114079120E490E480F4CA0471748A0470F4843
S214401150A0476FF00B0010BD4FF4C0720749084817
S214401160084CA0471148A0470848A0476FF00B001E
S21440117010BD002010BD002010BD00BF74B540005B
S214401180A0B2400059454000D0B54000CCB2400027
S21440119079054000E4B54000F4B5400000B6400094
S2144011A018B640002CB6400040B6400054B640004A
S2144011B0F0B58BB001238DF8073000284ED002687A
S2144011C0294B1A600022294B1A700DF10700284B54
S2144011D098470446002843D1264B984704460028A3
S2144011E038D125490120254B984702A8244B9847DB
S2144011F00446244F3846244DA8479DF80E309DF8A7
S2144012000D209DF80C102148A847214E3046A8478F
S2144012103846A8479DF811309DF810209DF80F10CD
S2144012201C48A8473046A8473846A847002303220C
S21440123013211948A8473046A84714F10D0F0FD17F
S21440124040F2D51215491648A8471648A8473046D2
S214401250A84705E00020144B984701E06FF00B04C8
S21440126020460BB0F0BD00BF8409402088094020CE
S214401270C91D4000650D4000B50D4000D50C40002E
S2144012801D1D400090B540005945400074B64000D2
S214401290CCB2400090B64000ACB64000B8B8400073
S2144012A0A0B24000C8B64000911E400008B5014BB1
S2144012B0984708BDA50840002DE9F041A0B08046FB
S2144012C00D4614461E46BDF89870012A45D063B9AF
S2144012D040F203227A497B487B4CA0477B48A04794
S2144012E07B48A0476FF00B00E7E0022A35D118464E
S2144012F0784B9847402830D13378A3F13002D2B2A9
S214401300362A1BD8A3F13A02D2B2062A16D9473B50
S214401310DBB2192B12D9314606F13F0011F8013FD6
S214401320A3F13A02D2B2062A08D9A3F13002D2B2C9
S214401330362A03D8473BDBB2192B0CD840F20F2293
S2144013405F496048604CA0476348A0476048A04754
S2144013506FF00B00B1E08842E0D16B1EDBB21F2B72
S2144013600CD940F2192256495648574CA0475B487C
S214401370A0475748A0476FF00B009EE0FF2F0ED0C7
S2144013800D2F0CD940F222224D494E484E4CA047D4
S2144013905348A0474E48A0476FF00B008DE02A46C2
S2144013A041460DF15A004F4B984720AB1D44002351
S2144013B005F8263CADF858709DF89C30003318BFB1
S2144013C001238DF87B308DF85540032C38D1337887
S2144013D0013BDBB28DF81430032B0ED940F2392294
S2144013E037493848384CA0479DF814103E48A04727
S2144013F03748A0476FF00B005FE07278531E8DF8B9
S214401400153002F0EF030B2B0ED04FF410722C4920
S2144014102C482D4CA0479DF815103448A0472C4822
S214401420A0476FF00B0048E0B11C0DF116002D4BA5
S2144014309847737820AA1344002203F86A2C32E0B7
S214401440022C19D13046234B9847431E9BB23F2B64
S2144014500CD940F24F221A491A481B4CA047244840
S214401460A0471B48A0476FF00B0026E0421C3146C1
S21440147005A81C4B984716E0042C05D13E22314661
S21440148005A8184B98470EE0012C0CD040F25F227E
S2144014900B490C480C4CA0471648A0470C48A047A0
S2144014A06FF00B0009E000230293019300936C2336
S2144014B005AA28210120104CA04720B0BDE8F081A5
S2144014C054B54000A0B2400059454000E4B6400044
S2144014D0CCB2400079054000F8B6400008B740005E
S2144014E01CB740005505400028B7400044B74000B0
S2144014F060B740007CB74000CD06400010B582B0D3
S21440150000240194BDF810400094024CA04702B05D
S21440151010BD00BFB912400010B586B00622014685
S21440152004A8074B9847002302930193009308238F
S21440153004AA02210120034CA04706B010BD00BFFC
S21440154055054000CD0640000020704738B504469B
S2144015500D46074B9847034640B929462046054B5B
S2144015609847034610B9044B98470346184638BD7B
S214401570E90540002D1B40004106400010B50446DA
S214401580064B9847034638B92046054B98470346CE
S21440159010B9044B98470346184610BDE90540006D
S2144015A0C11B40004106400010B590B0302928BF0E
S2144015B030214A1CD2B2014604A8074B9847002364
S2144015C0029301930093302304AA07210120034C81
S2144015D0A04710B010BD00BF55054000CD064000E6
S2144015E0002836D070B5A8B0044616460D461B4BAC
S2144015F0984700282AD14822214605A8184B9847E4
S2144016002846184B984705B160B940F24A421649F9
S2144016101648174CA0471748A0471748A0476FF0F2
S2144016200B0019E04022294617A80D4B98478DF825
S2144016309C600023114A13700293019300938C23FD
S21440164005AA882101200E4CA04705E06FF00B004C
S21440165002E06FF00B00704728B070BD39104000B4
S2144016605505400079054000C8B84000A0B240008B
S2144016705945400068B84000CCB240008809402038
S214401680CD064000F0B583B004464FF4A5550A4E4B
S2144016900A4F21462846B04754B102A9002341F8D4
S2144016A0043D2846B8470028F3D1019B9C42F0D120
S2144016B0002003B0F0BD00BF511C4000451C400058
S2144016C02DE9F04F83B001203D4B984701A90120FA
S2144016D03C4B9847824648B172223B493B483C4C7B
S2144016E0A0473C48A0473C48A04764E000244FF051
S2144016F00108DFF8F890324D384F019941F0020169
S2144017004046C8474046A8476946354B18682D4B63
S214401710984718B9009B0BB1314E37E0304E0E2338
S21440172033604046A84769463068264B984710B90C
S214401730009B002BF0D12A4E132333604046A84727
S214401740694630681F4B984706460028E4D09622E4
S2144017501D491E481E4CA0472248A0471E48A04789
S214401760B24628E00220A84769463068154B98479D
S214401770009B13F0040F09D1AA2213491348DFF83F
S21440178050B0D8471848D8471348D847009B13F05E
S214401790040F10D10134A7FB04235B0803EB43037B
S2144017A09C42DFD0019941F002014046C847009B69
S2144017B013F0040FA1D0504603B0BDE8F08F00BF31
S2144017C0B9014000451C4000F4B84000A0B24000BB
S2144017D05945400004B94000CCB24000ABAAAAAA82
S2144017E01000402024B9400044B94000511C40003D
S2144017F000B583B001A941F20840154B9847E0B9BF
S214401800019941F48071019141F20840114B98478B
S214401810B0B901A94FF4D0500D4B984798B90199EB
S21440182041F4803101914FF4D0500A4B984700283C
S21440183014BF6FF00500002007E06FF0050004E0DD
S2144018406FF0050001E06FF0050003B05DF804FBA3
S214401850451C4000511C400010B582B0244B1C680B
S214401860002C40D119464FF48050224B984718B16F
S21440187000221F4B1A6038E001A941F2F4301D4B9C
S214401880984718B100221A4B1A602EE0184B1B6876
S214401890194A934206D1019B012B1DD00132144BAD
S2144018A01A6019E0154A934209D1019B032B13D0C5
S2144018B0042B0CBF0132124A0D4B1A600CE0114A41
S2144018C0934209D10A494FF46C100A4B984718B115
S2144018D00022074B1A6008E0054A136823F4702379
S2144018E043F4A0231360024B1C68204602B010BD90
S2144018F08C094020451C4000A0021000B002100099
S214401900B2021000F00010002DE9F041074641F207
S2144019101405284C284E2846A047002802DB012004
S214401920B047F8E72548234B984710F0010F10D1F1
S214401930DFF884801F4E224D0120C0474FF00C1028
S214401940B04704462A4601461E481F4B9847AC42BD
S214401950F2D1022F0AD11D491D481E4CA0474FF414
S214401960801141F28C00A04700240FE0032F09D1DC
S21440197016491748174CA047002141F28C00A04753
S214401980002403E0042F14BF00248024124B984701
S214401990C0F30B00B0F5687F0CBF44F00200204651
S2144019A00E4B98470E494FF00C100A4B98470020B4
S2144019B0BDE8F081391C4000B9014000BC07020078
S2144019C09ED0AD1090B94000594540007DD51C3C96
S2144019D0AC070200511C40005918400085164000D4
S2144019E0612F52EFF0B583B041F28C030193184B50
S2144019F000930238C0B2012810D8164B0193A3F1C9
S214401A002253A3F51113A3F2E953009306E0384698
S214401A10B0470198A847013C06D113E04FF0FF3489
S214401A20002002270C4E0D4D009B9842EFD1009AA5
S214401A30074B9A4209D1002141F28C00084B984747
S214401A40002003E06FF0040000E0002003B0F0BD8B
S214401A5036265302AC070200B9014000391C40004C
S214401A60511C4000F0B583B002A9002341F8043D64
S214401A704FF4A050244B984748B140F231222349B6
S214401A802348244CA0472448A0472448A04701990F
S214401A9021F4806101914FF4A050214B98470546B0
S214401AA058B140F23722194919481A4CA0471D48E8
S214401AB0A0471A48A047284624E00A24124E184F4A
S214401AC001A94FF4A050B047054658B140F23E2217
S214401AD00E490F480F4CA0471348A0470F48A04751
S214401AE028460FE0019911F4806F0AD021F48061F6
S214401AF001914FF4A050B847631E13F0FF04DFD1A6
S214401B0000E0002003B0F0BD451C4000E8B84000AF
S214401B10A0B2400059454000A0B94000CCB24000B9
S214401B20511C4000BCB94000D8B9400070B586B0E2
S214401B3006460D4600230193029305A91A481B4BFF
S214401B409847044630BB082201A9059840F4403027
S214401B50174B98470446E8B901980590154B034043
S214401B602BB9062200213046134B984712E0000C52
S214401B700590062203A940F440300D4B9847044692
S214401B80062203A930460D4B984745B101232B70DA
S214401B90204607E02DB100232B70204602E0204669
S214401BA000E0204606B070BD08000C00451C400012
S214401BB05D1C40000000FFFF6905400055054000E1
S214401BC030B587B0054600230193029305A9104817
S214401BD0104B9847C0B9082201A9059840F44030F8
S214401BE00D4B984788B9BDF804000590062203A916
S214401BF040F44030084B98470446062203A928463E
S214401C00064B9847204600E0FFE707B030BD00BFD0
S214401C1008000C00451C40005D1C40005505400077
S214401C2008B5014B984708BD2903400008B5014B4D
S214401C30984708BD1505400008B5014B984708BDB4
S214401C408924400008B5014B984708BDA1244000B0
S214401C5008B5014B984708BDB92440002DE9F04728
S214401C60074689461546134BB3F80080A8F1080886
S214401C701FFA88F8424508D80026AAB209EB0601A2
S214401C8038460D4B9847034610E044460026DFF89A
S214401C9028A0424609EB06013846D047034628B9F5
S214401CA02D1B26442744A542F3D8E6E71846BDE850
S214401CB0F08700BF0C004020DD2540002DE9F047AE
S214401CC0074689461546134BB3F80080A8F1080826
S214401CD01FFA88F8424508D80026AAB209EB060142
S214401CE038460D4B9847034610E044460026DFF83A
S214401CF028A0424609EB06013846D047034628B995
S214401D002D1B26442744A542F3D8E6E71846BDE8EF
S214401D10F08700BF0C004020A926400030B583B0B5
S214401D20044602A9002341F8043D2348234B984724
S214401D300546019A224B9A4205D101A941F2480034
S214401D401E4B98470546019B1A0C1112E171C2F3CF
S214401D500311217202F00F0262721A122271C3F34B
S214401D600312627103F00F03A371164B984720606D
S214401D702279A37903F00F0343EA022263791B0119
S214401D80DBB21343E179627A02F00F0242EA0121A4
S214401D90227A1201D2B20A4341F230318A4288BFD7
S214401DA06FF00C0541F22F3293428CBF28466FF0FD
S214401DB00C0003B030BD00BFAC070200451C40001D
S214401DC0C3C15DD75918400038B530B10478631E9A
S214401DD0DBB2042B28BF012400E0012400201D4B69
S214401DE09847054650B14FF492721B491B481C4C0D
S214401DF0A0471C48A0471C48A04729E01B48184D50
S214401E00A8471B4B984701461A48A8471648A84774
S214401E10194B98472046194B98470546B0B9204677
S214401E20174B9847054688B9023CE4B2012C0FD9B7
S214401E30144B9847054658B14FF4AE7206490748CA
S214401E40074CA0471048A0470748A0470F4B984765
S214401E50284638BD211C4000E0BA4000A0B24000F1
S214401E605945400034BA4000CCB2400090B54000DE
S214401E705918400050BA4000D1244000091940008B
S214401E80E5194000F117400060BA40002D1C4000A4
S214401E9038B5194B984758B104464FF4BA721749AB
S214401EA01748184DA8471848A8471848A84720E09C
S214401EB00020174B9847044650B140F27B120F491A
S214401EC00F48104DA8471348A8471048A84710E0A9
S214401ED0114B9847044650B140F2811207490848D2
S214401EE0084DA8470D48A8470848A84701E00C4BAE
S214401EF09847204638BD00BF651A4000ECBA4000FF
S214401F00A0B240005945400080BA4000CCB24000E4
S214401F10792F4000A0BA40002D1C4000C4BA4000B3
S214401F207D24400000B585B0002301930290ADF8B3
S214401F300C1001A90320024B984705B05DF804FB3E
S214401F4045044000F0B583B0054600F13B03DBB2E4
S214401F50012B01D9CF2806D101210DF10700224BD4
S214401F60984700283AD10B2401271F4E39460DF1D9
S214401F700700B04758B140F227121C491C481D4C78
S214401F80A0471D48A0471D48A047002029E09DF8CF
S214401F900730AB4205D0631E13F0FF04E6D10B2496
S214401FA000E00B240126104D31460DF10700A847EE
S214401FB058B140F235120D490D480E4CA0470E4818
S214401FC0A0470E48A04700200BE09DF807303BB1E5
S214401FD0631E13F0FF04E7D1012002E0002000E07A
S214401FE0012003B0F0BD00BF251F400010C14000D7
S214401FF0A0B240005945400034BC4000CCB240003E
S2144020002DE9F04F83B08246894693464FF000084C
S214402010354DB9F5005F94BF0FFA89F74FF4005776
S2144020200A24012631460DF10300A84758B140F274
S21440203057122E492E482F4CA0472F48A0472F48CE
S214402040A04700204DE09DF803301B090F2B05D01C
S214402050013C24B2B4F1FF3FE4D101E0002C0DDC9A
S21440206040F2631221492248224CA0479DF80310B3
S2144020702348A0472148A047002032E0BFB2394657
S2144020800AEB0800A84758B14FF4B67217491848EB
S214402090184CA0471B48A0471848A047002020E0FF
S2144020A0BBF1000F12D1184B1B787BB9022101A857
S2144020B0A84758B140F277120C490D480D4CA0473E
S2144020C01248A0470D48A04700200AE0B8440FFA3F
S2144020D088F8C7EB09071FFA87F9B9F1000F98D1BE
S2144020E0012003B0BDE8F08F251F4000FCBA400039
S2144020F0A0B240005945400068BC4000CCB2400009
S2144021009CBC4000CCBC40009009402000BD400034
S21440211000B585B0019000230293ADF80C1001A9DC
S2144021200320024B984705B05DF804FB4504400089
S21440213070B584B09DF820408DF80400C1380E2854
S21440214000F2AE80DFE800F03E3E5F12232C4D4D9D
S2144021507808ACACACAC35000B0C8DF805300B0AEF
S2144021608DF806308DF807100521A4E0C1F307234B
S21440217014B98DF8053003E063F07F038DF8053021
S2144021808DF8061000238DF80730052193E00023D4
S2144021908DF805308DF806308DF8073005218AE039
S2144021A000238DF805308DF806308DF80730052170
S2144021B081E0FF238DF805308DF806308DF8073026
S2144021C0052178E00A0C8DF805200A0A8DF80620CD
S2144021D08DF807101A0A8DF808208DF80930072167
S2144021E069E00A0C8DF805200A0A8DF806208DF85D
S2144021F007101A0C8DF808201A0A8DF809208DF859
S2144022000A30082157E0C1F3072314B98DF805308A
S21440221003E063F07F038DF805308DF80610130E4B
S2144022208DF80730130C8DF80830130A8DF80930F6
S2144022308DF80A2008213EE00B0C8DF805300B0A7D
S2144022408DF806308DF80710130E8DF80830130CF5
S2144022508DF80930130A8DF80A308DF80B200921C5
S21440226029E012F8013B83EA4003E05C9542F8D14E
S21440227004AB1E44430006F80C3C01E00139C9B2E9
S21440228001A8104B984768B14FF484720E490F4826
S2144022900F4CA0470F48A0470F48A04700200FE02C
S2144022A000200DE001200BE04E1E01AB9D197F2063
S2144022B01A460A4CD5E70A4B1B78002BDED1F3E7CB
S2144022C004B070BD11214000F8C04000A0B24000EC
S2144022D05945400038BD4000CCB240000CBB4000E1
S2144022E09009402070B582B00446312835BF01239E
S2144022F00023C325C925009304230A4601462846E1
S214402300164EB04701280CD040F2EB12144915483F
S214402310154DA84721461548A8471548A847002008
S2144023201AE02846134B9847012814D040F2F11281
S2144023300B490C480C4DA84721460F48A8470C4867
S214402340A84700240094234622462146CF20034D2A
S214402350A847204600E0012002B070BD3121400071
S214402360E8C04000A0B240005945400064BD40006F
S214402370CCB24000451F400090BD40002DE9F041E2
S21440238084B004468846B0F5807F35BF01260026D7
S214402390C425CA25009604230022014628462D4F10
S2144023A0B84701280CD040F245222B492B482C4DEB
S2144023B0A84721462B48A8472B48A847002045E079
S2144023C028462A4B9847012814D040F24B222249EF
S2144023D02248234DA84721462548A8472248A847D3
S2144023E000240094234622462146CF20194DA84774
S2144023F020462BE03246042103A81E4B984701286E
S21440240013D040F2532214491448154CA0471A489A
S214402410A0471548A047002400942346224621465C
S214402420CF200C4DA847204610E09DF80D109DF893
S2144024300E20130443EA01229DF80C3013439DF806
S2144024400F2043EA0263C8F80030012004B0BDE81C
S214402450F08100BF312140001CC14000A0B24000C6
S21440246059454000C8BD4000CCB24000451F400022
S214402470F4BD40000120400028BE40000020014B33
S214402480187070479009402000B583B001A9034BEF
S2144024909847019803B05DF804FB00BF7D234000D9
S2144024A008B5044B984701280CBF00206FF0050084
S2144024B008BD00BF7D23400008B5044B984701285F
S2144024C00CBF00206FF0050008BD00BFE5224000AD
S2144024D030B583B0002302A941F8083D324A137054
S2144024E04EF62400314B9847F0B901222E4B1A7015
S2144024F040F2C5222E492F482F4CA0472F48A047D0
S2144025002F48A04769464EF62400284B9847044675
S21440251050B94FF4327226492648274DA8472948D5
S214402520A8472748A8473CE01F4B1B78CBB90099E3
S21440253021F07C0141F0500100914EF62400224BE0
S2144025409847044650B940F2D222194919481A4DC4
S214402550A8471E48A8471A48A84722E00122124B1F
S2144025601A7001A94FF48050104B984760B94FF449
S21440257037720F490F48104CA0471548A0471048DF
S214402580A0476FF005040CE04EF62400114B984728
S21440259020F0700141F050014EF624000E4B984753
S2144025A00024204603B030BD900940207D234000E3
S2144025B00CBC4000A0B240005945400048BE400018
S2144025C0CCB2400098BE4000E5224000C8BE400065
S2144025D0FCBE400089244000B9244000F0B583B0DA
S2144025E004460F461546002200922B460146C82058
S2144025F0234EB04701280BD04FF41D722149224884
S214402600224DA84721462248A8472248A84732E0FC
S214402610C820214B9847012812D040F27A22194907
S21440262019481A4DA84721461C48A8471948A847A4
S214402630002100910B460A46CF20114CA0471AE0D5
S214402640002229463846164B9847012811D04FF4A9
S21440265021720C490C480D4CA0471248A0470D4823
S214402660A047002100910B460A46CF20044CA047C5
S21440267001E0002001E06FF0050003B0F0BD00BFB0
S2144026803121400028BC4000A0B2400059454000DF
S21440269024BF4000CCB24000451F400054BF40001D
S2144026A0012040008CBF40002DE9F04385B0044631
S2144026B088461546002200922B460146C7204C4EBF
S2144026C0B04701280BD040F20F224A494A484B4DAA
S2144026D0A84721464A48A8474A48A84782E0C72014
S2144026E0494B9847012812D040F2152241494248AA
S2144026F0424DA84721464548A8474248A84700219A
S21440270000910B460A46CF20394CA0476AE0002489
S214402710ADF80C403E4FDFF810912E46B5F5005F01
S21440272028BF4FF400562CB9B5F5005F94BF03237D
S214402730012304E0B5F5005F94BF0323022363F052
S2144027400F038DF80B3001210DF10B00B84750B147
S2144027504FF4D4722F492848284CA0472E48A0470B
S2144027602848A04728E0314608EB0400B84750B157
S21440277040F2B11227492048204CA0472748A0479E
S2144027802048A04718E099F8003073B9022103A802
S214402790B84750B140F2BB121E491748174CA047E5
S2144027A01F48A0471748A04706E0344424B2AD1B54
S2144027B0ADB2002DB1D113E040F226220D490E48AD
S2144027C00E4CA0471748A0470E48A0470024009448
S2144027D0234622462146CF20054DA847204603E003
S2144027E0002001E06FF0050005B0BDE8F08300BFB3
S2144027F03121400000C14000A0B240005945400091
S214402800B4BF4000CCB24000451F4000E4BF40008B
S2144028101121400018BC40001CC0400054C040007D
S21440282088C04000C0C04000900940202DE9F84FC5
S214402830BDF82840002C47D081460E469246984622
S21440284003012249CB58002B3ED001EB00139B8856
S2144028509BB2002B38D001EB00139B7ADBB2012BE6
S21440286032D1F48001EB0017DFF878B0BB88E31A6A
S2144028701BB2002B03DDBD88ADB2002301E0254628
S214402880012339682A464046D847A8B93B68336092
S214402890B580F3885B1BF3800D4B1B682BB10C4B4C
S2144028A01B683246514648469847641BA4B2A84423
S2144028B0002CDBD1BDE8F88F0648074DA8472146D7
S2144028C00648A8470648A847BDE8F88FCC0F4020E2
S2144028D07C10402090B54000594540002CC1400037
S2144028E0CCB24000C50B4000F0B599B01446412824
S2144028F019D10023042207A92046A44CA04700284B
S21440290040F041819DF81D308DF80C30A04B1B687F
S214402910002B00F038819E4B1B6803AA01219DF9CD
S2144029201C0098472FE10D46422819D10023042267
S21440293007A92046954CA047002840F024819DF8E2
S2144029401D308DF80C30924B1B68002B00F01B811D
S2144029508F4B1B6803AA02219DF91C00984712E181
S21440296043283FD100230C220DEB02012046874C22
S214402970A047002840F007819DF91530002B19DB51
S214402980844A02EB03120021D172012191728249DE
S2144029900A88013292B20A800A8892B21AB90A8824
S2144029A0013292B20A807C4A118889B2794A02EB97
S2144029B00312D1808DF81C300223ADF82030BDF8CC
S2144029C00E30ADF82230049B0993714B1B68002BE8
S2144029D000F0D9806E4B1B6807AA04219DF91400AD
S2144029E09847D0E0442801D04B2824D10023042225
S2144029F007A92046654CA047002840F0C4809DF9B2
S214402A001C008DF80C009DF91D308DF80D303BB93B
S214402A10BDF81E30083B9BB25E4A02EB00121381A3
S214402A205B4B1B68002B00F0AE80594B1B6803AA1B
S214402A3005219847A7E04A2813D10023442207A936
S214402A402046524CA047002840F09D80534B1B68C0
S214402A50002B00F09880514B1B68179907A89847A1
S214402A6091E0A0F14603DBB2072B4DD8852222FA2F
S214402A7003F313F0010F47D0482814BF0627092751
S214402A800023102203A92046404EB04700287AD1A2
S214402A909DF91800BDF81A103E4A02EB00120023BA
S214402AA01373BDF914E0BDF81630BDF80E60ADF8EE
S214402AB02660049E0A96D28892B291421BD1BEF1FD
S214402AC0000F0ADDAE4508DA1FFA8EF20092234464
S214402AD03A4607A9324CA04755E0ADF820E000231F
S214402AE007932B4B1B68002B4DD0294B1B6807AA1E
S214402AF03946984747E0102D45D901230022114614
S214402B001046224CA0473EE000F0FD03452B01D086
S214402B104C2823D1472814BF072508250023082220
S214402B2007A92046194CA04700282CD19DF91C0027
S214402B30BDF82020BDF81E30ADF80C30154B03EB29
S214402B400013DB889BB29A421DD1114B1B68D3B150
S214402B500F4B1B6803AA2946984714E0522812D107
S214402B600123142207A92046084CA04758B90D4B0C
S214402B70089A1A601B6833B10A4B1B689DF82C20D4
S214402B8009990798984719B0F0BD00BFC50B40009B
S214402B907C104020CC0F40209209402084104020DA
S214402BA02D2840008010402008B50A4B1B7813F0B3
S214402BB0FF0F0ED1B02200210748084B984708491E
S214402BC00220084B98470122024B1A700022064BFF
S214402BD01A8008BD91094020CC0F4020690540006E
S214402BE0E9284000D50C400092094020024B18606E
S214402BF0024B1960704700BF7C1040208410402074
S214402C0070B586B002284BD101294CD002294DD050
S214402C104FF0FF3458E0254600EB04139B7A13F040
S214402C20FF0F36D12A4800EB04101646102200212A
S214402C30284B9847264B03EB051301229A72264AE7
S214402C40138801339BB2138013889BB21BB9138839
S214402C5001339BB21380204B1A8892B21C4B03EB75
S214402C600513DA8064B216F0010F2DD006AA02F8DA
S214402C70044D174B03EB05152123EB7200230293FB
S214402C8001930093042350210220144DA8471BE0D3
S214402C900F480134E4B28C42BDD34FF0FF3413E00A
S214402CA04FF0FF3410E00721002401E00B210724F9
S214402CB02546074B03EB04139B7A13F0FF0FE7D12F
S214402CC0034800EB0410B0E7204606B070BD00BFD6
S214402CD0CC0F40206905400092094020CD064000B8
S214402CE0002838DB002936D01F4B03EB00139B7AB5
S214402CF0DBB2002A32D0012B30D130B589B01A4B26
S214402D0003EB0013DB7A13F0010F07D0164B03EBEF
S214402D100013DB7A8DF81D304B2500E04425044631
S214402D208DF81C00082205A8104B98470E4800EB6B
S214402D300410C388ADF81E3000230293019300931D
S214402D400C2305AA29460220094CA047002818BF94
S214402D506FF0080005E06FF0050070476FF0050063
S214402D60704709B030BD00BFCC0F4020550540002D
S214402D70CD06400030B589B00C46003118BF012161
S214402D80B2F5AF6F88BF0021002936D0002834DB6B
S214402D901D4B03EB00139B7ADBB2012B30D18DF831
S214402DA01000ADF81220184B03EB0013DB88ADF88B
S214402DB01C300728B4BF50254425134B03EB0013A3
S214402DC0DB7A13F0010F06D00F4B03EB001005899A
S214402DD0ADB24C2100E045210295019200941023AB
S214402DE00DEB030241F080010220084CA04700286A
S214402DF00CBF00206FF00D0004E06FF0050001E00E
S214402E006FF0050009B030BDCC0F4020CD06400025
S214402E10002918BF002A45D070B586B00E46154624
S214402E20002836DB214A02EB0012927AD2B2012AFF
S214402E3032D11E4C0101621866509580127B12F00A
S214402E40FF0F2CD104EB001201211173D27A0A40F5
S214402E50002A0CBF46214D211BB94FF0FF33049387
S214402E6000E004938DF81400104B03EB0010C38869
S214402E70ADF816300023029301930093082304AA6A
S214402E8002200B4CA04700280CBF00206FF00D001E
S214402E9006E06FF0050003E06FF0050000E000205C
S214402EA006B070BD6FF00500704700BFCC0F4020E5
S214402EB0CD06400030B587B000282EDB1B4B03EB19
S214402EC000139B7ADBB2012B2AD104468DF81400FE
S214402ED0164B03EB0013DA88ADF8162000229A72E0
S214402EE0DA80DB7A03F00103934202920192009269
S214402EF04FF0040305AA0CBF49214E2102200C4D79
S214402F00A847051E18BF6FF0080510220021074885
S214402F1000EB0410074B984704E06FF0050501E00E
S214402F206FF00505284607B030BD00BFCC0F4020E7
S214402F30CD0640006905400010B584B004460C4BF1
S214402F409847C3B2402B0ED80022029201920092BC
S214402F5001332246CA210220064CA047002818BF4B
S214402F606FF0080001E06FF0050004B010BD00BF30
S214402F7079054000CD06400070B582B005462B4B23
S214402F809847C0F30B00B0F5687F4AD301A941F2D9
S214402F901040274B98470446002843D1254B019ABA
S214402FA0134025491943019141F21040234B98475D
S214402FB0B5B100212248214DA847AB212148A8475A
S214402FC001212148A84700212048A84781212048C0
S214402FD0A847204E204D3046A8470128FBD115E093
S214402FE000211748154DA847B9211648A847012182
S214402FF01548A84700211548A84781211448A847E6
S214403000144E154D3046A8470128FBD10949019B6F
S214403010194041F48031019141F21040074B9847E6
S21440302000E00024204602B070BD00BF59184000A2
S214403030451C4000FF8F88F800101101511C4000CD
S214403040080201000C020100140201001C020100EB
S2144030500402010018020100391C400010B5104857
S214403060104B98473E2100200F4B98470F4CA047E7
S2144030700028FCD00E4B98470E4A0F4B9A620F4CD6
S214403080A0470028FCD002200D4B984700200D4B4F
S21440309098470D4B98470248024B984710BD00BFD3
S2144030A000A3E111113D40009D374000F13740003C
S2144030B001384000013F182000060E4011384000FD
S2144030C0F936400035374000013C400090B92DE9C4
S2144030D0F0410C469046002A0FDD8F18084E094DE9
S2144030E0306821462B6898470134A742F8D14046BD
S2144030F0BDE8F0814FF0FF3070470020BDE8F0811A
S21440310090104020881040200138022815D82DE91C
S214403110F0410E4614469AB10D46DFF838800C4F03
S214403120D8F8000015F8011B3B68984700280ADBD2
S214403130A81B013CF4D1BDE8F0814FF0FF3070474A
S2144031400020BDE8F0814FF0FF30BDE8F08100BFC1
S2144031508C10402090104020F8B54FF40042574B5A
S2144031605A60BFF34F8FBFF36F8F554B0022C3F8A3
S21440317050225A6942F400325A61BFF34F8FBFF370
S2144031806F8FD3F88060C6F34E3506F007070437D6
S214403190C6F3C906B6FA86F000F01F00BFF34F8F9D
S2144031A01C46334605FA07F103FA00F20A43C4F810
S2144031B06022013BB3F1FF3FF6D1013DB5F1FF3F41
S2144031C0EFD1BFF34F8F3E4B5A6942F480325A617B
S2144031D0BFF34F8FBFF36F8F3A4A3B495160A1F51B
S2144031E080715160BFF34F8FBFF36F8FD3F890223B
S2144031F022F00102C3F89022D3F8942222F0010272
S214403200C3F89422BFF34F8FBFF36F8F0A202F4C23
S214403210A0470B20A0470C20A0471020A047112015
S214403220A0472B4B4FF480721A61C3F8A0201A6354
S214403230A3F580634FF400625A61C3F8A0205A6633
S214403240C3F890205A651A62C3F88420196F21F497
S21440325000611967596F21F400615967C3F8C020AF
S214403260C3F8D420C3F8B0204FF400121A66C3F84F
S21440327090205A655A62C3F88020196F21F40011D5
S2144032801967596F21F4001159675A60114AD2F8EC
S214403290143143F01003C2F814310F4B10221A6653
S2144032A0C3F890205A655A62C3F88020196F1143BC
S2144032B01967596F114359675A60F8BD50180E4048
S2144032C000ED00E0000C0E400C08005A213840008B
S2144032D000120E400080084000100E400AB14166C1
S2144032E070470166704700BF4264B1F1C05F2FD09F
S2144032F007D8B1F1006F14D0B1F1805F1ED039B954
S2144033007047B1F1205F37D004D8B1F1005F29D0C3
S21440331042607047B1F1405F2ED0B1F1605F2BD074
S214403320F6E710B4046F016FD3432140194001679C
S214403330446F416F21400B4043671AE0036F1343CD
S2144033400367416F436F0B4023EA02034367DFE79F
S214403350016F036F0B4023EA02030367436F134377
S2144033604367D5E7036F13430367436F13434367CE
S214403370CEE742605DF8044B704700BF416412F0F0
S214403380010F01D0416600E0016612F00A0F01D03D
S214403390016200E0416212F0020F02D0C0F88010D5
S2144033A004E012F0080F01D0C0F8841041610160BB
S2144033B0704700BF10B44164019C0CB1416600E008
S2144033C001660BB1016500E041650AB1016300E0AA
S2144033D04163016101605DF8044B704712F0100FC5
S2144033E012D0C0F8B01012F0200F02D0C0F8D4109F
S2144033F001E0C0F8D01012F0400F02D0C0F8C01064
S2144034007047C0F8C4107047C0F8B410704700BF8B
S2144034100164704741647047C06C7047806C704769
S21440342070B582B00D46474C04EB5014640201F070
S214403430F043B3F1005F4DD009D8B3F1805F23D09D
S214403440B3F1C05F33D0B3F1006F77D109E0B3F189
S214403450405F5DD0B3F1605F5AD0B3F1205F4CD08F
S2144034606CE000F01F000126864032464FF00061B7
S2144034702046354B984715F0010F02D0666601206E
S2144034805DE0266601205AE000F01F0001268640D7
S21440349032464FF0805120462B4B984715F0010F8F
S2144034A002D0666601204AE02666012047E000F02A
S2144034B01F000126864032464FF0C0512046224B20
S2144034C0984715F0010F02D06666012037E0266661
S2144034D0012034E000F01F000126864032464FF0BF
S2144034E000512046184B984715F0010F02D06666EB
S2144034F0012024E02666012021E000F01F0101267D
S2144035002A4606FA01F12046104B9847304616E008
S21440351005F0605200F01F01012605EA06030093FD
S214403520C5F38003B2F1605F14BF0022012206FAA1
S21440353001F12046064CA047304600E0002002B08D
S21440354070BD00BF07072000E93240007D334000D1
S214403550B53340002DE9F041044688460E4B984767
S214403560054620460D4B9847054013D00C4C04F1B9
S21440357060062368434508D16168294205D0E36860
S21440358040469847636825EA0305B44202D01034A3
S214403590002DEED1BDE8F081193440001D344000C6
S2144035A098094020F8B5174C2668062E28D84FF0C4
S2144035B0000C6446144FA64625017D598D4204D121
S2144035C007EB04156D68954204D00134E4B2A44676
S2144035D0A642F0D20C4D4FEA0E1E05EB0E0445F8FF
S2144035E00E106260A3600699E1600136664501D11F
S2144035F004490E6011461A46044B98470020F8BD11
S2144036000120F8BD9409402098094020DD33400051
S21440361008B50A210148024B984708BD000E0E40E7
S2144036205535400008B50B210148024B984708BD68
S21440363000100E405535400008B50C210148024B9D
S214403640984708BD00120E405535400008B5102179
S2144036500148024B984708BD00140E4055354000BF
S21440366008B511210148024B984708BD00160E4088
S21440367055354000F8B506460D461446174B984754
S21440368007464FF0FF313046154B98473046154BAE
S21440369098475FFA85FE0EF01F03012202FA03F3F5
S2144036A06809114901EB8002C2F88030C2F88031C7
S2144036B0002D07DA0EF00F0E6401E4B20B4A02F852
S2144036C00E4003E06401E4B2094A545541F8203004
S2144036D039463046074B9847F8BD00BF1D3440007A
S2144036E0153440001934400000E100E014ED00E0DD
S2144036F000E400E011344000032807D0042808D036
S21440370002280CBF4FF48072002204E04FF440724F
S21440371001E04FF4007206490B6B23F440731343E9
S2144037200B630A46936E13F0080FFBD0704700BF3A
S21440373000060E40184A136B23F0700318431063BC
S214403740936E13F0080F03D009E0013B03D11EE04F
S2144037504FF4805310498A6E12F0080FF5D00E4A87
S214403760136B23F0030343F002031363906E10F0D1
S214403770080004D000207047013B03D109E04FF415
S214403780805305498A6E12F0080FF5D07047012025
S21440379070470120704700BF00060E4038B10E4902
S2144037A00B6A0E4A1A400E4B13430B6270470A4888
S2144037B0036A090289B20B4A1A400B4B134319435A
S2144037C001620246936E13F0010FFBD0024A116A63
S2144037D0064B0B431362704700060E40FCFFC8FEC4
S2144037E002003701FCFFC8FF010037000000370128
S2144037F0024B986E00F48030704700BF00060E40C3
S2144038004FF00052014B9A62704700BF00060E40D0
S214403810024B986E00F00200704700BF00060E4054
S2144038203F281ED81F280CD8114B9A690123834085
S214403830934318D0012303FA00F00D4B1861002083
S214403840704720380A4BD3F808210123834093431E
S2144038500BD0012303FA00F0054BC3F8000100200B
S214403860704701207047002070470020704700BF17
S21440387000060E4008B5074B984203D11520064B6C
S214403880984708BD054B984202D12A20024B9847DC
S21440389008BD00BF00800040213840000080054041
S2144038A0436823F4702343604368090401F470219D
S2144038B00B434360704700BF10B443F6992301E0C2
S2144038C0013B0ED0046914F0010FF9D083684068BC
S2144038D010F0020F02D0C3F3034010700B8000209C
S2144038E000E001205DF8044B704700BF30B443F65B
S2144038F0992401E0013C11D0056915F0020FF9D07A
S214403900446814F0020F06D0120402F470221143E9
S2144039100BB141F08071C160002000E0012030BC56
S214403920704700BF32B100EB8100036B43F00103E8
S2144039300363704700EB8100036B23F001030363CE
S214403940704700BF32B100EB8100036B43F00203C7
S2144039500363704700EB8100036B23F002030363AD
S214403960704700BF00EB81010B6B23F0F0030B6345
S2144039700B6B1A430A637047431E1944B1FBF0F0C1
S214403980431EFE2B94BF00B24FF0FF30704700BF7F
S2144039906AB110B4144600EB81010B6B23F47F43ED
S2144039A00B630A6B42EA04220A63002002E04FF0EF
S2144039B0FF3070475DF8044B704700BF10B400EB13
S2144039C08101086B80B208630C6B44EA036343EAE8
S2144039D002420A635DF8044B704700BF436913F028
S2144039E0020F02D0C161002070470120704700BF1F
S2144039F0436913F0010F03D083690B7000207047B2
S214403A000120704710B40C0194420FD91AE0416867
S214403A1041F400214160120402F4E0221A4302629B
S214403A2000201CE001201AE0012018E0630803EBA8
S214403A30C202B2FBF4F2D3085C1E4FF6FE718C4213
S214403A40E9D9EFE7C9004B0803EBC202B2FBF1F23B
S214403A50D3085C1E4FF6FE718C42E5D8D7E75DF87A
S214403A60044B7047084BC0F8E43000234360436281
S214403A70836288230360242303604FF480730360CB
S214403A804FF40023036070470041535570B5054618
S214403A900C4616460F4B984700220F4B1A609CB1B7
S214403AA03246216828460D4B9847024670B96168F1
S214403AB0A368194323691943E3680B4306490B601F
S214403AC069680B436B6002E0012200E00122104669
S214403AD070BD00BF653A4000080A4020053A4000E5
S214403AE040230360704700BF10230360704700BF49
S214403AF0436913F0020F04D0C1F30801C1610020EE
S214403B0070470120704700BF436913F0010F05D08E
S214403B108369C3F308030B60002070470120704799
S214403B20FEE700BF00B583B0274B284A9A4203D031
S214403B30274B254A9A4204D3264B274A9A420FD30C
S214403B401AE02149254B5B1A23F0030304331F4A2E
S214403B50134452F8040B41F8040B9A42F9D1EBE7B0
S214403B601F4B204AD21A22F003021A44043B00217B
S214403B7043F8041B9342FBD11B4A1C4B23F07F03A4
S214403B809360EFF31083B3FA83F35B09019372B645
S214403B90BFF35F8F0022164B1A700199154A1368BF
S214403BA043F470031360BFF34F8FBFF36F8F29B199
S214403BB001220F4B1A70BFF35F8F62B60E4B9847C9
S214403BC00E4B9847FEE700BF00004020E8C6400086
S214403BD03C094020981040203C0940203B094020AA
S214403BE0400940209B10402000ED00E000004000CF
S214403BF01400402088ED00E009454000D1424000D6
S214403C003C4B1B6B03F00303012B0FD013B1022B6D
S214403C1029D057E0384B5B6913F0800F14BF4FF440
S214403C2000424FF4FA42354B1A604BE0314B1B6A68
S214403C3013F0807F03D0324A304B1A6042E0314A5C
S214403C402E4B1A602B4B1B6A03F07003102B02D0CE
S214403C50202B04D036E02C4A284B1A6032E0284A03
S214403C60264B1A602EE0234B1B6A13F0807F03D04E
S214403C70234A224B1A6012E0224A204B1A601D4B00
S214403C801B6A03F07003102B02D0202B04D006E0F2
S214403C901D4A1A4B1A6002E0194A184B1A60154B17
S214403CA01B6B03F00303022B0CD1124A936A926AF1
S214403CB01248C3F30A41036801FB0333D2B2B3FB95
S214403CC0F2F303600B4B1B6B03F07003702B07D1B2
S214403CD00A4A13680D49A1FB03135B08136070473B
S214403CE0044B1B6B0549C3F302120B68D3400B60B1
S214403CF0704700BF00060E4010180E4018004020C7
S214403D00001BB70000093D0000127A00ABAAAAAA21
S214403D10124B984204D84FF08062114B1A6070479D
S214403D20104B984203D8104A0D4B1A6070470F4B01
S214403D30984203D80E4A0A4B1A6070470D4B984279
S214403D4003D80D4A064B1A6070470C4B984294BFF6
S214403D504FF004220A4A024B1A607047FF2C31018A
S214403D60000C0E40FF59620200010004FF869303D8
S214403D7000020004FFB3C40400030004FFE0F5059E
S214403D8000050004094B1B6813B9094A074B1A6023
S214403D90064B1B681A180749914204DB1046034A33
S214403DA01060184670474FF0FF3070470C0A4020AE
S214403DB098324020FCFF45204FF0FF30704700BF50
S214403DC04FF400534B600020704700BF01207047FF
S214403DD00020704710B582B0094B19600122094B8C
S214403DE01A700B0E0193C1F307430093C1F30723E8
S214403DF0CAB201460448054CA04702B010BD00BFF9
S214403E008C0F4020900F402098C1400059454000FC
S214403E1038B504460D46134B9847042821D9421E10
S214403E206B7903F00F03092BCCBF37333033A354E1
S214403E30821E6B791B09092BCCBF37333033A35412
S214403E40021F2B7903F00F03092BCCBF37333033D7
S214403E50A35405382B791B09092BCCBF3733303395
S214403E60235438BD79054000644B93F900308342B3
S214403E7040F0C38070B582B01446052902D00629AA
S214403E8042D0B8E05E4B1B78002B00F0B4805D4D0E
S214403E904FF4AF62002128465B4B98475B4B00933C
S214403EA05B4B5C4A5C4928465C4DA847F4B194F9A4
S214403EB00130002B1ADB534C2046594B98474F4D48
S214403EC0002382B2214695F90000564EB0474FF483
S214403ED0AF663246002120464B4B98470023324679
S214403EE0214695F90000504CA04784E04F48504B7F
S214403EF098470022424B1A70404C94F900004D4BB4
S214403F009847FF23237076E0002A6AD0B2F904303F
S214403F10002B66DD48491068484B98470446484899
S214403F20434B9847ACB1063446492046434B9847E6
S214403F30064608B100230370214643483C4DA84737
S214403F404249701C3D4B984704464148A84724B90F
S214403F5017E04048364B98474DE013343E492046DC
S214403F60364B9847054608B100230370214636482D
S214403F702F4B98473949681C304B9847044620B920
S214403F801EE034482A4B984735E03548284B98473A
S214403F901C3431492046294B984708B1002202700C
S214403FA021462948224B9847144C94F90000214B4F
S214403FB09847FF2323704FF480722A4B5A631AE0C7
S214403FC0104C4FF4AF652A46002120460E4B9847CA
S214403FD000232A462146094890F90000124CA04783
S214403FE009E02148124B9847044C94F90000114BC5
S214403FF09847FF23237002B070BD70471C004020D6
S214404000880F4020100A402081454000F8C14000FB
S214404010C8C14000D4C14000F0C140007D474000C8
S21440402001484000752D4000112E400070C24000EF
S21440403059454000B52E40008CC24000954B40008C
S21440404094C240009CC24000A0C24000A8C24000AB
S214404050BCC24000CCC24000D4C24000D8C24000DF
S214404060E8C2400000120E40FCC2400010B582B0CC
S2144040700C462C2804D0322814D0092838D120E009
S2144040800B78012B05D11B481B4B98471B4B984779
S2144040902EE0002B2CD11A48174B98470022194B7C
S2144040A01A7025E08B784A780978E07800901648B0
S2144040B0114CA0470122134B1A701448144B9847D2
S2144040C016E014480C4B984794F863306BB920467A
S2144040D0114B984794F86220FF23009304F1210384
S2144040E0C1B220460D4CA04702E00D48024B98470F
S2144040F002B010BD18C34000594540004915400065
S21440410038C34000890F40205CC340007C004020FC
S214404110392F400084C3400001484000FD14400051
S214404120ACC34000F0B583B005460C46002301936F
S214404130294B984207D11F46284E21463846B0475D
S2144041400028FAD115E0264B984207D11F46234E49
S21440415021463846B0470028FAD115E0214B984210
S21440416007D11F461D4E21463846B0470028FAD193
S21440417017E01D4B9D4207D11F46184E2146384634
S214404180B0470028FAD119E0184B9D4209D11E4687
S214404190174D01A93046A8470028FAD1019B237045
S2144041A018E0144B9D4209D11E46114D01A93046D8
S2144041B0A8470028FAD1019B23700BE00E4B9D4286
S2144041C008D11E460A4D01A93046A8470028FAD114
S2144041D0019B237003B0F0BD00080E40F13940004B
S2144041E0000A0E40001A0E40001C0E4000400240DE
S2144041F0093B40000080024000C0024070B50C46BB
S2144042002A4B984208D11E46294D21463046A8479B
S2144042100028FAD1012070BD264B984208D11E4690
S214404220234D21463046A8470028FAD1012070BDCC
S214404230214B984208D11E461D4D21463046A84780
S2144042400028FAD1012070BD1C4B984208D11E466A
S214404250174D21463046A8470028FAD1012070BDA8
S214404260174B984208D11E46164D21463046A84761
S2144042700028FAD1012070BD134B984208D11E4643
S214404280104D21463046A8470028FAD1012070BD7F
S2144042900E4B984208D11E460A4D21463046A84746
S2144042A00028FAD1012070BD002070BD00080E40E5
S2144042B0DD394000000A0E40001A0E40001C0E4039
S2144042C000400240F13A40000080024000C00240F8
S2144042D0F0B595B05C4B98475C4B98470E205C4ECB
S2144042E0B0475C4D5C4B1D605C4A5D4B1A605D4A56
S2144042F05D4B1A604FF4E1330193C02302934FF4B1
S214404300006303930024049405940E20B047574A54
S21440431001A92846564B98472846564B9847284664
S214404320554B9847554E336821469868544DA84794
S214404330336821465868A8475248534B9847534BD2
S21440434098470F941094119412941394504B0E93D4
S2144043500EA8504B984720B101464F484A4B9847C5
S214404360FEE74E4B98474E494E484F4B98470DF107
S2144043702F010CA84D4B98479DF82F3013B94C4849
S2144043804C4B98474A4E30464B4B98474B4D3146E0
S21440439028464B4FB8474B4C31462046B8472846F0
S2144043A0494B9847C1B22846484B9847C02384F8A3
S2144043B04130A82384F84230012284F8432084F810
S2144043C0442043492046434B984722464249434867
S2144043D02D4B9847424D434C434E0020A8472378E8
S2144043E0002BFAD03378002BF7D1404B1B78002BAC
S2144043F0F3D03F4B93F90030002B0CDA002201211A
S21440440002203C4B98473A4B1870002803DA3A484B
S2144044101D4B9847E1E70223ADF81C304FF4A0430C
S214404420ADF81E30354B1B680893102207A9304B59
S21440443093F90000324B984718B13248124B9847D0
S214404440CBE701233370C8E75D3040005931400068
S214404450213840000080024090104020FD4140003E
S2144044608C104020254140008810402080D1F00824
S2144044708D3A4000E13A4000E93A4000C804402006
S2144044801D464000CCC34000594540001102400044
S2144044906D404000B111400030C44000A92B4000A0
S2144044A0D53D4000693E4000ED2B40004D15400094
S2144044B094004020191540007D1540002000402003
S2144044C0113E40003400402079054000A9154000C8
S2144044D088C14000E115400058C4400068C4400010
S2144044E0AD124000890F4020880F4020900F40209A
S2144044F01C004020012C4000B8C440008C0F4020D7
S214404500E12C4000ECC4400070B50F4E0F4D761BBA
S214404510B61018BF002405D0013455F8043B984720
S214404520A642F9D10A4E0B4D761B08F0C7F8B610D6
S21440453018BF002406D0013455F8043B9847A642DD
S214404540F9D170BD70BD00BFC8C64000C8C64000A7
S214404550D0C64000C8C640000FB400B5074983B077
S21440456004AB086853F8042B8168019301F0ACFF54
S21440457003B05DF804EB04B0704700BFC8044020A9
S21440458070B4840746D0541E002A41D0CDB20346AC
S21440459002E0621EE4B3144603F8015B9A07F8D1C2
S2144045A0032C2ED9CDB245EA05250F2C45EA054504
S2144045B019D903F110022646103E0F2E42F8105C21
S2144045C042F80C5C42F8085C42F8045C02F11002C7
S2144045D0F2D8A4F1100222F00F0204F00F041032B9
S2144045E0032C13440DD91E462246043A032A46F8A5
S2144045F0045BFAD8221F22F003020432134404F06C
S21440460003042CB1C9B21C4403F8011BA342FBD1DE
S21440461070BC704714460346C2E700BF00290CBF73
S214404620022200224FF4806300F000B82DE9F043E8
S214404630514C256883B004460F4690461E4615B139
S214404640AB6B002B79D0B8F1020F04D0B8F1010F54
S2144046507FD8002E7DDB2146284603F041FF216BA4
S21440466041B104F14003994202D0284604F096F83E
S21440467000232363B4F90C300022A26162601A065C
S21440468054D423F44A6323F00303B8F1020FA38102
S21440469039D001AB6A462146284604F021FBA3895F
S2144046A01843A08126B327B3AB6B002B4DD0009B9D
S2144046B0B4F90C0027609E421CBF40F40060A08105
S2144046C0B8F1010F08BF40F0010083B208BFA081D7
S2144046D003F0080080B22761666118B313F001004A
S2144046E02FD000207642A661A06003B0BDE8F083DC
S2144046F0009E304604F068FB074668B3A38943F043
S2144047008003A381D0E7002004F1430243F0020374
S21440471000250121A381A56022602261616103B06A
S214404720BDE8F083A06003B0BDE8F0832169284669
S21440473004F034F8B4F90C30A3E7284603F064FFDD
S21440474081E7A66003B0BDE8F083284603F05CFF2F
S214404750ADE74FF0FF30E2E7DDF80090B14506D018
S214404760484604F031FB074608B14E46C6E7B4F962
S2144047700C304FF0FF30C7E7C80440200EB4F0B509
S2144047809CB021AB0F4953F8042B019305466FF0BC
S2144047900044086802954FF402774FF6FF7602A968
S2144047A00695ADF8147004940794ADF8166000F0C2
S2144047B001FB029B00221A701CB0BDE8F04003B01B
S2144047C0704700BFC8044020000000000000000002
S2144047D00000000000000000000000000000000094
S2144047E00000000000000000000000000000000084
S2144047F00000000000000000000000000000000074
S21440480090F800F06DE9024520F007016FF0000CCB
S21440481010F0070491F820F040F049804FF0000473
S2144048206FF00700D1E9002391F840F000F108004E
S21440483082FA4CF2A4FA8CF283FA4CF3A2FA8CF386
S2144048404BBBD1E9022382FA4CF200F10800A4FAED
S2144048508CF283FA4CF3A2FA8CF3E3B9D1E9042341
S21440486082FA4CF200F10800A4FA8CF283FA4CF378
S214404870A2FA8CF37BB9D1E9062301F1200182FA32
S2144048804CF200F10800A4FA8CF283FA4CF3A2FA38
S2144048908CF3002BC6D0002A04BF04301A4612BA46
S2144048A0B2FA82F2FDE8024500EBD2007047D1E949
S2144048B0002304F00305C4F100004FEAC50514F0D8
S2144048C0040F91F840F00CFA05F562EA05021CBFA9
S2144048D063EA050362464FF00004A9E72DE9F0417C
S2144048E04FF0010E744600254FF0FF362B198B42D1
S2144048F000EB06070DD23F5D10F803C0BC452DD235
S2144049001D460124C6EB030E2B198B4200EB06070F
S214404910F1D34FF00108C2F800E0444600254FF0BE
S214404920FF372B19994200EB070E0ED91EF804E00C
S21440493010F803C0F44518D91D460124C7EB0308F8
S2144049402B19994200EB070EF0D80137701C8742AE
S21440495024BFC2F800803846BDE8F0810CD04FF046
S214404960010E2E4674467544C0E70CD04FF0010841
S2144049702F4644464544D4E7744509BFA64601340D
S2144049801D460124B2E7444509BFA04601341D46F2
S2144049900124C6E72DE9F04FADF2144D1646054604
S2144049A08B461046194603AA1C46FFF797FF03ABF3
S2144049B081460DF20C4243F8044F9342FBD14CB172
S2144049C0631E324604A812F8011B40F8213013F14A
S2144049D0FF33F8D203994A463144304604F008FD86
S2144049E0002871D109F1FF330093F31882460193F2
S2144049F023468046544658469A4608EB0A073A1AD3
S214404A000021284404F0A4FC002858D1002F56D09A
S214404A10EB1904AA13F8013C52F823304BB124B1E9
S214404A20039A934201D2C2EB0A03984400243846C4
S214404A30E3E74C4523460AF1FF3E38BF4B467345F5
S214404A4013D208EB030216F803C0A85C84452A4438
S214404A5006EB030106D02EE011F801CF12F8010F45
S214404A60844528D101337345F6D34C45009980F0F0
S214404A708B80009B019808EB03020378A85C834276
S214404A802A4440F08180019B06EB040B06E013F8B5
S214404A9001ED12F8010D864504D161469B4501F1B2
S214404AA0FF3CF4D101348C4270D8039C3846A04475
S214404AB0C4EB0A04A1E7C9F101029044B5E700201F
S214404AC00DF2144DBDE8F08FC9EB04034B4538BFDB
S214404AD04B46013309F1FF38039306EB080358466B
S214404AE04FF0000ACB4699460AEB04073A1A0021D3
S214404AF0284404F02DFC0028E1D1002FDFD0EB192C
S214404B0004AA13F8013C52F82330A3BB611E8B4520
S214404B1015D20AEB0B0216F80B3015F802E09E454C
S214404B202A4406EB0B005B4606D027E010F801CF80
S214404B3012F801EFF44521D101338B42F6D3B8F198
S214404B40FF3F11D00AEB080299F80010AB5C99427F
S214404B502A440FD14B4605E013F8010D12F8011D0B
S214404B60884207D1B342F7D105EB0A000DF2144D47
S214404B70BDE8F08F039B9A443846B5E7CBF1010277
S214404B8092449A443846AFE749468BE705EB08001F
S214404B9096E700BF0378002B00F004812DE9F04F24
S214404BA091F8008085B04446B8F1000F16D086468E
S214404BB001F1010C012703E012F8014B6CB1944659
S214404BC09C4214BF002707F001071EF8013F6246CB
S214404BD0002BF1D19CF800300BBB17B105B0BDE8F7
S214404BE0F08F0E46054641460130C6EB0C0405F0F4
S214404BF087FA074698B1012CF0D02819874294BF0F
S214404C00C7EB000B4FF0010B1F2C0CD92346324646
S214404C1059463846FFF7BEFE05B0BDE8F08F002087
S214404C2005B0BDE8F08F03AA21463046FFF756FE92
S214404C300399804602463144304604F0D9FB0028AA
S214404C4058D108F1FF330193F31881460546009387
S214404C505846B2466619321A0021384404F078FBAA
S214404C600028DCD1002EDAD0C845434638BF4B4634
S214404C709C4212D95A191AF80310B85C88423A4432
S214404C800AEB030E06D02DE01EF8010F12F8011FA6
S214404C90884227D101339C42F6D8019BC845194625
S214404CA040F28380EA1800980378B85C83423A441E
S214404CB07BD1009B0AEB090B06E013F801CD12F8F6
S214404CC001EDF44504D101465B4501F1FF30F4D1D6
S214404CD009F10109894557D8039B30461D44C3EB6B
S214404CE00409B7E7C8F1010215441D444FF0000916
S214404CF03046AFE7C8EB0403434538BF434601336D
S214404D0008F1FF39039306EB090358460025BB46D6
S214404D109A4667193A1A0021584404F019FB0028AD
S214404D207FF47DAF002F3FF47AAF444515D908EBAA
S214404D30050216F808301BF8020098425A4406EB63
S214404D400801434606D023E011F801EF12F8010FA0
S214404D5086451DD101339C42F6D8B9F1FF3F12D0AB
S214404D6005EB09029AF800101BF8023099425A44A3
S214404D7014D1534605E013F8010D12F8011D884280
S214404D800CD1B342F7D15F46781905B0BDE8F08F35
S214404D90C8F1010215441D443846BAE7039B38461D
S214404DA01D44B6E70B7813B97047414690E700209C
S214404DB0704700BF2DE9F04FC1B00C46099115462B
S214404DC00E930A9003F088FF036817931846FFF780
S214404DD017FDA38916901E0603D52369002B01F004
S214404DE0198100231A4612932593249319930B9303
S214404DF0DFF864A4149230AB239399461592A846E4
S214404E0098F800304446EBB1252B02D11AE0252B0A
S214404E1003D014F8013F002BF9D1C8EB04058DB13F
S214404E20249B259AC9F8008001332A44072BC9F8E9
S214404E3004502592249300F3A68009F108090B9BA1
S214404E402B440B932378002B00F0A68000231A46B1
S214404E508DF86F3019460C9307934FF0FF3B6378FD
S214404E6004F101085D4608F10108A3F12000582826
S214404E7000F22584DFE810F088032304230490031F
S214404E802304230423042304230423049703A503B1
S214404E9023045D00E2002304FE0005010501050130
S214404EA0050105010501050105010501230423044B
S214404EB02304230423042304230423042304230475
S214404EC015018102230481022304230423042304BE
S214404ED0C60223042304CD0223042304230423040C
S214404EE02304F70223042304250323042304230472
S214404EF023042304230423042304230423046603F3
S214404F007903810281028102810379032304230409
S214404F10D1032304DB03A3006400EE032304F5035C
S214404F202304AA0323042304BC030C980E93404294
S214404F300C90079B43F00403079398F8003092E7E1
S214404F400E98AB46002104688DF86F10071D079831
S214404F50302378228B458DF870304FF000058DF861
S214404F60712040F00203C0F2C78320F0800343F074
S214404F700203079354EA05030E9700F093830F4607
S214404F801192B348CEE223AA09990A9805F020F96F
S214404F9048B90DF1C00952E7259B23B10A980999F3
S214404FA023AA05F015F9099B9B8913F0400F0B9B2C
S214404FB018BF4FF0FF33184641B0BDE8F08F11934D
S214404FC0AB46002A41F02382079A12F0200300F0F5
S214404FD02E820E9F073727F00703002703F10801AC
S214404FE0BB450E91D3E900458DF86F70C0F25287ED
S214404FF022F08003079354EA050300F0758330AE31
S214405000E20842EA4572E90804F007030D461446F2
S214405010303354EA050206F8013DF1D1079AD1072C
S21440502040F18480302B00F081803022731E06F8D9
S214405030012C30AAD21A0D921E467AE098F800301B
S2144050402A2B08F1010401F0B181A3F130000928B0
S21440505098BF002501F2648114F8013B05EB8505F5
S21440506000EB4505A3F130000928F5D945EAE5757A
S214405070A046FAE6079B43F08003079398F8003073
S214405080F1E6A3F1300000231C4618F8013B04EB80
S214405090840400EB4404A3F130000928F5D90C94AD
S2144050A0E3E61193AB46002A41F0C981079B43F0E3
S2144050B010030793079B980640F130850E9F0737ED
S2144050C027F00707D7E9002307F108010E91144699
S2144050D01D46002A73F10003C0F25B85BBF1000F4A
S2144050E09DF86F70C0F23885079B23F080030793C6
S2144050F054EA050300F0DB81002D08BF0A2CC0F0FF
S214405100DB8130AE204629460A22002305F03CFFCC
S214405110303206F8012D2046294600230A2205F0A3
S21440512033FF04460D4654EA0503EBD130AB9B1BD8
S2144051300D930D9B5B45B8BF5B46089300231393C6
S21440514017B1089B01330893079B13F002030F9394
S21440515002D0089B02330893079B13F084031093F6
S21440516040F0D7820C9B089A9D1A002D40F3D182BE
S214405170102D2599249A374F27DD18964846102437
S214405180B946099E2F460A9D04E0103F102F00F1B5
S214405190080016DD01322F4B24921031072A259144
S2144051A080E81800F1DD23AA3146284605F010F8BD
S2144051B000287FF4F8AE103F102F2599249A30A887
S2144051C0E8DC189E3D464F46814601326C18072A59
S2144051D025942492C9F80070C9F8045000F3288436
S2144051E09DF86F7009F1080977B1249B01330134AB
S2144051F00DF16F010122072B2594249389E80600C0
S21440520000F3A08309F108090F9B6BB1249B01337F
S21440521002341CA90222072B2594249389E8060011
S21440522000F39C8309F10809109B802B00F0D5827F
S2144052300D9BC3EB0B07002F39DD074A249B0F92CB
S214405240102F28DD22464FF0100B0A9D099C0AE0DD
S21440525050C5400070C540001CC54000103F102F90
S21440526009F1080916DD01331032072B25922493E5
S21440527089E8000CF2DD23AA2146284604F0A8FF60
S21440528000287FF490AE103F102F259A249B0DF1F6
S214405290C009E8DC144601330F9A24933C44072B9C
S2144052A0259489E8840000F3418309F10809079BA7
S2144052B0DA0500F13082249B0D99C9F8006001336D
S2144052C00C44072B2594C9F80410249300F3188344
S2144052D009F10809079B59073FD50C9B089A9D1A68
S2144052E0002D3ADD102D249BBC4F23DD2246102690
S2144052F0DDF828B0099C04E0103D102D09F108099E
S21440530017DD0133B54924931032072B259289E8DF
S2144053104200F1DD23AA2146584604F059FF0028F2
S2144053207FF441AE103D102D259A249B0DF1C00907
S214405330E7DC144601332C44072B25942493C9F804
S2144053400070C9F8045008DD23AA09990A9804F0A9
S2144053503FFF00287FF427AE259C0B9B0C9A0899AC
S2144053608A42ACBF9B185B180B93002C40F0D4824B
S214405370002324930DF1C00942E51193AB46002A61
S21440538041F059800E9F073727F0070303F10802C4
S2144053900E921A6814925B681593159B149D23F021
S2144053A00044284621464FF0FF328D4B05F0AEFDB7
S2144053B0002840F0C184284621464FF0FF32884BF3
S2144053C005F086FD002840F0B78414981599002211
S2144053D0002305F073FD002840F04B879DF86F7062
S2144053E0804E814B079921F0800107911199032245
S2144053F04FF0000B08924729D8BF1E460D92CDF8B5
S2144054004CB09DE6079B43F00803079398F800309E
S21440541029E51193AB46002A41F00980079B43F0EB
S21440542010030793079A12F020037FF4D2AD079932
S21440543011F0100200F007850E988DF86F30BBF122
S214405440000F046800F104074FF00005C0F2218504
S2144054500A4622F08002079254EA05020E9700F0B0
S21440546043811F46CBE51193AB46002A40F0D787D1
S214405470079B43F010030793079A12F0200300F0AF
S21440548032830E9F073727F00703002703F10801F2
S214405490BB450E91D3E900458DF86F70C0F25C8332
S2144054A022F08003079354EA05037FF425AEBBF150
S2144054B0000F00F0FE80002440AE303406F8414D28
S2144054C034E61193AB46002A40F0A587079B474831
S2144054D09D0640F197800E9F073727F00703D3E9D4
S2144054E0004503F108020E92079A12F0010700F0F9
S2144054F0418254EA050300F0F5849DF844208DF877
S21440550071200027079A8DF86F703023BB458DF8C1
S214405510703042F00203C0F2A98622F0800343F0C6
S2144055200203079330AE230904F00F0143EA0573E4
S2144055302A091C461546435C06F8013D54EA050315
S214405540F1D1F3E50E9911930A688DF8982000235F
S2144055500A461F468DF86F30043201230893BB4637
S21440556013970E920D9326AEEEE51193AB46002AA6
S2144055703FF4A0AD8DF86F109CE5079B43F04003C9
S214405580079398F800306EE498F8003000297FF4CE
S2144055906AAC0122202166E4079B43F0010307938F
S2144055A098F800305FE40E9C23680C931846002859
S2144055B0234603F10403FFF6B8AC0E9398F8003088
S2144055C051E498F8003001222B214CE41193AB466D
S2144055D0002A3FF451AF8DF86F104DE770C540007C
S2144055E0FFFFEF7F30C540002CC540003CC5400063
S2144055F01193AB46002A40F00387079B99489D06C7
S2144056003FF569AF079BDC0640F15E840E9A134671
S214405610043314680E93002566E798F800306C2B28
S21440562000F0E184079840F0100007901BE4002A41
S21440563040F0DB86079B9B0640F12F840E9A0B9921
S2144056401368CD170846043229460E92C3E9000176
S214405650FFF7D6BB079B43F02003079398F800302C
S21440566001E40E9A1193166800248DF86F40171DBA
S214405670002E00F0BD85002DC0F20F852A4621463B
S214405680304603F065FE002800F00486831B0D9329
S214405690A34623EAE3730E970893CDF84CB09DF8E3
S2144056A06F704DE56F481192BBF1000F40F073816B
S2144056B05F464FF0000BCDF834B030AE39E511936D
S2144056C0002A40F0B086119A002A3FF465AC0023C9
S2144056D001211F4608918DF898208DF86F309B4623
S2144056E013930D9126AE2FE5BBF1000F00F0DD853C
S2144056F000270024002582E45A480793119254EA72
S21440570005030E974FF000077FF40CAF00240025EA
S21440571008E7259C68E5119B652B40F3A980149803
S21440572015990022002305F0BFFB002800F03581C4
S214405730249B4D4AC9F80020013301340122072B2F
S21440574025942493C9F8042000F3E68309F1080958
S2144057501D9B129A934203DB079BDB077FF5BAAD8E
S214405760249B1699179AC9F8002001330C44072B3E
S2144057702594C9F80410249300F33F8409F10809DE
S214405780129B5D1E002D7FF7A5AD384A249B0F92D5
S214405790102D40F3E68110260A9FDDF824B005E080
S2144057A009F10809103D102D40F3DB810133103418
S2144057B0072B25942493C9F800A0C9F80460EFDDB0
S2144057C023AA5946384604F003FD00287FF4EBAB85
S2144057D0259C249B0DF1C009E4E70C9B089A9F1A70
S2144057E0002F7FF725AD214A249B0F92102F2BDDEB
S2144057F04A462146B946102537460A9C099E06E089
S214405800A9F11009B9F1100F02F1080218DD0133B1
S2144058101031072B25912493C2F800A05560EFDD88
S21440582023AA3146204604F0D3FC00287FF4BBABC5
S214405830A9F11009B9F1100F2599249B30AAE6DC8E
S2144058403E460C464F46914601330F9A24933C44BD
S214405850072B259489E8840000F3458209F108095E
S214405860E6E400BF50C540006CC540001CC5400083
S214405870129B249D012B40F30882013501340123FD
S214405880072D25942495C9F80060C9F8043000F324
S2144058900D8209F10809169A179BC9F800300135A0
S2144058A01444072D25942495C9F8042000F30E824D
S2144058B009F10809002314981599002205F0F4FA16
S2144058C0129B002840F0C380013B013501361C4442
